{
  "contracts/protocols/graph-protocol/GraphProtocol.sol": {
    "GraphProtocol": {
      "abi": [
        {
          "constant": false,
          "inputs": [
            {
              "name": "_indexer",
              "type": "address"
            },
            {
              "name": "_tokens",
              "type": "uint256"
            }
          ],
          "name": "delegate",
          "outputs": [
            {
              "name": "shares_",
              "type": "uint256"
            }
          ],
          "payable": false,
          "stateMutability": "nonpayable",
          "type": "function"
        },
        {
          "constant": true,
          "inputs": [],
          "name": "graphProxy",
          "outputs": [
            {
              "name": "",
              "type": "address"
            }
          ],
          "payable": false,
          "stateMutability": "view",
          "type": "function"
        },
        {
          "constant": false,
          "inputs": [
            {
              "name": "_indexer",
              "type": "address"
            },
            {
              "name": "_shares",
              "type": "uint256"
            }
          ],
          "name": "undelegate",
          "outputs": [
            {
              "name": "tokens_",
              "type": "uint256"
            }
          ],
          "payable": false,
          "stateMutability": "nonpayable",
          "type": "function"
        },
        {
          "constant": false,
          "inputs": [
            {
              "name": "_indexer",
              "type": "address"
            },
            {
              "name": "_delegateToIndexer",
              "type": "address"
            }
          ],
          "name": "withdrawDelegated",
          "outputs": [
            {
              "name": "tokens_",
              "type": "uint256"
            }
          ],
          "payable": false,
          "stateMutability": "nonpayable",
          "type": "function"
        },
        {
          "constant": true,
          "inputs": [],
          "name": "grtTokenAddress",
          "outputs": [
            {
              "name": "",
              "type": "address"
            }
          ],
          "payable": false,
          "stateMutability": "view",
          "type": "function"
        },
        {
          "anonymous": false,
          "inputs": [
            {
              "indexed": false,
              "name": "_graphProxy",
              "type": "address"
            },
            {
              "indexed": false,
              "name": "_grtTokenAddress",
              "type": "address"
            }
          ],
          "name": "LogDelegate",
          "type": "event"
        },
        {
          "anonymous": false,
          "inputs": [
            {
              "indexed": false,
              "name": "_indexer",
              "type": "address"
            },
            {
              "indexed": false,
              "name": "_amount",
              "type": "uint256"
            },
            {
              "indexed": false,
              "name": "_share",
              "type": "uint256"
            }
          ],
          "name": "GraphProtocolDelegated",
          "type": "event"
        },
        {
          "anonymous": false,
          "inputs": [
            {
              "indexed": false,
              "name": "_indexer",
              "type": "address"
            },
            {
              "indexed": false,
              "name": "_amount",
              "type": "uint256"
            },
            {
              "indexed": false,
              "name": "_share",
              "type": "uint256"
            }
          ],
          "name": "GraphProtocolUnDelegated",
          "type": "event"
        },
        {
          "anonymous": false,
          "inputs": [
            {
              "indexed": false,
              "name": "_indexer",
              "type": "address"
            },
            {
              "indexed": false,
              "name": "_delegateToIndexer",
              "type": "address"
            },
            {
              "indexed": false,
              "name": "_tokens",
              "type": "uint256"
            }
          ],
          "name": "GraphProtocolWithdrawDelegated",
          "type": "event"
        }
      ],
      "evm": {
        "bytecode": {
          "linkReferences": {},
          "object": "608060405234801561001057600080fd5b50610714806100206000396000f3fe608060405234801561001057600080fd5b5060043610610073577c01000000000000000000000000000000000000000000000000000000006000350463026e402b811461007857806337ebce27146100b65780634d99dd16146100da57806351a60b0214610106578063796e410914610134575b600080fd5b6100a46004803603604081101561008e57600080fd5b50600160a060020a03813516906020013561013c565b60408051918252519081900360200190f35b6100be61041b565b60408051600160a060020a039092168252519081900360200190f35b6100a4600480360360408110156100f057600080fd5b50600160a060020a038135169060200135610433565b6100a46004803603604081101561011c57600080fd5b50600160a060020a0381358116916020013516610531565b6100be6106d0565b604080517f23b872dd0000000000000000000000000000000000000000000000000000000081523360048201523060248201526044810183905290516000917354fe55d5d255b8460fb3bc52d5d676f9ae5697cd916323b872dd9160648082019260209290919082900301818787803b1580156101b857600080fd5b505af11580156101cc573d6000803e3d6000fd5b505050506040513d60208110156101e257600080fd5b5050604080517f095ea7b3000000000000000000000000000000000000000000000000000000008152732d44c0e097f6cd0f514edac633d82e01280b4a5c60048201526024810184905290517354fe55d5d255b8460fb3bc52d5d676f9ae5697cd9163095ea7b391604480830192600092919082900301818387803b15801561026a57600080fd5b505af115801561027e573d6000803e3d6000fd5b5050604080517f026e402b000000000000000000000000000000000000000000000000000000008152600160a060020a0387166004820152602481018690529051732d44c0e097f6cd0f514edac633d82e01280b4a5c935063026e402b925060448083019260209291908290030181600087803b1580156102fe57600080fd5b505af1158015610312573d6000803e3d6000fd5b505050506040513d602081101561032857600080fd5b5051604080517f095ea7b3000000000000000000000000000000000000000000000000000000008152732d44c0e097f6cd0f514edac633d82e01280b4a5c600482015260006024820181905291519293507354fe55d5d255b8460fb3bc52d5d676f9ae5697cd9263095ea7b39260448084019391929182900301818387803b1580156103b357600080fd5b505af11580156103c7573d6000803e3d6000fd5b505060408051600160a060020a03871681526020810186905280820185905290517fac03ff6d8cef1f899bcef3aca4d90927f65f7c03869e465e15f92f07ab97fa0b9350908190036060019150a192915050565b732d44c0e097f6cd0f514edac633d82e01280b4a5c81565b604080517f4d99dd16000000000000000000000000000000000000000000000000000000008152600160a060020a0384166004820152602481018390529051600091732d44c0e097f6cd0f514edac633d82e01280b4a5c91634d99dd169160448082019260209290919082900301818787803b1580156104b257600080fd5b505af11580156104c6573d6000803e3d6000fd5b505050506040513d60208110156104dc57600080fd5b505160408051600160a060020a03861681526020810183905280820185905290519192507fac03ff6d8cef1f899bcef3aca4d90927f65f7c03869e465e15f92f07ab97fa0b919081900360600190a192915050565b604080517f51a60b02000000000000000000000000000000000000000000000000000000008152600160a060020a038481166004830152831660248201529051600091732d44c0e097f6cd0f514edac633d82e01280b4a5c916351a60b029160448082019260209290919082900301818787803b1580156105b157600080fd5b505af11580156105c5573d6000803e3d6000fd5b505050506040513d60208110156105db57600080fd5b5051604080517fa9059cbb0000000000000000000000000000000000000000000000000000000081523360048201526024810183905290519192507354fe55d5d255b8460fb3bc52d5d676f9ae5697cd9163a9059cbb916044808201926020929091908290030181600087803b15801561065457600080fd5b505af1158015610668573d6000803e3d6000fd5b505050506040513d602081101561067e57600080fd5b505060408051600160a060020a0380861682528416602082015280820183905290517f0eb4cb385b7689ae1f07c30552bd19fc0a4736965f29a3a9e9b37f6a1d21c9c69181900360600190a192915050565b7354fe55d5d255b8460fb3bc52d5d676f9ae5697cd8156fea165627a7a72305820773a25b433224d8be304d4ef3feb613e24bbf57ef375f6f4ddf655edaba0be8c0029",
          "opcodes": "PUSH1 0x80 PUSH1 0x40 MSTORE CALLVALUE DUP1 ISZERO PUSH2 0x10 JUMPI PUSH1 0x0 DUP1 REVERT JUMPDEST POP PUSH2 0x714 DUP1 PUSH2 0x20 PUSH1 0x0 CODECOPY PUSH1 0x0 RETURN INVALID PUSH1 0x80 PUSH1 0x40 MSTORE CALLVALUE DUP1 ISZERO PUSH2 0x10 JUMPI PUSH1 0x0 DUP1 REVERT JUMPDEST POP PUSH1 0x4 CALLDATASIZE LT PUSH2 0x73 JUMPI PUSH29 0x100000000000000000000000000000000000000000000000000000000 PUSH1 0x0 CALLDATALOAD DIV PUSH4 0x26E402B DUP2 EQ PUSH2 0x78 JUMPI DUP1 PUSH4 0x37EBCE27 EQ PUSH2 0xB6 JUMPI DUP1 PUSH4 0x4D99DD16 EQ PUSH2 0xDA JUMPI DUP1 PUSH4 0x51A60B02 EQ PUSH2 0x106 JUMPI DUP1 PUSH4 0x796E4109 EQ PUSH2 0x134 JUMPI JUMPDEST PUSH1 0x0 DUP1 REVERT JUMPDEST PUSH2 0xA4 PUSH1 0x4 DUP1 CALLDATASIZE SUB PUSH1 0x40 DUP2 LT ISZERO PUSH2 0x8E JUMPI PUSH1 0x0 DUP1 REVERT JUMPDEST POP PUSH1 0x1 PUSH1 0xA0 PUSH1 0x2 EXP SUB DUP2 CALLDATALOAD AND SWAP1 PUSH1 0x20 ADD CALLDATALOAD PUSH2 0x13C JUMP JUMPDEST PUSH1 0x40 DUP1 MLOAD SWAP2 DUP3 MSTORE MLOAD SWAP1 DUP2 SWAP1 SUB PUSH1 0x20 ADD SWAP1 RETURN JUMPDEST PUSH2 0xBE PUSH2 0x41B JUMP JUMPDEST PUSH1 0x40 DUP1 MLOAD PUSH1 0x1 PUSH1 0xA0 PUSH1 0x2 EXP SUB SWAP1 SWAP3 AND DUP3 MSTORE MLOAD SWAP1 DUP2 SWAP1 SUB PUSH1 0x20 ADD SWAP1 RETURN JUMPDEST PUSH2 0xA4 PUSH1 0x4 DUP1 CALLDATASIZE SUB PUSH1 0x40 DUP2 LT ISZERO PUSH2 0xF0 JUMPI PUSH1 0x0 DUP1 REVERT JUMPDEST POP PUSH1 0x1 PUSH1 0xA0 PUSH1 0x2 EXP SUB DUP2 CALLDATALOAD AND SWAP1 PUSH1 0x20 ADD CALLDATALOAD PUSH2 0x433 JUMP JUMPDEST PUSH2 0xA4 PUSH1 0x4 DUP1 CALLDATASIZE SUB PUSH1 0x40 DUP2 LT ISZERO PUSH2 0x11C JUMPI PUSH1 0x0 DUP1 REVERT JUMPDEST POP PUSH1 0x1 PUSH1 0xA0 PUSH1 0x2 EXP SUB DUP2 CALLDATALOAD DUP2 AND SWAP2 PUSH1 0x20 ADD CALLDATALOAD AND PUSH2 0x531 JUMP JUMPDEST PUSH2 0xBE PUSH2 0x6D0 JUMP JUMPDEST PUSH1 0x40 DUP1 MLOAD PUSH32 0x23B872DD00000000000000000000000000000000000000000000000000000000 DUP2 MSTORE CALLER PUSH1 0x4 DUP3 ADD MSTORE ADDRESS PUSH1 0x24 DUP3 ADD MSTORE PUSH1 0x44 DUP2 ADD DUP4 SWAP1 MSTORE SWAP1 MLOAD PUSH1 0x0 SWAP2 PUSH20 0x54FE55D5D255B8460FB3BC52D5D676F9AE5697CD SWAP2 PUSH4 0x23B872DD SWAP2 PUSH1 0x64 DUP1 DUP3 ADD SWAP3 PUSH1 0x20 SWAP3 SWAP1 SWAP2 SWAP1 DUP3 SWAP1 SUB ADD DUP2 DUP8 DUP8 DUP1 EXTCODESIZE ISZERO DUP1 ISZERO PUSH2 0x1B8 JUMPI PUSH1 0x0 DUP1 REVERT JUMPDEST POP GAS CALL ISZERO DUP1 ISZERO PUSH2 0x1CC JUMPI RETURNDATASIZE PUSH1 0x0 DUP1 RETURNDATACOPY RETURNDATASIZE PUSH1 0x0 REVERT JUMPDEST POP POP POP POP PUSH1 0x40 MLOAD RETURNDATASIZE PUSH1 0x20 DUP2 LT ISZERO PUSH2 0x1E2 JUMPI PUSH1 0x0 DUP1 REVERT JUMPDEST POP POP PUSH1 0x40 DUP1 MLOAD PUSH32 0x95EA7B300000000000000000000000000000000000000000000000000000000 DUP2 MSTORE PUSH20 0x2D44C0E097F6CD0F514EDAC633D82E01280B4A5C PUSH1 0x4 DUP3 ADD MSTORE PUSH1 0x24 DUP2 ADD DUP5 SWAP1 MSTORE SWAP1 MLOAD PUSH20 0x54FE55D5D255B8460FB3BC52D5D676F9AE5697CD SWAP2 PUSH4 0x95EA7B3 SWAP2 PUSH1 0x44 DUP1 DUP4 ADD SWAP3 PUSH1 0x0 SWAP3 SWAP2 SWAP1 DUP3 SWAP1 SUB ADD DUP2 DUP4 DUP8 DUP1 EXTCODESIZE ISZERO DUP1 ISZERO PUSH2 0x26A JUMPI PUSH1 0x0 DUP1 REVERT JUMPDEST POP GAS CALL ISZERO DUP1 ISZERO PUSH2 0x27E JUMPI RETURNDATASIZE PUSH1 0x0 DUP1 RETURNDATACOPY RETURNDATASIZE PUSH1 0x0 REVERT JUMPDEST POP POP PUSH1 0x40 DUP1 MLOAD PUSH32 0x26E402B00000000000000000000000000000000000000000000000000000000 DUP2 MSTORE PUSH1 0x1 PUSH1 0xA0 PUSH1 0x2 EXP SUB DUP8 AND PUSH1 0x4 DUP3 ADD MSTORE PUSH1 0x24 DUP2 ADD DUP7 SWAP1 MSTORE SWAP1 MLOAD PUSH20 0x2D44C0E097F6CD0F514EDAC633D82E01280B4A5C SWAP4 POP PUSH4 0x26E402B SWAP3 POP PUSH1 0x44 DUP1 DUP4 ADD SWAP3 PUSH1 0x20 SWAP3 SWAP2 SWAP1 DUP3 SWAP1 SUB ADD DUP2 PUSH1 0x0 DUP8 DUP1 EXTCODESIZE ISZERO DUP1 ISZERO PUSH2 0x2FE JUMPI PUSH1 0x0 DUP1 REVERT JUMPDEST POP GAS CALL ISZERO DUP1 ISZERO PUSH2 0x312 JUMPI RETURNDATASIZE PUSH1 0x0 DUP1 RETURNDATACOPY RETURNDATASIZE PUSH1 0x0 REVERT JUMPDEST POP POP POP POP PUSH1 0x40 MLOAD RETURNDATASIZE PUSH1 0x20 DUP2 LT ISZERO PUSH2 0x328 JUMPI PUSH1 0x0 DUP1 REVERT JUMPDEST POP MLOAD PUSH1 0x40 DUP1 MLOAD PUSH32 0x95EA7B300000000000000000000000000000000000000000000000000000000 DUP2 MSTORE PUSH20 0x2D44C0E097F6CD0F514EDAC633D82E01280B4A5C PUSH1 0x4 DUP3 ADD MSTORE PUSH1 0x0 PUSH1 0x24 DUP3 ADD DUP2 SWAP1 MSTORE SWAP2 MLOAD SWAP3 SWAP4 POP PUSH20 0x54FE55D5D255B8460FB3BC52D5D676F9AE5697CD SWAP3 PUSH4 0x95EA7B3 SWAP3 PUSH1 0x44 DUP1 DUP5 ADD SWAP4 SWAP2 SWAP3 SWAP2 DUP3 SWAP1 SUB ADD DUP2 DUP4 DUP8 DUP1 EXTCODESIZE ISZERO DUP1 ISZERO PUSH2 0x3B3 JUMPI PUSH1 0x0 DUP1 REVERT JUMPDEST POP GAS CALL ISZERO DUP1 ISZERO PUSH2 0x3C7 JUMPI RETURNDATASIZE PUSH1 0x0 DUP1 RETURNDATACOPY RETURNDATASIZE PUSH1 0x0 REVERT JUMPDEST POP POP PUSH1 0x40 DUP1 MLOAD PUSH1 0x1 PUSH1 0xA0 PUSH1 0x2 EXP SUB DUP8 AND DUP2 MSTORE PUSH1 0x20 DUP2 ADD DUP7 SWAP1 MSTORE DUP1 DUP3 ADD DUP6 SWAP1 MSTORE SWAP1 MLOAD PUSH32 0xAC03FF6D8CEF1F899BCEF3ACA4D90927F65F7C03869E465E15F92F07AB97FA0B SWAP4 POP SWAP1 DUP2 SWAP1 SUB PUSH1 0x60 ADD SWAP2 POP LOG1 SWAP3 SWAP2 POP POP JUMP JUMPDEST PUSH20 0x2D44C0E097F6CD0F514EDAC633D82E01280B4A5C DUP2 JUMP JUMPDEST PUSH1 0x40 DUP1 MLOAD PUSH32 0x4D99DD1600000000000000000000000000000000000000000000000000000000 DUP2 MSTORE PUSH1 0x1 PUSH1 0xA0 PUSH1 0x2 EXP SUB DUP5 AND PUSH1 0x4 DUP3 ADD MSTORE PUSH1 0x24 DUP2 ADD DUP4 SWAP1 MSTORE SWAP1 MLOAD PUSH1 0x0 SWAP2 PUSH20 0x2D44C0E097F6CD0F514EDAC633D82E01280B4A5C SWAP2 PUSH4 0x4D99DD16 SWAP2 PUSH1 0x44 DUP1 DUP3 ADD SWAP3 PUSH1 0x20 SWAP3 SWAP1 SWAP2 SWAP1 DUP3 SWAP1 SUB ADD DUP2 DUP8 DUP8 DUP1 EXTCODESIZE ISZERO DUP1 ISZERO PUSH2 0x4B2 JUMPI PUSH1 0x0 DUP1 REVERT JUMPDEST POP GAS CALL ISZERO DUP1 ISZERO PUSH2 0x4C6 JUMPI RETURNDATASIZE PUSH1 0x0 DUP1 RETURNDATACOPY RETURNDATASIZE PUSH1 0x0 REVERT JUMPDEST POP POP POP POP PUSH1 0x40 MLOAD RETURNDATASIZE PUSH1 0x20 DUP2 LT ISZERO PUSH2 0x4DC JUMPI PUSH1 0x0 DUP1 REVERT JUMPDEST POP MLOAD PUSH1 0x40 DUP1 MLOAD PUSH1 0x1 PUSH1 0xA0 PUSH1 0x2 EXP SUB DUP7 AND DUP2 MSTORE PUSH1 0x20 DUP2 ADD DUP4 SWAP1 MSTORE DUP1 DUP3 ADD DUP6 SWAP1 MSTORE SWAP1 MLOAD SWAP2 SWAP3 POP PUSH32 0xAC03FF6D8CEF1F899BCEF3ACA4D90927F65F7C03869E465E15F92F07AB97FA0B SWAP2 SWAP1 DUP2 SWAP1 SUB PUSH1 0x60 ADD SWAP1 LOG1 SWAP3 SWAP2 POP POP JUMP JUMPDEST PUSH1 0x40 DUP1 MLOAD PUSH32 0x51A60B0200000000000000000000000000000000000000000000000000000000 DUP2 MSTORE PUSH1 0x1 PUSH1 0xA0 PUSH1 0x2 EXP SUB DUP5 DUP2 AND PUSH1 0x4 DUP4 ADD MSTORE DUP4 AND PUSH1 0x24 DUP3 ADD MSTORE SWAP1 MLOAD PUSH1 0x0 SWAP2 PUSH20 0x2D44C0E097F6CD0F514EDAC633D82E01280B4A5C SWAP2 PUSH4 0x51A60B02 SWAP2 PUSH1 0x44 DUP1 DUP3 ADD SWAP3 PUSH1 0x20 SWAP3 SWAP1 SWAP2 SWAP1 DUP3 SWAP1 SUB ADD DUP2 DUP8 DUP8 DUP1 EXTCODESIZE ISZERO DUP1 ISZERO PUSH2 0x5B1 JUMPI PUSH1 0x0 DUP1 REVERT JUMPDEST POP GAS CALL ISZERO DUP1 ISZERO PUSH2 0x5C5 JUMPI RETURNDATASIZE PUSH1 0x0 DUP1 RETURNDATACOPY RETURNDATASIZE PUSH1 0x0 REVERT JUMPDEST POP POP POP POP PUSH1 0x40 MLOAD RETURNDATASIZE PUSH1 0x20 DUP2 LT ISZERO PUSH2 0x5DB JUMPI PUSH1 0x0 DUP1 REVERT JUMPDEST POP MLOAD PUSH1 0x40 DUP1 MLOAD PUSH32 0xA9059CBB00000000000000000000000000000000000000000000000000000000 DUP2 MSTORE CALLER PUSH1 0x4 DUP3 ADD MSTORE PUSH1 0x24 DUP2 ADD DUP4 SWAP1 MSTORE SWAP1 MLOAD SWAP2 SWAP3 POP PUSH20 0x54FE55D5D255B8460FB3BC52D5D676F9AE5697CD SWAP2 PUSH4 0xA9059CBB SWAP2 PUSH1 0x44 DUP1 DUP3 ADD SWAP3 PUSH1 0x20 SWAP3 SWAP1 SWAP2 SWAP1 DUP3 SWAP1 SUB ADD DUP2 PUSH1 0x0 DUP8 DUP1 EXTCODESIZE ISZERO DUP1 ISZERO PUSH2 0x654 JUMPI PUSH1 0x0 DUP1 REVERT JUMPDEST POP GAS CALL ISZERO DUP1 ISZERO PUSH2 0x668 JUMPI RETURNDATASIZE PUSH1 0x0 DUP1 RETURNDATACOPY RETURNDATASIZE PUSH1 0x0 REVERT JUMPDEST POP POP POP POP PUSH1 0x40 MLOAD RETURNDATASIZE PUSH1 0x20 DUP2 LT ISZERO PUSH2 0x67E JUMPI PUSH1 0x0 DUP1 REVERT JUMPDEST POP POP PUSH1 0x40 DUP1 MLOAD PUSH1 0x1 PUSH1 0xA0 PUSH1 0x2 EXP SUB DUP1 DUP7 AND DUP3 MSTORE DUP5 AND PUSH1 0x20 DUP3 ADD MSTORE DUP1 DUP3 ADD DUP4 SWAP1 MSTORE SWAP1 MLOAD PUSH32 0xEB4CB385B7689AE1F07C30552BD19FC0A4736965F29A3A9E9B37F6A1D21C9C6 SWAP2 DUP2 SWAP1 SUB PUSH1 0x60 ADD SWAP1 LOG1 SWAP3 SWAP2 POP POP JUMP JUMPDEST PUSH20 0x54FE55D5D255B8460FB3BC52D5D676F9AE5697CD DUP2 JUMP INVALID LOG1 PUSH6 0x627A7A723058 KECCAK256 PUSH24 0x3A25B433224D8BE304D4EF3FEB613E24BBF57EF375F6F4DD 0xf6 SSTORE 0xed 0xab LOG0 0xbe DUP13 STOP 0x29 "
        },
        "methodIdentifiers": {
          "delegate(address,uint256)": "026e402b",
          "graphProxy()": "37ebce27",
          "grtTokenAddress()": "796e4109",
          "undelegate(address,uint256)": "4d99dd16",
          "withdrawDelegated(address,address)": "51a60b02"
        }
      }
    }
  }
}