{
  "contracts/protocols/graph-protocol/GraphProtocol.sol": {
    "GraphProtocol": {
      "abi": [
        {
          "anonymous": false,
          "inputs": [
            {
              "indexed": false,
              "internalType": "address",
              "name": "_indexer",
              "type": "address"
            },
            {
              "indexed": false,
              "internalType": "uint256",
              "name": "_amount",
              "type": "uint256"
            },
            {
              "indexed": false,
              "internalType": "uint256",
              "name": "_share",
              "type": "uint256"
            }
          ],
          "name": "GraphProtocolDelegated",
          "type": "event"
        },
        {
          "anonymous": false,
          "inputs": [
            {
              "indexed": false,
              "internalType": "address",
              "name": "_indexer",
              "type": "address"
            },
            {
              "indexed": false,
              "internalType": "uint256",
              "name": "_amount",
              "type": "uint256"
            },
            {
              "indexed": false,
              "internalType": "uint256",
              "name": "_share",
              "type": "uint256"
            }
          ],
          "name": "GraphProtocolUnDelegated",
          "type": "event"
        },
        {
          "anonymous": false,
          "inputs": [
            {
              "indexed": false,
              "internalType": "address",
              "name": "_indexer",
              "type": "address"
            },
            {
              "indexed": false,
              "internalType": "address",
              "name": "_delegateToIndexer",
              "type": "address"
            },
            {
              "indexed": false,
              "internalType": "uint256",
              "name": "_tokens",
              "type": "uint256"
            }
          ],
          "name": "GraphProtocolWithdrawDelegated",
          "type": "event"
        },
        {
          "anonymous": false,
          "inputs": [
            {
              "indexed": false,
              "internalType": "address",
              "name": "_graphProxy",
              "type": "address"
            },
            {
              "indexed": false,
              "internalType": "address",
              "name": "_grtTokenAddress",
              "type": "address"
            }
          ],
          "name": "LogDelegate",
          "type": "event"
        },
        {
          "inputs": [
            {
              "internalType": "address",
              "name": "_indexer",
              "type": "address"
            },
            {
              "internalType": "uint256",
              "name": "_tokens",
              "type": "uint256"
            },
            {
              "internalType": "uint256",
              "name": "getId",
              "type": "uint256"
            }
          ],
          "name": "delegate",
          "outputs": [
            {
              "internalType": "uint256",
              "name": "shares_",
              "type": "uint256"
            }
          ],
          "stateMutability": "payable",
          "type": "function"
        },
        {
          "inputs": [],
          "name": "graphProxy",
          "outputs": [
            {
              "internalType": "contract IGraphProtocolInterface",
              "name": "",
              "type": "address"
            }
          ],
          "stateMutability": "view",
          "type": "function"
        },
        {
          "inputs": [],
          "name": "grtTokenAddress",
          "outputs": [
            {
              "internalType": "contract IERC20Interface",
              "name": "",
              "type": "address"
            }
          ],
          "stateMutability": "view",
          "type": "function"
        },
        {
          "inputs": [
            {
              "internalType": "address",
              "name": "_indexer",
              "type": "address"
            },
            {
              "internalType": "uint256",
              "name": "_shares",
              "type": "uint256"
            },
            {
              "internalType": "uint256",
              "name": "getId",
              "type": "uint256"
            }
          ],
          "name": "undelegate",
          "outputs": [
            {
              "internalType": "uint256",
              "name": "tokens_",
              "type": "uint256"
            }
          ],
          "stateMutability": "nonpayable",
          "type": "function"
        },
        {
          "inputs": [
            {
              "internalType": "address",
              "name": "_indexer",
              "type": "address"
            },
            {
              "internalType": "address",
              "name": "_delegateToIndexer",
              "type": "address"
            }
          ],
          "name": "withdrawDelegated",
          "outputs": [
            {
              "internalType": "uint256",
              "name": "tokens_",
              "type": "uint256"
            }
          ],
          "stateMutability": "nonpayable",
          "type": "function"
        }
      ],
      "evm": {
        "bytecode": {
          "linkReferences": {},
          "object": "608060405234801561001057600080fd5b506106b7806100206000396000f3fe60806040526004361061004a5760003560e01c80630185921e1461004f57806337ebce271461007857806351a60b021461009a578063796e4109146100ba578063f522f8cf146100cf575b600080fd5b61006261005d3660046105a2565b6100ef565b60405161006f9190610678565b60405180910390f35b34801561008457600080fd5b5061008d610111565b60405161006f9190610664565b3480156100a657600080fd5b506100626100b5366004610570565b610129565b3480156100c657600080fd5b5061008d6101fa565b3480156100db57600080fd5b506100626100ea3660046105a2565b610212565b6000806100fc83856102f2565b90506101088582610391565b95945050505050565b73f55041e37e12cd407ad00ce2910b8269b01263b981565b6040516328d3058160e11b815260009073f55041e37e12cd407ad00ce2910b8269b01263b9906351a60b029061016590869086906004016105ec565b602060405180830381600087803b15801561017f57600080fd5b505af1158015610193573d6000803e3d6000fd5b505050506040513d601f19601f820116820180604052508101906101b791906105d4565b90507f0eb4cb385b7689ae1f07c30552bd19fc0a4736965f29a3a9e9b37f6a1d21c9c68383836040516101ec93929190610606565b60405180910390a192915050565b73c944e90c64b2c07662a292be6244bdf05cda44a781565b60008061021f83856102f2565b6040516326ccee8b60e11b815290915073f55041e37e12cd407ad00ce2910b8269b01263b990634d99dd169061025b908890859060040161062a565b602060405180830381600087803b15801561027557600080fd5b505af1158015610289573d6000803e3d6000fd5b505050506040513d601f19601f820116820180604052508101906102ad91906105d4565b91507fac03ff6d8cef1f899bcef3aca4d90927f65f7c03869e465e15f92f07ab97fa0b8583866040516102e293929190610643565b60405180910390a1509392505050565b60008215610388576040516354e3875560e11b8152732bdcc0de6be1f7d2ee689a0342d76f52e8efaba39063a9c70eaa90610331908690600401610678565b602060405180830381600087803b15801561034b57600080fd5b505af115801561035f573d6000803e3d6000fd5b505050506040513d601f19601f8201168201806040525081019061038391906105d4565b61038a565b815b9392505050565b60405163095ea7b360e01b815260009073c944e90c64b2c07662a292be6244bdf05cda44a79063095ea7b3906103e19073f55041e37e12cd407ad00ce2910b8269b01263b990869060040161062a565b600060405180830381600087803b1580156103fb57600080fd5b505af115801561040f573d6000803e3d6000fd5b505060405163026e402b60e01b815273f55041e37e12cd407ad00ce2910b8269b01263b9925063026e402b915061044c908690869060040161062a565b602060405180830381600087803b15801561046657600080fd5b505af115801561047a573d6000803e3d6000fd5b505050506040513d601f19601f8201168201806040525081019061049e91906105d4565b60405163095ea7b360e01b815290915073c944e90c64b2c07662a292be6244bdf05cda44a79063095ea7b3906104ef9073f55041e37e12cd407ad00ce2910b8269b01263b99060009060040161062a565b600060405180830381600087803b15801561050957600080fd5b505af115801561051d573d6000803e3d6000fd5b505050507fac03ff6d8cef1f899bcef3aca4d90927f65f7c03869e465e15f92f07ab97fa0b8383836040516101ec93929190610643565b80356001600160a01b038116811461056b57600080fd5b919050565b60008060408385031215610582578182fd5b61058b83610554565b915061059960208401610554565b90509250929050565b6000806000606084860312156105b6578081fd5b6105bf84610554565b95602085013595506040909401359392505050565b6000602082840312156105e5578081fd5b5051919050565b6001600160a01b0392831681529116602082015260400190565b6001600160a01b039384168152919092166020820152604081019190915260600190565b6001600160a01b03929092168252602082015260400190565b6001600160a01b039390931683526020830191909152604082015260600190565b6001600160a01b0391909116815260200190565b9081526020019056fea2646970667358221220c972bc77d707af5b18f4ae522713443d5255f28f1a7e7ef21f17768522dcd40a64736f6c63430007060033",
          "opcodes": "PUSH1 0x80 PUSH1 0x40 MSTORE CALLVALUE DUP1 ISZERO PUSH2 0x10 JUMPI PUSH1 0x0 DUP1 REVERT JUMPDEST POP PUSH2 0x6B7 DUP1 PUSH2 0x20 PUSH1 0x0 CODECOPY PUSH1 0x0 RETURN INVALID PUSH1 0x80 PUSH1 0x40 MSTORE PUSH1 0x4 CALLDATASIZE LT PUSH2 0x4A JUMPI PUSH1 0x0 CALLDATALOAD PUSH1 0xE0 SHR DUP1 PUSH4 0x185921E EQ PUSH2 0x4F JUMPI DUP1 PUSH4 0x37EBCE27 EQ PUSH2 0x78 JUMPI DUP1 PUSH4 0x51A60B02 EQ PUSH2 0x9A JUMPI DUP1 PUSH4 0x796E4109 EQ PUSH2 0xBA JUMPI DUP1 PUSH4 0xF522F8CF EQ PUSH2 0xCF JUMPI JUMPDEST PUSH1 0x0 DUP1 REVERT JUMPDEST PUSH2 0x62 PUSH2 0x5D CALLDATASIZE PUSH1 0x4 PUSH2 0x5A2 JUMP JUMPDEST PUSH2 0xEF JUMP JUMPDEST PUSH1 0x40 MLOAD PUSH2 0x6F SWAP2 SWAP1 PUSH2 0x678 JUMP JUMPDEST PUSH1 0x40 MLOAD DUP1 SWAP2 SUB SWAP1 RETURN JUMPDEST CALLVALUE DUP1 ISZERO PUSH2 0x84 JUMPI PUSH1 0x0 DUP1 REVERT JUMPDEST POP PUSH2 0x8D PUSH2 0x111 JUMP JUMPDEST PUSH1 0x40 MLOAD PUSH2 0x6F SWAP2 SWAP1 PUSH2 0x664 JUMP JUMPDEST CALLVALUE DUP1 ISZERO PUSH2 0xA6 JUMPI PUSH1 0x0 DUP1 REVERT JUMPDEST POP PUSH2 0x62 PUSH2 0xB5 CALLDATASIZE PUSH1 0x4 PUSH2 0x570 JUMP JUMPDEST PUSH2 0x129 JUMP JUMPDEST CALLVALUE DUP1 ISZERO PUSH2 0xC6 JUMPI PUSH1 0x0 DUP1 REVERT JUMPDEST POP PUSH2 0x8D PUSH2 0x1FA JUMP JUMPDEST CALLVALUE DUP1 ISZERO PUSH2 0xDB JUMPI PUSH1 0x0 DUP1 REVERT JUMPDEST POP PUSH2 0x62 PUSH2 0xEA CALLDATASIZE PUSH1 0x4 PUSH2 0x5A2 JUMP JUMPDEST PUSH2 0x212 JUMP JUMPDEST PUSH1 0x0 DUP1 PUSH2 0xFC DUP4 DUP6 PUSH2 0x2F2 JUMP JUMPDEST SWAP1 POP PUSH2 0x108 DUP6 DUP3 PUSH2 0x391 JUMP JUMPDEST SWAP6 SWAP5 POP POP POP POP POP JUMP JUMPDEST PUSH20 0xF55041E37E12CD407AD00CE2910B8269B01263B9 DUP2 JUMP JUMPDEST PUSH1 0x40 MLOAD PUSH4 0x28D30581 PUSH1 0xE1 SHL DUP2 MSTORE PUSH1 0x0 SWAP1 PUSH20 0xF55041E37E12CD407AD00CE2910B8269B01263B9 SWAP1 PUSH4 0x51A60B02 SWAP1 PUSH2 0x165 SWAP1 DUP7 SWAP1 DUP7 SWAP1 PUSH1 0x4 ADD PUSH2 0x5EC JUMP JUMPDEST PUSH1 0x20 PUSH1 0x40 MLOAD DUP1 DUP4 SUB DUP2 PUSH1 0x0 DUP8 DUP1 EXTCODESIZE ISZERO DUP1 ISZERO PUSH2 0x17F JUMPI PUSH1 0x0 DUP1 REVERT JUMPDEST POP GAS CALL ISZERO DUP1 ISZERO PUSH2 0x193 JUMPI RETURNDATASIZE PUSH1 0x0 DUP1 RETURNDATACOPY RETURNDATASIZE PUSH1 0x0 REVERT JUMPDEST POP POP POP POP PUSH1 0x40 MLOAD RETURNDATASIZE PUSH1 0x1F NOT PUSH1 0x1F DUP3 ADD AND DUP3 ADD DUP1 PUSH1 0x40 MSTORE POP DUP2 ADD SWAP1 PUSH2 0x1B7 SWAP2 SWAP1 PUSH2 0x5D4 JUMP JUMPDEST SWAP1 POP PUSH32 0xEB4CB385B7689AE1F07C30552BD19FC0A4736965F29A3A9E9B37F6A1D21C9C6 DUP4 DUP4 DUP4 PUSH1 0x40 MLOAD PUSH2 0x1EC SWAP4 SWAP3 SWAP2 SWAP1 PUSH2 0x606 JUMP JUMPDEST PUSH1 0x40 MLOAD DUP1 SWAP2 SUB SWAP1 LOG1 SWAP3 SWAP2 POP POP JUMP JUMPDEST PUSH20 0xC944E90C64B2C07662A292BE6244BDF05CDA44A7 DUP2 JUMP JUMPDEST PUSH1 0x0 DUP1 PUSH2 0x21F DUP4 DUP6 PUSH2 0x2F2 JUMP JUMPDEST PUSH1 0x40 MLOAD PUSH4 0x26CCEE8B PUSH1 0xE1 SHL DUP2 MSTORE SWAP1 SWAP2 POP PUSH20 0xF55041E37E12CD407AD00CE2910B8269B01263B9 SWAP1 PUSH4 0x4D99DD16 SWAP1 PUSH2 0x25B SWAP1 DUP9 SWAP1 DUP6 SWAP1 PUSH1 0x4 ADD PUSH2 0x62A JUMP JUMPDEST PUSH1 0x20 PUSH1 0x40 MLOAD DUP1 DUP4 SUB DUP2 PUSH1 0x0 DUP8 DUP1 EXTCODESIZE ISZERO DUP1 ISZERO PUSH2 0x275 JUMPI PUSH1 0x0 DUP1 REVERT JUMPDEST POP GAS CALL ISZERO DUP1 ISZERO PUSH2 0x289 JUMPI RETURNDATASIZE PUSH1 0x0 DUP1 RETURNDATACOPY RETURNDATASIZE PUSH1 0x0 REVERT JUMPDEST POP POP POP POP PUSH1 0x40 MLOAD RETURNDATASIZE PUSH1 0x1F NOT PUSH1 0x1F DUP3 ADD AND DUP3 ADD DUP1 PUSH1 0x40 MSTORE POP DUP2 ADD SWAP1 PUSH2 0x2AD SWAP2 SWAP1 PUSH2 0x5D4 JUMP JUMPDEST SWAP2 POP PUSH32 0xAC03FF6D8CEF1F899BCEF3ACA4D90927F65F7C03869E465E15F92F07AB97FA0B DUP6 DUP4 DUP7 PUSH1 0x40 MLOAD PUSH2 0x2E2 SWAP4 SWAP3 SWAP2 SWAP1 PUSH2 0x643 JUMP JUMPDEST PUSH1 0x40 MLOAD DUP1 SWAP2 SUB SWAP1 LOG1 POP SWAP4 SWAP3 POP POP POP JUMP JUMPDEST PUSH1 0x0 DUP3 ISZERO PUSH2 0x388 JUMPI PUSH1 0x40 MLOAD PUSH4 0x54E38755 PUSH1 0xE1 SHL DUP2 MSTORE PUSH20 0x2BDCC0DE6BE1F7D2EE689A0342D76F52E8EFABA3 SWAP1 PUSH4 0xA9C70EAA SWAP1 PUSH2 0x331 SWAP1 DUP7 SWAP1 PUSH1 0x4 ADD PUSH2 0x678 JUMP JUMPDEST PUSH1 0x20 PUSH1 0x40 MLOAD DUP1 DUP4 SUB DUP2 PUSH1 0x0 DUP8 DUP1 EXTCODESIZE ISZERO DUP1 ISZERO PUSH2 0x34B JUMPI PUSH1 0x0 DUP1 REVERT JUMPDEST POP GAS CALL ISZERO DUP1 ISZERO PUSH2 0x35F JUMPI RETURNDATASIZE PUSH1 0x0 DUP1 RETURNDATACOPY RETURNDATASIZE PUSH1 0x0 REVERT JUMPDEST POP POP POP POP PUSH1 0x40 MLOAD RETURNDATASIZE PUSH1 0x1F NOT PUSH1 0x1F DUP3 ADD AND DUP3 ADD DUP1 PUSH1 0x40 MSTORE POP DUP2 ADD SWAP1 PUSH2 0x383 SWAP2 SWAP1 PUSH2 0x5D4 JUMP JUMPDEST PUSH2 0x38A JUMP JUMPDEST DUP2 JUMPDEST SWAP4 SWAP3 POP POP POP JUMP JUMPDEST PUSH1 0x40 MLOAD PUSH4 0x95EA7B3 PUSH1 0xE0 SHL DUP2 MSTORE PUSH1 0x0 SWAP1 PUSH20 0xC944E90C64B2C07662A292BE6244BDF05CDA44A7 SWAP1 PUSH4 0x95EA7B3 SWAP1 PUSH2 0x3E1 SWAP1 PUSH20 0xF55041E37E12CD407AD00CE2910B8269B01263B9 SWAP1 DUP7 SWAP1 PUSH1 0x4 ADD PUSH2 0x62A JUMP JUMPDEST PUSH1 0x0 PUSH1 0x40 MLOAD DUP1 DUP4 SUB DUP2 PUSH1 0x0 DUP8 DUP1 EXTCODESIZE ISZERO DUP1 ISZERO PUSH2 0x3FB JUMPI PUSH1 0x0 DUP1 REVERT JUMPDEST POP GAS CALL ISZERO DUP1 ISZERO PUSH2 0x40F JUMPI RETURNDATASIZE PUSH1 0x0 DUP1 RETURNDATACOPY RETURNDATASIZE PUSH1 0x0 REVERT JUMPDEST POP POP PUSH1 0x40 MLOAD PUSH4 0x26E402B PUSH1 0xE0 SHL DUP2 MSTORE PUSH20 0xF55041E37E12CD407AD00CE2910B8269B01263B9 SWAP3 POP PUSH4 0x26E402B SWAP2 POP PUSH2 0x44C SWAP1 DUP7 SWAP1 DUP7 SWAP1 PUSH1 0x4 ADD PUSH2 0x62A JUMP JUMPDEST PUSH1 0x20 PUSH1 0x40 MLOAD DUP1 DUP4 SUB DUP2 PUSH1 0x0 DUP8 DUP1 EXTCODESIZE ISZERO DUP1 ISZERO PUSH2 0x466 JUMPI PUSH1 0x0 DUP1 REVERT JUMPDEST POP GAS CALL ISZERO DUP1 ISZERO PUSH2 0x47A JUMPI RETURNDATASIZE PUSH1 0x0 DUP1 RETURNDATACOPY RETURNDATASIZE PUSH1 0x0 REVERT JUMPDEST POP POP POP POP PUSH1 0x40 MLOAD RETURNDATASIZE PUSH1 0x1F NOT PUSH1 0x1F DUP3 ADD AND DUP3 ADD DUP1 PUSH1 0x40 MSTORE POP DUP2 ADD SWAP1 PUSH2 0x49E SWAP2 SWAP1 PUSH2 0x5D4 JUMP JUMPDEST PUSH1 0x40 MLOAD PUSH4 0x95EA7B3 PUSH1 0xE0 SHL DUP2 MSTORE SWAP1 SWAP2 POP PUSH20 0xC944E90C64B2C07662A292BE6244BDF05CDA44A7 SWAP1 PUSH4 0x95EA7B3 SWAP1 PUSH2 0x4EF SWAP1 PUSH20 0xF55041E37E12CD407AD00CE2910B8269B01263B9 SWAP1 PUSH1 0x0 SWAP1 PUSH1 0x4 ADD PUSH2 0x62A JUMP JUMPDEST PUSH1 0x0 PUSH1 0x40 MLOAD DUP1 DUP4 SUB DUP2 PUSH1 0x0 DUP8 DUP1 EXTCODESIZE ISZERO DUP1 ISZERO PUSH2 0x509 JUMPI PUSH1 0x0 DUP1 REVERT JUMPDEST POP GAS CALL ISZERO DUP1 ISZERO PUSH2 0x51D JUMPI RETURNDATASIZE PUSH1 0x0 DUP1 RETURNDATACOPY RETURNDATASIZE PUSH1 0x0 REVERT JUMPDEST POP POP POP POP PUSH32 0xAC03FF6D8CEF1F899BCEF3ACA4D90927F65F7C03869E465E15F92F07AB97FA0B DUP4 DUP4 DUP4 PUSH1 0x40 MLOAD PUSH2 0x1EC SWAP4 SWAP3 SWAP2 SWAP1 PUSH2 0x643 JUMP JUMPDEST DUP1 CALLDATALOAD PUSH1 0x1 PUSH1 0x1 PUSH1 0xA0 SHL SUB DUP2 AND DUP2 EQ PUSH2 0x56B JUMPI PUSH1 0x0 DUP1 REVERT JUMPDEST SWAP2 SWAP1 POP JUMP JUMPDEST PUSH1 0x0 DUP1 PUSH1 0x40 DUP4 DUP6 SUB SLT ISZERO PUSH2 0x582 JUMPI DUP2 DUP3 REVERT JUMPDEST PUSH2 0x58B DUP4 PUSH2 0x554 JUMP JUMPDEST SWAP2 POP PUSH2 0x599 PUSH1 0x20 DUP5 ADD PUSH2 0x554 JUMP JUMPDEST SWAP1 POP SWAP3 POP SWAP3 SWAP1 POP JUMP JUMPDEST PUSH1 0x0 DUP1 PUSH1 0x0 PUSH1 0x60 DUP5 DUP7 SUB SLT ISZERO PUSH2 0x5B6 JUMPI DUP1 DUP2 REVERT JUMPDEST PUSH2 0x5BF DUP5 PUSH2 0x554 JUMP JUMPDEST SWAP6 PUSH1 0x20 DUP6 ADD CALLDATALOAD SWAP6 POP PUSH1 0x40 SWAP1 SWAP5 ADD CALLDATALOAD SWAP4 SWAP3 POP POP POP JUMP JUMPDEST PUSH1 0x0 PUSH1 0x20 DUP3 DUP5 SUB SLT ISZERO PUSH2 0x5E5 JUMPI DUP1 DUP2 REVERT JUMPDEST POP MLOAD SWAP2 SWAP1 POP JUMP JUMPDEST PUSH1 0x1 PUSH1 0x1 PUSH1 0xA0 SHL SUB SWAP3 DUP4 AND DUP2 MSTORE SWAP2 AND PUSH1 0x20 DUP3 ADD MSTORE PUSH1 0x40 ADD SWAP1 JUMP JUMPDEST PUSH1 0x1 PUSH1 0x1 PUSH1 0xA0 SHL SUB SWAP4 DUP5 AND DUP2 MSTORE SWAP2 SWAP1 SWAP3 AND PUSH1 0x20 DUP3 ADD MSTORE PUSH1 0x40 DUP2 ADD SWAP2 SWAP1 SWAP2 MSTORE PUSH1 0x60 ADD SWAP1 JUMP JUMPDEST PUSH1 0x1 PUSH1 0x1 PUSH1 0xA0 SHL SUB SWAP3 SWAP1 SWAP3 AND DUP3 MSTORE PUSH1 0x20 DUP3 ADD MSTORE PUSH1 0x40 ADD SWAP1 JUMP JUMPDEST PUSH1 0x1 PUSH1 0x1 PUSH1 0xA0 SHL SUB SWAP4 SWAP1 SWAP4 AND DUP4 MSTORE PUSH1 0x20 DUP4 ADD SWAP2 SWAP1 SWAP2 MSTORE PUSH1 0x40 DUP3 ADD MSTORE PUSH1 0x60 ADD SWAP1 JUMP JUMPDEST PUSH1 0x1 PUSH1 0x1 PUSH1 0xA0 SHL SUB SWAP2 SWAP1 SWAP2 AND DUP2 MSTORE PUSH1 0x20 ADD SWAP1 JUMP JUMPDEST SWAP1 DUP2 MSTORE PUSH1 0x20 ADD SWAP1 JUMP INVALID LOG2 PUSH5 0x6970667358 0x22 SLT KECCAK256 0xC9 PUSH19 0xBC77D707AF5B18F4AE522713443D5255F28F1A PUSH31 0x7EF21F17768522DCD40A64736F6C6343000706003300000000000000000000 "
        },
        "methodIdentifiers": {
          "delegate(address,uint256,uint256)": "0185921e",
          "graphProxy()": "37ebce27",
          "grtTokenAddress()": "796e4109",
          "undelegate(address,uint256,uint256)": "f522f8cf",
          "withdrawDelegated(address,address)": "51a60b02"
        }
      }
    }
  }
}