{
  "contracts/BitStakerRegistry.sol": {
    "LogicRegistry": {
      "abi": [
        {
          "anonymous": false,
          "inputs": [
            {
              "indexed": false,
              "internalType": "address",
              "name": "logicAddress",
              "type": "address"
            }
          ],
          "name": "LogDisableLogic",
          "type": "event"
        },
        {
          "anonymous": false,
          "inputs": [
            {
              "indexed": false,
              "internalType": "address",
              "name": "logicAddress",
              "type": "address"
            }
          ],
          "name": "LogEnableLogic",
          "type": "event"
        },
        {
          "anonymous": false,
          "inputs": [
            {
              "indexed": false,
              "internalType": "address",
              "name": "logicAddress",
              "type": "address"
            }
          ],
          "name": "LogEnableStaticLogic",
          "type": "event"
        },
        {
          "anonymous": false,
          "inputs": [
            {
              "indexed": false,
              "internalType": "string",
              "name": "name",
              "type": "string"
            },
            {
              "indexed": false,
              "internalType": "address",
              "name": "addr",
              "type": "address"
            }
          ],
          "name": "LogSetAddress",
          "type": "event"
        },
        {
          "inputs": [
            {
              "internalType": "address",
              "name": "_logicAddress",
              "type": "address"
            }
          ],
          "name": "disableLogic",
          "outputs": [],
          "stateMutability": "nonpayable",
          "type": "function"
        },
        {
          "inputs": [
            {
              "internalType": "address",
              "name": "_logicAddress",
              "type": "address"
            }
          ],
          "name": "enableLogic",
          "outputs": [],
          "stateMutability": "nonpayable",
          "type": "function"
        },
        {
          "inputs": [
            {
              "internalType": "address",
              "name": "_logicAddress",
              "type": "address"
            }
          ],
          "name": "enableStaticLogic",
          "outputs": [],
          "stateMutability": "nonpayable",
          "type": "function"
        },
        {
          "inputs": [
            {
              "internalType": "string",
              "name": "_name",
              "type": "string"
            }
          ],
          "name": "getAddress",
          "outputs": [
            {
              "internalType": "address",
              "name": "",
              "type": "address"
            }
          ],
          "stateMutability": "view",
          "type": "function"
        },
        {
          "inputs": [
            {
              "internalType": "address",
              "name": "_logicAddress",
              "type": "address"
            }
          ],
          "name": "logic",
          "outputs": [
            {
              "internalType": "bool",
              "name": "",
              "type": "bool"
            }
          ],
          "stateMutability": "view",
          "type": "function"
        },
        {
          "inputs": [
            {
              "internalType": "address",
              "name": "",
              "type": "address"
            }
          ],
          "name": "logicProxies",
          "outputs": [
            {
              "internalType": "bool",
              "name": "",
              "type": "bool"
            }
          ],
          "stateMutability": "view",
          "type": "function"
        },
        {
          "inputs": [
            {
              "internalType": "address",
              "name": "",
              "type": "address"
            }
          ],
          "name": "logicProxiesStatic",
          "outputs": [
            {
              "internalType": "bool",
              "name": "",
              "type": "bool"
            }
          ],
          "stateMutability": "view",
          "type": "function"
        },
        {
          "inputs": [
            {
              "internalType": "address",
              "name": "_logicAddress",
              "type": "address"
            }
          ],
          "name": "logicStatic",
          "outputs": [
            {
              "internalType": "bool",
              "name": "",
              "type": "bool"
            }
          ],
          "stateMutability": "view",
          "type": "function"
        },
        {
          "inputs": [
            {
              "internalType": "string",
              "name": "_name",
              "type": "string"
            },
            {
              "internalType": "address",
              "name": "_userAddress",
              "type": "address"
            }
          ],
          "name": "setAddress",
          "outputs": [],
          "stateMutability": "nonpayable",
          "type": "function"
        }
      ],
      "evm": {
        "bytecode": {
          "linkReferences": {},
          "object": "608060405234801561001057600080fd5b506108a1806100206000396000f3fe608060405234801561001057600080fd5b50600436106100935760003560e01c80635e2bd421116100665780635e2bd421146100fc5780639b2ea4bd1461010f578063bbfdc3c414610122578063bf40fac114610135578063d93b4ee71461015557610093565b8063113904411461009857806313f07317146100c157806315413ccf146100d657806328e98537146100e9575b600080fd5b6100ab6100a63660046106e9565b610168565b6040516100b891906107c1565b60405180910390f35b6100d46100cf3660046106e9565b6101bd565b005b6100ab6100e43660046106e9565b6102bd565b6100ab6100f73660046106e9565b6102d2565b6100d461010a3660046106e9565b6102e7565b6100d461011d366004610745565b6103d1565b6100ab6101303660046106e9565b610502565b61014861014336600461070a565b61052b565b6040516100b891906107ad565b6100d46101633660046106e9565b610576565b6001600160a01b03811660009081526001602052604081205460ff16806101a757506001600160a01b03821660009081526002602052604090205460ff165b156101b4575060016101b8565b5060005b919050565b6101e36040518060400160405280600581526020016430b236b4b760d91b81525061052b565b6001600160a01b0316336001600160a01b0316148061023857506102236040518060400160405280600581526020016437bbb732b960d91b81525061052b565b6001600160a01b0316336001600160a01b0316145b61025d5760405162461bcd60e51b815260040161025490610810565b60405180910390fd5b6001600160a01b038116600090815260016020819052604091829020805460ff19169091179055517f3f04a50450bef2cbd6fa284fd81947443e43bdbf0db0b834741b228b996ae35c906102b29083906107ad565b60405180910390a150565b60026020526000908152604090205460ff1681565b60016020526000908152604090205460ff1681565b61030d6040518060400160405280600581526020016430b236b4b760d91b81525061052b565b6001600160a01b0316336001600160a01b03161480610362575061034d6040518060400160405280600581526020016437bbb732b960d91b81525061052b565b6001600160a01b0316336001600160a01b0316145b61037e5760405162461bcd60e51b815260040161025490610810565b6001600160a01b03811660009081526002602052604090819020805460ff19166001179055517f68f5cdfc79250ac339a21f2dd385aac4592b8f39c5a873771b402366e81140db906102b29083906107ad565b6103f76040518060400160405280600581526020016430b236b4b760d91b81525061052b565b6001600160a01b0316336001600160a01b0316148061044c57506104376040518060400160405280600581526020016437bbb732b960d91b81525061052b565b6001600160a01b0316336001600160a01b0316145b6104685760405162461bcd60e51b815260040161025490610810565b806000808460405160200161047d9190610791565b60405160208183030381529060405280519060200120815260200190815260200160002060006101000a8154816001600160a01b0302191690836001600160a01b031602179055507ffc0a6a253a16cecf0b9dae14da9b82f5b9b4fcbd38bcac78349d9fded55d383d82826040516104f69291906107cc565b60405180910390a15050565b6001600160a01b03811660009081526001602052604081205460ff16156101b4575060016101b8565b6000806000836040516020016105419190610791565b60408051808303601f19018152918152815160209283012083529082019290925201600020546001600160a01b031692915050565b61059c6040518060400160405280600581526020016430b236b4b760d91b81525061052b565b6001600160a01b0316336001600160a01b031614806105f157506105dc6040518060400160405280600581526020016437bbb732b960d91b81525061052b565b6001600160a01b0316336001600160a01b0316145b61060d5760405162461bcd60e51b815260040161025490610810565b6001600160a01b03811660009081526002602052604090819020805460ff19169055517f51e737aad5b0a2ee32c37ae8c06b9f89e99d26cc52ba5bdcb0e006983f1a5607906102b29083906107ad565b80356001600160a01b03811681146101b857600080fd5b600082601f830112610684578081fd5b813567ffffffffffffffff8082111561069957fe5b604051601f8301601f1916810160200182811182821017156106b757fe5b6040528281528483016020018610156106ce578384fd5b82602086016020830137918201602001929092529392505050565b6000602082840312156106fa578081fd5b6107038261065d565b9392505050565b60006020828403121561071b578081fd5b813567ffffffffffffffff811115610731578182fd5b61073d84828501610674565b949350505050565b60008060408385031215610757578081fd5b823567ffffffffffffffff81111561076d578182fd5b61077985828601610674565b9250506107886020840161065d565b90509250929050565b600082516107a381846020870161083b565b9190910192915050565b6001600160a01b0391909116815260200190565b901515815260200190565b60006040825283518060408401526107eb81606085016020880161083b565b6001600160a01b0393909316602083015250601f91909101601f191601606001919050565b6020808252601190820152701c195c9b5a5cdcda5bdb8b59195b9a5959607a1b604082015260600190565b60005b8381101561085657818101518382015260200161083e565b83811115610865576000848401525b5050505056fea264697066735822122022a56abd5212d60278c668a9756ff1f2245d52486e24b9dceca25384f4c6b84e64736f6c63430007060033",
          "opcodes": "PUSH1 0x80 PUSH1 0x40 MSTORE CALLVALUE DUP1 ISZERO PUSH2 0x10 JUMPI PUSH1 0x0 DUP1 REVERT JUMPDEST POP PUSH2 0x8A1 DUP1 PUSH2 0x20 PUSH1 0x0 CODECOPY PUSH1 0x0 RETURN INVALID PUSH1 0x80 PUSH1 0x40 MSTORE CALLVALUE DUP1 ISZERO PUSH2 0x10 JUMPI PUSH1 0x0 DUP1 REVERT JUMPDEST POP PUSH1 0x4 CALLDATASIZE LT PUSH2 0x93 JUMPI PUSH1 0x0 CALLDATALOAD PUSH1 0xE0 SHR DUP1 PUSH4 0x5E2BD421 GT PUSH2 0x66 JUMPI DUP1 PUSH4 0x5E2BD421 EQ PUSH2 0xFC JUMPI DUP1 PUSH4 0x9B2EA4BD EQ PUSH2 0x10F JUMPI DUP1 PUSH4 0xBBFDC3C4 EQ PUSH2 0x122 JUMPI DUP1 PUSH4 0xBF40FAC1 EQ PUSH2 0x135 JUMPI DUP1 PUSH4 0xD93B4EE7 EQ PUSH2 0x155 JUMPI PUSH2 0x93 JUMP JUMPDEST DUP1 PUSH4 0x11390441 EQ PUSH2 0x98 JUMPI DUP1 PUSH4 0x13F07317 EQ PUSH2 0xC1 JUMPI DUP1 PUSH4 0x15413CCF EQ PUSH2 0xD6 JUMPI DUP1 PUSH4 0x28E98537 EQ PUSH2 0xE9 JUMPI JUMPDEST PUSH1 0x0 DUP1 REVERT JUMPDEST PUSH2 0xAB PUSH2 0xA6 CALLDATASIZE PUSH1 0x4 PUSH2 0x6E9 JUMP JUMPDEST PUSH2 0x168 JUMP JUMPDEST PUSH1 0x40 MLOAD PUSH2 0xB8 SWAP2 SWAP1 PUSH2 0x7C1 JUMP JUMPDEST PUSH1 0x40 MLOAD DUP1 SWAP2 SUB SWAP1 RETURN JUMPDEST PUSH2 0xD4 PUSH2 0xCF CALLDATASIZE PUSH1 0x4 PUSH2 0x6E9 JUMP JUMPDEST PUSH2 0x1BD JUMP JUMPDEST STOP JUMPDEST PUSH2 0xAB PUSH2 0xE4 CALLDATASIZE PUSH1 0x4 PUSH2 0x6E9 JUMP JUMPDEST PUSH2 0x2BD JUMP JUMPDEST PUSH2 0xAB PUSH2 0xF7 CALLDATASIZE PUSH1 0x4 PUSH2 0x6E9 JUMP JUMPDEST PUSH2 0x2D2 JUMP JUMPDEST PUSH2 0xD4 PUSH2 0x10A CALLDATASIZE PUSH1 0x4 PUSH2 0x6E9 JUMP JUMPDEST PUSH2 0x2E7 JUMP JUMPDEST PUSH2 0xD4 PUSH2 0x11D CALLDATASIZE PUSH1 0x4 PUSH2 0x745 JUMP JUMPDEST PUSH2 0x3D1 JUMP JUMPDEST PUSH2 0xAB PUSH2 0x130 CALLDATASIZE PUSH1 0x4 PUSH2 0x6E9 JUMP JUMPDEST PUSH2 0x502 JUMP JUMPDEST PUSH2 0x148 PUSH2 0x143 CALLDATASIZE PUSH1 0x4 PUSH2 0x70A JUMP JUMPDEST PUSH2 0x52B JUMP JUMPDEST PUSH1 0x40 MLOAD PUSH2 0xB8 SWAP2 SWAP1 PUSH2 0x7AD JUMP JUMPDEST PUSH2 0xD4 PUSH2 0x163 CALLDATASIZE PUSH1 0x4 PUSH2 0x6E9 JUMP JUMPDEST PUSH2 0x576 JUMP JUMPDEST PUSH1 0x1 PUSH1 0x1 PUSH1 0xA0 SHL SUB DUP2 AND PUSH1 0x0 SWAP1 DUP2 MSTORE PUSH1 0x1 PUSH1 0x20 MSTORE PUSH1 0x40 DUP2 KECCAK256 SLOAD PUSH1 0xFF AND DUP1 PUSH2 0x1A7 JUMPI POP PUSH1 0x1 PUSH1 0x1 PUSH1 0xA0 SHL SUB DUP3 AND PUSH1 0x0 SWAP1 DUP2 MSTORE PUSH1 0x2 PUSH1 0x20 MSTORE PUSH1 0x40 SWAP1 KECCAK256 SLOAD PUSH1 0xFF AND JUMPDEST ISZERO PUSH2 0x1B4 JUMPI POP PUSH1 0x1 PUSH2 0x1B8 JUMP JUMPDEST POP PUSH1 0x0 JUMPDEST SWAP2 SWAP1 POP JUMP JUMPDEST PUSH2 0x1E3 PUSH1 0x40 MLOAD DUP1 PUSH1 0x40 ADD PUSH1 0x40 MSTORE DUP1 PUSH1 0x5 DUP2 MSTORE PUSH1 0x20 ADD PUSH5 0x30B236B4B7 PUSH1 0xD9 SHL DUP2 MSTORE POP PUSH2 0x52B JUMP JUMPDEST PUSH1 0x1 PUSH1 0x1 PUSH1 0xA0 SHL SUB AND CALLER PUSH1 0x1 PUSH1 0x1 PUSH1 0xA0 SHL SUB AND EQ DUP1 PUSH2 0x238 JUMPI POP PUSH2 0x223 PUSH1 0x40 MLOAD DUP1 PUSH1 0x40 ADD PUSH1 0x40 MSTORE DUP1 PUSH1 0x5 DUP2 MSTORE PUSH1 0x20 ADD PUSH5 0x37BBB732B9 PUSH1 0xD9 SHL DUP2 MSTORE POP PUSH2 0x52B JUMP JUMPDEST PUSH1 0x1 PUSH1 0x1 PUSH1 0xA0 SHL SUB AND CALLER PUSH1 0x1 PUSH1 0x1 PUSH1 0xA0 SHL SUB AND EQ JUMPDEST PUSH2 0x25D JUMPI PUSH1 0x40 MLOAD PUSH3 0x461BCD PUSH1 0xE5 SHL DUP2 MSTORE PUSH1 0x4 ADD PUSH2 0x254 SWAP1 PUSH2 0x810 JUMP JUMPDEST PUSH1 0x40 MLOAD DUP1 SWAP2 SUB SWAP1 REVERT JUMPDEST PUSH1 0x1 PUSH1 0x1 PUSH1 0xA0 SHL SUB DUP2 AND PUSH1 0x0 SWAP1 DUP2 MSTORE PUSH1 0x1 PUSH1 0x20 DUP2 SWAP1 MSTORE PUSH1 0x40 SWAP2 DUP3 SWAP1 KECCAK256 DUP1 SLOAD PUSH1 0xFF NOT AND SWAP1 SWAP2 OR SWAP1 SSTORE MLOAD PUSH32 0x3F04A50450BEF2CBD6FA284FD81947443E43BDBF0DB0B834741B228B996AE35C SWAP1 PUSH2 0x2B2 SWAP1 DUP4 SWAP1 PUSH2 0x7AD JUMP JUMPDEST PUSH1 0x40 MLOAD DUP1 SWAP2 SUB SWAP1 LOG1 POP JUMP JUMPDEST PUSH1 0x2 PUSH1 0x20 MSTORE PUSH1 0x0 SWAP1 DUP2 MSTORE PUSH1 0x40 SWAP1 KECCAK256 SLOAD PUSH1 0xFF AND DUP2 JUMP JUMPDEST PUSH1 0x1 PUSH1 0x20 MSTORE PUSH1 0x0 SWAP1 DUP2 MSTORE PUSH1 0x40 SWAP1 KECCAK256 SLOAD PUSH1 0xFF AND DUP2 JUMP JUMPDEST PUSH2 0x30D PUSH1 0x40 MLOAD DUP1 PUSH1 0x40 ADD PUSH1 0x40 MSTORE DUP1 PUSH1 0x5 DUP2 MSTORE PUSH1 0x20 ADD PUSH5 0x30B236B4B7 PUSH1 0xD9 SHL DUP2 MSTORE POP PUSH2 0x52B JUMP JUMPDEST PUSH1 0x1 PUSH1 0x1 PUSH1 0xA0 SHL SUB AND CALLER PUSH1 0x1 PUSH1 0x1 PUSH1 0xA0 SHL SUB AND EQ DUP1 PUSH2 0x362 JUMPI POP PUSH2 0x34D PUSH1 0x40 MLOAD DUP1 PUSH1 0x40 ADD PUSH1 0x40 MSTORE DUP1 PUSH1 0x5 DUP2 MSTORE PUSH1 0x20 ADD PUSH5 0x37BBB732B9 PUSH1 0xD9 SHL DUP2 MSTORE POP PUSH2 0x52B JUMP JUMPDEST PUSH1 0x1 PUSH1 0x1 PUSH1 0xA0 SHL SUB AND CALLER PUSH1 0x1 PUSH1 0x1 PUSH1 0xA0 SHL SUB AND EQ JUMPDEST PUSH2 0x37E JUMPI PUSH1 0x40 MLOAD PUSH3 0x461BCD PUSH1 0xE5 SHL DUP2 MSTORE PUSH1 0x4 ADD PUSH2 0x254 SWAP1 PUSH2 0x810 JUMP JUMPDEST PUSH1 0x1 PUSH1 0x1 PUSH1 0xA0 SHL SUB DUP2 AND PUSH1 0x0 SWAP1 DUP2 MSTORE PUSH1 0x2 PUSH1 0x20 MSTORE PUSH1 0x40 SWAP1 DUP2 SWAP1 KECCAK256 DUP1 SLOAD PUSH1 0xFF NOT AND PUSH1 0x1 OR SWAP1 SSTORE MLOAD PUSH32 0x68F5CDFC79250AC339A21F2DD385AAC4592B8F39C5A873771B402366E81140DB SWAP1 PUSH2 0x2B2 SWAP1 DUP4 SWAP1 PUSH2 0x7AD JUMP JUMPDEST PUSH2 0x3F7 PUSH1 0x40 MLOAD DUP1 PUSH1 0x40 ADD PUSH1 0x40 MSTORE DUP1 PUSH1 0x5 DUP2 MSTORE PUSH1 0x20 ADD PUSH5 0x30B236B4B7 PUSH1 0xD9 SHL DUP2 MSTORE POP PUSH2 0x52B JUMP JUMPDEST PUSH1 0x1 PUSH1 0x1 PUSH1 0xA0 SHL SUB AND CALLER PUSH1 0x1 PUSH1 0x1 PUSH1 0xA0 SHL SUB AND EQ DUP1 PUSH2 0x44C JUMPI POP PUSH2 0x437 PUSH1 0x40 MLOAD DUP1 PUSH1 0x40 ADD PUSH1 0x40 MSTORE DUP1 PUSH1 0x5 DUP2 MSTORE PUSH1 0x20 ADD PUSH5 0x37BBB732B9 PUSH1 0xD9 SHL DUP2 MSTORE POP PUSH2 0x52B JUMP JUMPDEST PUSH1 0x1 PUSH1 0x1 PUSH1 0xA0 SHL SUB AND CALLER PUSH1 0x1 PUSH1 0x1 PUSH1 0xA0 SHL SUB AND EQ JUMPDEST PUSH2 0x468 JUMPI PUSH1 0x40 MLOAD PUSH3 0x461BCD PUSH1 0xE5 SHL DUP2 MSTORE PUSH1 0x4 ADD PUSH2 0x254 SWAP1 PUSH2 0x810 JUMP JUMPDEST DUP1 PUSH1 0x0 DUP1 DUP5 PUSH1 0x40 MLOAD PUSH1 0x20 ADD PUSH2 0x47D SWAP2 SWAP1 PUSH2 0x791 JUMP JUMPDEST PUSH1 0x40 MLOAD PUSH1 0x20 DUP2 DUP4 SUB SUB DUP2 MSTORE SWAP1 PUSH1 0x40 MSTORE DUP1 MLOAD SWAP1 PUSH1 0x20 ADD KECCAK256 DUP2 MSTORE PUSH1 0x20 ADD SWAP1 DUP2 MSTORE PUSH1 0x20 ADD PUSH1 0x0 KECCAK256 PUSH1 0x0 PUSH2 0x100 EXP DUP2 SLOAD DUP2 PUSH1 0x1 PUSH1 0x1 PUSH1 0xA0 SHL SUB MUL NOT AND SWAP1 DUP4 PUSH1 0x1 PUSH1 0x1 PUSH1 0xA0 SHL SUB AND MUL OR SWAP1 SSTORE POP PUSH32 0xFC0A6A253A16CECF0B9DAE14DA9B82F5B9B4FCBD38BCAC78349D9FDED55D383D DUP3 DUP3 PUSH1 0x40 MLOAD PUSH2 0x4F6 SWAP3 SWAP2 SWAP1 PUSH2 0x7CC JUMP JUMPDEST PUSH1 0x40 MLOAD DUP1 SWAP2 SUB SWAP1 LOG1 POP POP JUMP JUMPDEST PUSH1 0x1 PUSH1 0x1 PUSH1 0xA0 SHL SUB DUP2 AND PUSH1 0x0 SWAP1 DUP2 MSTORE PUSH1 0x1 PUSH1 0x20 MSTORE PUSH1 0x40 DUP2 KECCAK256 SLOAD PUSH1 0xFF AND ISZERO PUSH2 0x1B4 JUMPI POP PUSH1 0x1 PUSH2 0x1B8 JUMP JUMPDEST PUSH1 0x0 DUP1 PUSH1 0x0 DUP4 PUSH1 0x40 MLOAD PUSH1 0x20 ADD PUSH2 0x541 SWAP2 SWAP1 PUSH2 0x791 JUMP JUMPDEST PUSH1 0x40 DUP1 MLOAD DUP1 DUP4 SUB PUSH1 0x1F NOT ADD DUP2 MSTORE SWAP2 DUP2 MSTORE DUP2 MLOAD PUSH1 0x20 SWAP3 DUP4 ADD KECCAK256 DUP4 MSTORE SWAP1 DUP3 ADD SWAP3 SWAP1 SWAP3 MSTORE ADD PUSH1 0x0 KECCAK256 SLOAD PUSH1 0x1 PUSH1 0x1 PUSH1 0xA0 SHL SUB AND SWAP3 SWAP2 POP POP JUMP JUMPDEST PUSH2 0x59C PUSH1 0x40 MLOAD DUP1 PUSH1 0x40 ADD PUSH1 0x40 MSTORE DUP1 PUSH1 0x5 DUP2 MSTORE PUSH1 0x20 ADD PUSH5 0x30B236B4B7 PUSH1 0xD9 SHL DUP2 MSTORE POP PUSH2 0x52B JUMP JUMPDEST PUSH1 0x1 PUSH1 0x1 PUSH1 0xA0 SHL SUB AND CALLER PUSH1 0x1 PUSH1 0x1 PUSH1 0xA0 SHL SUB AND EQ DUP1 PUSH2 0x5F1 JUMPI POP PUSH2 0x5DC PUSH1 0x40 MLOAD DUP1 PUSH1 0x40 ADD PUSH1 0x40 MSTORE DUP1 PUSH1 0x5 DUP2 MSTORE PUSH1 0x20 ADD PUSH5 0x37BBB732B9 PUSH1 0xD9 SHL DUP2 MSTORE POP PUSH2 0x52B JUMP JUMPDEST PUSH1 0x1 PUSH1 0x1 PUSH1 0xA0 SHL SUB AND CALLER PUSH1 0x1 PUSH1 0x1 PUSH1 0xA0 SHL SUB AND EQ JUMPDEST PUSH2 0x60D JUMPI PUSH1 0x40 MLOAD PUSH3 0x461BCD PUSH1 0xE5 SHL DUP2 MSTORE PUSH1 0x4 ADD PUSH2 0x254 SWAP1 PUSH2 0x810 JUMP JUMPDEST PUSH1 0x1 PUSH1 0x1 PUSH1 0xA0 SHL SUB DUP2 AND PUSH1 0x0 SWAP1 DUP2 MSTORE PUSH1 0x2 PUSH1 0x20 MSTORE PUSH1 0x40 SWAP1 DUP2 SWAP1 KECCAK256 DUP1 SLOAD PUSH1 0xFF NOT AND SWAP1 SSTORE MLOAD PUSH32 0x51E737AAD5B0A2EE32C37AE8C06B9F89E99D26CC52BA5BDCB0E006983F1A5607 SWAP1 PUSH2 0x2B2 SWAP1 DUP4 SWAP1 PUSH2 0x7AD JUMP JUMPDEST DUP1 CALLDATALOAD PUSH1 0x1 PUSH1 0x1 PUSH1 0xA0 SHL SUB DUP2 AND DUP2 EQ PUSH2 0x1B8 JUMPI PUSH1 0x0 DUP1 REVERT JUMPDEST PUSH1 0x0 DUP3 PUSH1 0x1F DUP4 ADD SLT PUSH2 0x684 JUMPI DUP1 DUP2 REVERT JUMPDEST DUP2 CALLDATALOAD PUSH8 0xFFFFFFFFFFFFFFFF DUP1 DUP3 GT ISZERO PUSH2 0x699 JUMPI INVALID JUMPDEST PUSH1 0x40 MLOAD PUSH1 0x1F DUP4 ADD PUSH1 0x1F NOT AND DUP2 ADD PUSH1 0x20 ADD DUP3 DUP2 GT DUP3 DUP3 LT OR ISZERO PUSH2 0x6B7 JUMPI INVALID JUMPDEST PUSH1 0x40 MSTORE DUP3 DUP2 MSTORE DUP5 DUP4 ADD PUSH1 0x20 ADD DUP7 LT ISZERO PUSH2 0x6CE JUMPI DUP4 DUP5 REVERT JUMPDEST DUP3 PUSH1 0x20 DUP7 ADD PUSH1 0x20 DUP4 ADD CALLDATACOPY SWAP2 DUP3 ADD PUSH1 0x20 ADD SWAP3 SWAP1 SWAP3 MSTORE SWAP4 SWAP3 POP POP POP JUMP JUMPDEST PUSH1 0x0 PUSH1 0x20 DUP3 DUP5 SUB SLT ISZERO PUSH2 0x6FA JUMPI DUP1 DUP2 REVERT JUMPDEST PUSH2 0x703 DUP3 PUSH2 0x65D JUMP JUMPDEST SWAP4 SWAP3 POP POP POP JUMP JUMPDEST PUSH1 0x0 PUSH1 0x20 DUP3 DUP5 SUB SLT ISZERO PUSH2 0x71B JUMPI DUP1 DUP2 REVERT JUMPDEST DUP2 CALLDATALOAD PUSH8 0xFFFFFFFFFFFFFFFF DUP2 GT ISZERO PUSH2 0x731 JUMPI DUP2 DUP3 REVERT JUMPDEST PUSH2 0x73D DUP5 DUP3 DUP6 ADD PUSH2 0x674 JUMP JUMPDEST SWAP5 SWAP4 POP POP POP POP JUMP JUMPDEST PUSH1 0x0 DUP1 PUSH1 0x40 DUP4 DUP6 SUB SLT ISZERO PUSH2 0x757 JUMPI DUP1 DUP2 REVERT JUMPDEST DUP3 CALLDATALOAD PUSH8 0xFFFFFFFFFFFFFFFF DUP2 GT ISZERO PUSH2 0x76D JUMPI DUP2 DUP3 REVERT JUMPDEST PUSH2 0x779 DUP6 DUP3 DUP7 ADD PUSH2 0x674 JUMP JUMPDEST SWAP3 POP POP PUSH2 0x788 PUSH1 0x20 DUP5 ADD PUSH2 0x65D JUMP JUMPDEST SWAP1 POP SWAP3 POP SWAP3 SWAP1 POP JUMP JUMPDEST PUSH1 0x0 DUP3 MLOAD PUSH2 0x7A3 DUP2 DUP5 PUSH1 0x20 DUP8 ADD PUSH2 0x83B JUMP JUMPDEST SWAP2 SWAP1 SWAP2 ADD SWAP3 SWAP2 POP POP JUMP JUMPDEST PUSH1 0x1 PUSH1 0x1 PUSH1 0xA0 SHL SUB SWAP2 SWAP1 SWAP2 AND DUP2 MSTORE PUSH1 0x20 ADD SWAP1 JUMP JUMPDEST SWAP1 ISZERO ISZERO DUP2 MSTORE PUSH1 0x20 ADD SWAP1 JUMP JUMPDEST PUSH1 0x0 PUSH1 0x40 DUP3 MSTORE DUP4 MLOAD DUP1 PUSH1 0x40 DUP5 ADD MSTORE PUSH2 0x7EB DUP2 PUSH1 0x60 DUP6 ADD PUSH1 0x20 DUP9 ADD PUSH2 0x83B JUMP JUMPDEST PUSH1 0x1 PUSH1 0x1 PUSH1 0xA0 SHL SUB SWAP4 SWAP1 SWAP4 AND PUSH1 0x20 DUP4 ADD MSTORE POP PUSH1 0x1F SWAP2 SWAP1 SWAP2 ADD PUSH1 0x1F NOT AND ADD PUSH1 0x60 ADD SWAP2 SWAP1 POP JUMP JUMPDEST PUSH1 0x20 DUP1 DUP3 MSTORE PUSH1 0x11 SWAP1 DUP3 ADD MSTORE PUSH17 0x1C195C9B5A5CDCDA5BDB8B59195B9A5959 PUSH1 0x7A SHL PUSH1 0x40 DUP3 ADD MSTORE PUSH1 0x60 ADD SWAP1 JUMP JUMPDEST PUSH1 0x0 JUMPDEST DUP4 DUP2 LT ISZERO PUSH2 0x856 JUMPI DUP2 DUP2 ADD MLOAD DUP4 DUP3 ADD MSTORE PUSH1 0x20 ADD PUSH2 0x83E JUMP JUMPDEST DUP4 DUP2 GT ISZERO PUSH2 0x865 JUMPI PUSH1 0x0 DUP5 DUP5 ADD MSTORE JUMPDEST POP POP POP POP JUMP INVALID LOG2 PUSH5 0x6970667358 0x22 SLT KECCAK256 0x22 0xA5 PUSH11 0xBD5212D60278C668A9756F CALL CALLCODE 0x24 0x5D MSTORE 0x48 PUSH15 0x24B9DCECA25384F4C6B84E64736F6C PUSH4 0x43000706 STOP CALLER "
        },
        "methodIdentifiers": {
          "disableLogic(address)": "d93b4ee7",
          "enableLogic(address)": "5e2bd421",
          "enableStaticLogic(address)": "13f07317",
          "getAddress(string)": "bf40fac1",
          "logic(address)": "11390441",
          "logicProxies(address)": "15413ccf",
          "logicProxiesStatic(address)": "28e98537",
          "logicStatic(address)": "bbfdc3c4",
          "setAddress(string,address)": "9b2ea4bd"
        }
      }
    }
  }
}