{
  "contracts/BitStakerRegistry.sol": {
    "BitStakerRegistery": {
      "abi": [
        {
          "inputs": [],
          "stateMutability": "nonpayable",
          "type": "constructor"
        },
        {
          "anonymous": false,
          "inputs": [
            {
              "indexed": true,
              "internalType": "address",
              "name": "sender",
              "type": "address"
            },
            {
              "indexed": true,
              "internalType": "address",
              "name": "owner",
              "type": "address"
            },
            {
              "indexed": false,
              "internalType": "address",
              "name": "proxy",
              "type": "address"
            }
          ],
          "name": "Created",
          "type": "event"
        },
        {
          "anonymous": false,
          "inputs": [
            {
              "indexed": false,
              "internalType": "address",
              "name": "logicAddress",
              "type": "address"
            }
          ],
          "name": "LogDisableLogic",
          "type": "event"
        },
        {
          "anonymous": false,
          "inputs": [
            {
              "indexed": false,
              "internalType": "address",
              "name": "logicAddress",
              "type": "address"
            }
          ],
          "name": "LogEnableLogic",
          "type": "event"
        },
        {
          "anonymous": false,
          "inputs": [
            {
              "indexed": false,
              "internalType": "address",
              "name": "logicAddress",
              "type": "address"
            }
          ],
          "name": "LogEnableStaticLogic",
          "type": "event"
        },
        {
          "anonymous": false,
          "inputs": [
            {
              "indexed": true,
              "internalType": "address",
              "name": "currentOwner",
              "type": "address"
            },
            {
              "indexed": true,
              "internalType": "address",
              "name": "nextOwner",
              "type": "address"
            },
            {
              "indexed": false,
              "internalType": "address",
              "name": "proxy",
              "type": "address"
            }
          ],
          "name": "LogRecord",
          "type": "event"
        },
        {
          "anonymous": false,
          "inputs": [
            {
              "indexed": false,
              "internalType": "string",
              "name": "name",
              "type": "string"
            },
            {
              "indexed": false,
              "internalType": "address",
              "name": "addr",
              "type": "address"
            }
          ],
          "name": "LogSetAddress",
          "type": "event"
        },
        {
          "inputs": [],
          "name": "build",
          "outputs": [
            {
              "internalType": "contract UserWallet",
              "name": "proxy",
              "type": "address"
            }
          ],
          "stateMutability": "nonpayable",
          "type": "function"
        },
        {
          "inputs": [
            {
              "internalType": "address",
              "name": "_owner",
              "type": "address"
            }
          ],
          "name": "build",
          "outputs": [
            {
              "internalType": "contract UserWallet",
              "name": "proxy",
              "type": "address"
            }
          ],
          "stateMutability": "nonpayable",
          "type": "function"
        },
        {
          "inputs": [
            {
              "internalType": "address",
              "name": "_logicAddress",
              "type": "address"
            }
          ],
          "name": "disableLogic",
          "outputs": [],
          "stateMutability": "nonpayable",
          "type": "function"
        },
        {
          "inputs": [
            {
              "internalType": "address",
              "name": "_logicAddress",
              "type": "address"
            }
          ],
          "name": "enableLogic",
          "outputs": [],
          "stateMutability": "nonpayable",
          "type": "function"
        },
        {
          "inputs": [
            {
              "internalType": "address",
              "name": "_logicAddress",
              "type": "address"
            }
          ],
          "name": "enableStaticLogic",
          "outputs": [],
          "stateMutability": "nonpayable",
          "type": "function"
        },
        {
          "inputs": [
            {
              "internalType": "string",
              "name": "_name",
              "type": "string"
            }
          ],
          "name": "getAddress",
          "outputs": [
            {
              "internalType": "address",
              "name": "",
              "type": "address"
            }
          ],
          "stateMutability": "view",
          "type": "function"
        },
        {
          "inputs": [
            {
              "internalType": "address",
              "name": "_logicAddress",
              "type": "address"
            }
          ],
          "name": "logic",
          "outputs": [
            {
              "internalType": "bool",
              "name": "",
              "type": "bool"
            }
          ],
          "stateMutability": "view",
          "type": "function"
        },
        {
          "inputs": [
            {
              "internalType": "address",
              "name": "",
              "type": "address"
            }
          ],
          "name": "logicProxies",
          "outputs": [
            {
              "internalType": "bool",
              "name": "",
              "type": "bool"
            }
          ],
          "stateMutability": "view",
          "type": "function"
        },
        {
          "inputs": [
            {
              "internalType": "address",
              "name": "",
              "type": "address"
            }
          ],
          "name": "logicProxiesStatic",
          "outputs": [
            {
              "internalType": "bool",
              "name": "",
              "type": "bool"
            }
          ],
          "stateMutability": "view",
          "type": "function"
        },
        {
          "inputs": [
            {
              "internalType": "address",
              "name": "_logicAddress",
              "type": "address"
            }
          ],
          "name": "logicStatic",
          "outputs": [
            {
              "internalType": "bool",
              "name": "",
              "type": "bool"
            }
          ],
          "stateMutability": "view",
          "type": "function"
        },
        {
          "inputs": [
            {
              "internalType": "address",
              "name": "",
              "type": "address"
            }
          ],
          "name": "proxies",
          "outputs": [
            {
              "internalType": "contract UserWallet",
              "name": "",
              "type": "address"
            }
          ],
          "stateMutability": "view",
          "type": "function"
        },
        {
          "inputs": [
            {
              "internalType": "address",
              "name": "_currentOwner",
              "type": "address"
            },
            {
              "internalType": "address",
              "name": "_nextOwner",
              "type": "address"
            }
          ],
          "name": "record",
          "outputs": [],
          "stateMutability": "nonpayable",
          "type": "function"
        },
        {
          "inputs": [
            {
              "internalType": "string",
              "name": "_name",
              "type": "string"
            },
            {
              "internalType": "address",
              "name": "_userAddress",
              "type": "address"
            }
          ],
          "name": "setAddress",
          "outputs": [],
          "stateMutability": "nonpayable",
          "type": "function"
        }
      ],
      "evm": {
        "bytecode": {
          "linkReferences": {},
          "object": "608060405234801561001057600080fd5b5033600080604051602001610024906100dd565b60405160208183030381529060405280519060200120815260200190815260200160002060006101000a8154816001600160a01b0302191690836001600160a01b031602179055503360008060405160200161007f906100cc565b60405160208183030381529060405280519060200120815260200190815260200160002060006101000a8154816001600160a01b0302191690836001600160a01b031602179055506100ee565b6437bbb732b960d91b815260050190565b6430b236b4b760d91b815260050190565b611785806100fd6000396000f3fe608060405234801561001057600080fd5b50600436106100cf5760003560e01c80638e1a55fc1161008c578063bf40fac111610066578063bf40fac114610199578063c4552791146101ac578063d93b4ee7146101bf578063f3701da2146101d2576100cf565b80638e1a55fc1461015e5780639b2ea4bd14610173578063bbfdc3c414610186576100cf565b806311390441146100d457806313f07317146100fd57806315413ccf1461011257806328e985371461012557806339035d56146101385780635e2bd4211461014b575b600080fd5b6100e76100e23660046109c7565b6101e5565b6040516100f49190610ac8565b60405180910390f35b61011061010b3660046109c7565b61023a565b005b6100e76101203660046109c7565b61033a565b6100e76101333660046109c7565b61034f565b6101106101463660046109e8565b610364565b6101106101593660046109c7565b610457565b610166610541565b6040516100f49190610ab4565b610110610181366004610a55565b610551565b6100e76101943660046109c7565b610682565b6101666101a7366004610a1a565b6106ab565b6101666101ba3660046109c7565b6106f6565b6101106101cd3660046109c7565b610711565b6101666101e03660046109c7565b6107f8565b6001600160a01b03811660009081526001602052604081205460ff168061022457506001600160a01b03821660009081526002602052604090205460ff165b1561023157506001610235565b5060005b919050565b6102606040518060400160405280600581526020016430b236b4b760d91b8152506106ab565b6001600160a01b0316336001600160a01b031614806102b557506102a06040518060400160405280600581526020016437bbb732b960d91b8152506106ab565b6001600160a01b0316336001600160a01b0316145b6102da5760405162461bcd60e51b81526004016102d190610b47565b60405180910390fd5b6001600160a01b038116600090815260016020819052604091829020805460ff19169091179055517f3f04a50450bef2cbd6fa284fd81947443e43bdbf0db0b834741b228b996ae35c9061032f908390610ab4565b60405180910390a150565b60026020526000908152604090205460ff1681565b60016020526000908152604090205460ff1681565b6001600160a01b0382811660009081526003602052604090205416331461039d5760405162461bcd60e51b81526004016102d190610b17565b6001600160a01b0381811660009081526003602052604090205416156103d55760405162461bcd60e51b81526004016102d190610b72565b6001600160a01b0382811660008181526003602052604080822080548686168085529383902080549187166001600160a01b0319928316178155825490911690915554905191937fcef7897a03e601f3ff31e759532eac1da82eebd7e6f0f8fde0787e934e53cbd19261044b9290911690610ab4565b60405180910390a35050565b61047d6040518060400160405280600581526020016430b236b4b760d91b8152506106ab565b6001600160a01b0316336001600160a01b031614806104d257506104bd6040518060400160405280600581526020016437bbb732b960d91b8152506106ab565b6001600160a01b0316336001600160a01b0316145b6104ee5760405162461bcd60e51b81526004016102d190610b47565b6001600160a01b03811660009081526002602052604090819020805460ff19166001179055517f68f5cdfc79250ac339a21f2dd385aac4592b8f39c5a873771b402366e81140db9061032f908390610ab4565b600061054c336107f8565b905090565b6105776040518060400160405280600581526020016430b236b4b760d91b8152506106ab565b6001600160a01b0316336001600160a01b031614806105cc57506105b76040518060400160405280600581526020016437bbb732b960d91b8152506106ab565b6001600160a01b0316336001600160a01b0316145b6105e85760405162461bcd60e51b81526004016102d190610b47565b80600080846040516020016105fd9190610a98565b60405160208183030381529060405280519060200120815260200190815260200160002060006101000a8154816001600160a01b0302191690836001600160a01b031602179055507ffc0a6a253a16cecf0b9dae14da9b82f5b9b4fcbd38bcac78349d9fded55d383d8282604051610676929190610ad3565b60405180910390a15050565b6001600160a01b03811660009081526001602052604081205460ff161561023157506001610235565b6000806000836040516020016106c19190610a98565b60408051808303601f19018152918152815160209283012083529082019290925201600020546001600160a01b031692915050565b6003602052600090815260409020546001600160a01b031681565b6107376040518060400160405280600581526020016430b236b4b760d91b8152506106ab565b6001600160a01b0316336001600160a01b0316148061078c57506107776040518060400160405280600581526020016437bbb732b960d91b8152506106ab565b6001600160a01b0316336001600160a01b0316145b6107a85760405162461bcd60e51b81526004016102d190610b47565b6001600160a01b03811660009081526002602052604090819020805460ff19169055517f51e737aad5b0a2ee32c37ae8c06b9f89e99d26cc52ba5bdcb0e006983f1a56079061032f908390610ab4565b6001600160a01b03818116600090815260036020526040812054909116156108325760405162461bcd60e51b81526004016102d190610b72565b60405161083e9061092e565b604051809103906000f08015801561085a573d6000803e3d6000fd5b50306000908152600360205260409081902080546001600160a01b0319166001600160a01b03841690811790915590516313af403560e01b8152919250906313af4035906108ac908590600401610ab4565b600060405180830381600087803b1580156108c657600080fd5b505af11580156108da573d6000803e3d6000fd5b50505050816001600160a01b0316336001600160a01b03167f454b0172f64812df0cd504c2bd7df7aab8ff328a54d946b4bd0fa7c527adf9cc836040516109219190610ab4565b60405180910390a3919050565b610b6a80610be683390190565b80356001600160a01b038116811461023557600080fd5b600082601f830112610962578081fd5b813567ffffffffffffffff8082111561097757fe5b604051601f8301601f19168101602001828111828210171561099557fe5b6040528281528483016020018610156109ac578384fd5b82602086016020830137918201602001929092529392505050565b6000602082840312156109d8578081fd5b6109e18261093b565b9392505050565b600080604083850312156109fa578081fd5b610a038361093b565b9150610a116020840161093b565b90509250929050565b600060208284031215610a2b578081fd5b813567ffffffffffffffff811115610a41578182fd5b610a4d84828501610952565b949350505050565b60008060408385031215610a67578182fd5b823567ffffffffffffffff811115610a7d578283fd5b610a8985828601610952565b925050610a116020840161093b565b60008251610aaa818460208701610bb5565b9190910192915050565b6001600160a01b0391909116815260200190565b901515815260200190565b6000604082528351806040840152610af2816060850160208801610bb5565b6001600160a01b0393909316602083015250601f91909101601f191601606001919050565b60208082526016908201527534b73b30b634b216b83937bc3c96b7b916b7bbb732b960511b604082015260600190565b6020808252601190820152701c195c9b5a5cdcda5bdb8b59195b9a5959607a1b604082015260600190565b60208082526023908201527f6d756c7469706c652d70726f78792d7065722d757365722d6e6f742d616c6c6f6040820152621dd95960ea1b606082015260800190565b60005b83811015610bd0578181015183820152602001610bb8565b83811115610bdf576000848401525b5050505056fe608060405234801561001057600080fd5b5060008054336001600160a01b03199182168117835560018054909216179055610b2a90819061004090396000f3fe6080604052600436106100555760003560e01c806313af4035146100575780632520e7ff146100775780637b103999146100ad5780638da5cb5b146100cf578063a731e2c2146100e4578063f354190114610104575b005b34801561006357600080fd5b50610055610072366004610779565b610124565b34801561008357600080fd5b50610097610092366004610779565b610206565b6040516100a491906109c7565b60405180910390f35b3480156100b957600080fd5b506100c2610249565b6040516100a49190610918565b3480156100db57600080fd5b506100c2610258565b6100f76100f23660046107f6565b610267565b6040516100a49190610967565b61011761011236600461079a565b6104ad565b6040516100a49190610a0f565b61012d33610206565b6101525760405162461bcd60e51b815260040161014990610a50565b60405180910390fd5b600054600154604051631c81aeab60e11b81526001600160a01b03928316926339035d569261018892911690859060040161092c565b600060405180830381600087803b1580156101a257600080fd5b505af11580156101b6573d6000803e3d6000fd5b5050600180546001600160a01b0319166001600160a01b0385169081179091556040519092507fce241d7ca1f669fee44b6fc00b8eba2df3bb514eed0f6f668f8f89096e81ed949150600090a250565b6001546000906001600160a01b038381169116141561022757506001610244565b6001600160a01b03821630141561024057506001610244565b5060005b919050565b6000546001600160a01b031681565b6001546001600160a01b031681565b604051606090600435906024359082903390600080356001600160e01b031916917f644843f351d3fba4abcd60109eaff9f54bac8fb8ccf0bab941009c21df21cf31916102b9918791349136906109d2565b60405180910390a46102ca33610206565b6102e65760405162461bcd60e51b815260040161014990610a50565b8660005b81518110156103f45760006001600160a01b031682828151811061030a57fe5b60200260200101516001600160a01b031614156103395760405162461bcd60e51b815260040161014990610a7b565b60005482516001600160a01b039091169063113904419084908490811061035c57fe5b60200260200101516040518263ffffffff1660e01b81526004016103809190610918565b60206040518083038186803b15801561039857600080fd5b505afa1580156103ac573d6000803e3d6000fd5b505050506040513d601f19601f820116820180604052508101906103d091906108ad565b6103ec5760405162461bcd60e51b815260040161014990610a22565b6001016102ea565b50875167ffffffffffffffff8111801561040d57600080fd5b5060405190808252806020026020018201604052801561044157816020015b606081526020019060019003908161042c5790505b50935060005b88518110156104a15761048289828151811061045f57fe5b602002602001015189838151811061047357fe5b60200260200101518989610607565b85828151811061048e57fe5b6020908102919091010152600101610447565b50505050949350505050565b604051606090600435906024359082903390600080356001600160e01b031916917f644843f351d3fba4abcd60109eaff9f54bac8fb8ccf0bab941009c21df21cf31916104ff918791349136906109d2565b60405180910390a461051033610206565b61052c5760405162461bcd60e51b815260040161014990610a50565b866001600160a01b0381166105535760405162461bcd60e51b815260040161014990610a7b565b600054604051631139044160e01b81526001600160a01b0390911690631139044190610583908490600401610918565b60206040518083038186803b15801561059b57600080fd5b505afa1580156105af573d6000803e3d6000fd5b505050506040513d601f19601f820116820180604052508101906105d391906108ad565b6105ef5760405162461bcd60e51b815260040161014990610a22565b6105fb88888888610607565b98975050505050505050565b60607fbd37415aaf130f9a169d66bc22d669b6a5aa55f384e7b41d105714eb8277b34185848460405161063c93929190610946565b60405180910390a1600080855160208701886113885a03f43d6040519250601f19601f6020830101168301604052808352806000602085013e8115600181146106845761068b565b8160208501fd5b505050949350505050565b80356001600160a01b038116811461024457600080fd5b600082601f8301126106bd578081fd5b813560206106d26106cd83610ad6565b610ab2565b82815281810190858301855b85811015610707576106f5898684358b0101610714565b845292840192908401906001016106de565b5090979650505050505050565b600082601f830112610724578081fd5b813567ffffffffffffffff81111561073857fe5b61074b601f8201601f1916602001610ab2565b81815284602083860101111561075f578283fd5b816020850160208301379081016020019190915292915050565b60006020828403121561078a578081fd5b61079382610696565b9392505050565b600080600080608085870312156107af578283fd5b6107b885610696565b9350602085013567ffffffffffffffff8111156107d3578384fd5b6107df87828801610714565b949794965050505060408301359260600135919050565b6000806000806080858703121561080b578384fd5b843567ffffffffffffffff80821115610822578586fd5b818701915087601f830112610835578586fd5b813560206108456106cd83610ad6565b82815281810190858301838502870184018d1015610861578a8bfd5b8a96505b8487101561088a5761087681610696565b835260019690960195918301918301610865565b50985050880135925050808211156108a0578485fd5b506107df878288016106ad565b6000602082840312156108be578081fd5b81518015158114610793578182fd5b60008151808452815b818110156108f2576020818501810151868301820152016108d6565b818111156109035782602083870101525b50601f01601f19169290920160200192915050565b6001600160a01b0391909116815260200190565b6001600160a01b0392831681529116602082015260400190565b6001600160a01b039390931683526020830191909152604082015260600190565b6000602080830181845280855180835260408601915060408482028701019250838701855b828110156109ba57603f198886030184526109a88583516108cd565b9450928501929085019060010161098c565b5092979650505050505050565b901515815260200190565b60008582528460208301526060604083015282606083015282846080840137818301608090810191909152601f909201601f191601019392505050565b60006020825261079360208301846108cd565b6020808252601490820152731b1bd9da58cb5b9bdd0b585d5d1a1bdc9a5cd95960621b604082015260600190565b6020808252601190820152701c195c9b5a5cdcda5bdb8b59195b9a5959607a1b604082015260600190565b6020808252601c908201527f6c6f6769632d70726f78792d616464726573732d726571756972656400000000604082015260600190565b60405181810167ffffffffffffffff81118282101715610ace57fe5b604052919050565b600067ffffffffffffffff821115610aea57fe5b506020908102019056fea2646970667358221220c59bf7614dfebcb8cc51ca9d118823ced78d5cc3ee2622090299628879c8364864736f6c63430007060033a26469706673582212203141b16342536dc8f970d2498ada6272378bdc27b98eeeb9c278955ded75ed4664736f6c63430007060033",
          "opcodes": "PUSH1 0x80 PUSH1 0x40 MSTORE CALLVALUE DUP1 ISZERO PUSH2 0x10 JUMPI PUSH1 0x0 DUP1 REVERT JUMPDEST POP CALLER PUSH1 0x0 DUP1 PUSH1 0x40 MLOAD PUSH1 0x20 ADD PUSH2 0x24 SWAP1 PUSH2 0xDD JUMP JUMPDEST PUSH1 0x40 MLOAD PUSH1 0x20 DUP2 DUP4 SUB SUB DUP2 MSTORE SWAP1 PUSH1 0x40 MSTORE DUP1 MLOAD SWAP1 PUSH1 0x20 ADD KECCAK256 DUP2 MSTORE PUSH1 0x20 ADD SWAP1 DUP2 MSTORE PUSH1 0x20 ADD PUSH1 0x0 KECCAK256 PUSH1 0x0 PUSH2 0x100 EXP DUP2 SLOAD DUP2 PUSH1 0x1 PUSH1 0x1 PUSH1 0xA0 SHL SUB MUL NOT AND SWAP1 DUP4 PUSH1 0x1 PUSH1 0x1 PUSH1 0xA0 SHL SUB AND MUL OR SWAP1 SSTORE POP CALLER PUSH1 0x0 DUP1 PUSH1 0x40 MLOAD PUSH1 0x20 ADD PUSH2 0x7F SWAP1 PUSH2 0xCC JUMP JUMPDEST PUSH1 0x40 MLOAD PUSH1 0x20 DUP2 DUP4 SUB SUB DUP2 MSTORE SWAP1 PUSH1 0x40 MSTORE DUP1 MLOAD SWAP1 PUSH1 0x20 ADD KECCAK256 DUP2 MSTORE PUSH1 0x20 ADD SWAP1 DUP2 MSTORE PUSH1 0x20 ADD PUSH1 0x0 KECCAK256 PUSH1 0x0 PUSH2 0x100 EXP DUP2 SLOAD DUP2 PUSH1 0x1 PUSH1 0x1 PUSH1 0xA0 SHL SUB MUL NOT AND SWAP1 DUP4 PUSH1 0x1 PUSH1 0x1 PUSH1 0xA0 SHL SUB AND MUL OR SWAP1 SSTORE POP PUSH2 0xEE JUMP JUMPDEST PUSH5 0x37BBB732B9 PUSH1 0xD9 SHL DUP2 MSTORE PUSH1 0x5 ADD SWAP1 JUMP JUMPDEST PUSH5 0x30B236B4B7 PUSH1 0xD9 SHL DUP2 MSTORE PUSH1 0x5 ADD SWAP1 JUMP JUMPDEST PUSH2 0x1785 DUP1 PUSH2 0xFD PUSH1 0x0 CODECOPY PUSH1 0x0 RETURN INVALID PUSH1 0x80 PUSH1 0x40 MSTORE CALLVALUE DUP1 ISZERO PUSH2 0x10 JUMPI PUSH1 0x0 DUP1 REVERT JUMPDEST POP PUSH1 0x4 CALLDATASIZE LT PUSH2 0xCF JUMPI PUSH1 0x0 CALLDATALOAD PUSH1 0xE0 SHR DUP1 PUSH4 0x8E1A55FC GT PUSH2 0x8C JUMPI DUP1 PUSH4 0xBF40FAC1 GT PUSH2 0x66 JUMPI DUP1 PUSH4 0xBF40FAC1 EQ PUSH2 0x199 JUMPI DUP1 PUSH4 0xC4552791 EQ PUSH2 0x1AC JUMPI DUP1 PUSH4 0xD93B4EE7 EQ PUSH2 0x1BF JUMPI DUP1 PUSH4 0xF3701DA2 EQ PUSH2 0x1D2 JUMPI PUSH2 0xCF JUMP JUMPDEST DUP1 PUSH4 0x8E1A55FC EQ PUSH2 0x15E JUMPI DUP1 PUSH4 0x9B2EA4BD EQ PUSH2 0x173 JUMPI DUP1 PUSH4 0xBBFDC3C4 EQ PUSH2 0x186 JUMPI PUSH2 0xCF JUMP JUMPDEST DUP1 PUSH4 0x11390441 EQ PUSH2 0xD4 JUMPI DUP1 PUSH4 0x13F07317 EQ PUSH2 0xFD JUMPI DUP1 PUSH4 0x15413CCF EQ PUSH2 0x112 JUMPI DUP1 PUSH4 0x28E98537 EQ PUSH2 0x125 JUMPI DUP1 PUSH4 0x39035D56 EQ PUSH2 0x138 JUMPI DUP1 PUSH4 0x5E2BD421 EQ PUSH2 0x14B JUMPI JUMPDEST PUSH1 0x0 DUP1 REVERT JUMPDEST PUSH2 0xE7 PUSH2 0xE2 CALLDATASIZE PUSH1 0x4 PUSH2 0x9C7 JUMP JUMPDEST PUSH2 0x1E5 JUMP JUMPDEST PUSH1 0x40 MLOAD PUSH2 0xF4 SWAP2 SWAP1 PUSH2 0xAC8 JUMP JUMPDEST PUSH1 0x40 MLOAD DUP1 SWAP2 SUB SWAP1 RETURN JUMPDEST PUSH2 0x110 PUSH2 0x10B CALLDATASIZE PUSH1 0x4 PUSH2 0x9C7 JUMP JUMPDEST PUSH2 0x23A JUMP JUMPDEST STOP JUMPDEST PUSH2 0xE7 PUSH2 0x120 CALLDATASIZE PUSH1 0x4 PUSH2 0x9C7 JUMP JUMPDEST PUSH2 0x33A JUMP JUMPDEST PUSH2 0xE7 PUSH2 0x133 CALLDATASIZE PUSH1 0x4 PUSH2 0x9C7 JUMP JUMPDEST PUSH2 0x34F JUMP JUMPDEST PUSH2 0x110 PUSH2 0x146 CALLDATASIZE PUSH1 0x4 PUSH2 0x9E8 JUMP JUMPDEST PUSH2 0x364 JUMP JUMPDEST PUSH2 0x110 PUSH2 0x159 CALLDATASIZE PUSH1 0x4 PUSH2 0x9C7 JUMP JUMPDEST PUSH2 0x457 JUMP JUMPDEST PUSH2 0x166 PUSH2 0x541 JUMP JUMPDEST PUSH1 0x40 MLOAD PUSH2 0xF4 SWAP2 SWAP1 PUSH2 0xAB4 JUMP JUMPDEST PUSH2 0x110 PUSH2 0x181 CALLDATASIZE PUSH1 0x4 PUSH2 0xA55 JUMP JUMPDEST PUSH2 0x551 JUMP JUMPDEST PUSH2 0xE7 PUSH2 0x194 CALLDATASIZE PUSH1 0x4 PUSH2 0x9C7 JUMP JUMPDEST PUSH2 0x682 JUMP JUMPDEST PUSH2 0x166 PUSH2 0x1A7 CALLDATASIZE PUSH1 0x4 PUSH2 0xA1A JUMP JUMPDEST PUSH2 0x6AB JUMP JUMPDEST PUSH2 0x166 PUSH2 0x1BA CALLDATASIZE PUSH1 0x4 PUSH2 0x9C7 JUMP JUMPDEST PUSH2 0x6F6 JUMP JUMPDEST PUSH2 0x110 PUSH2 0x1CD CALLDATASIZE PUSH1 0x4 PUSH2 0x9C7 JUMP JUMPDEST PUSH2 0x711 JUMP JUMPDEST PUSH2 0x166 PUSH2 0x1E0 CALLDATASIZE PUSH1 0x4 PUSH2 0x9C7 JUMP JUMPDEST PUSH2 0x7F8 JUMP JUMPDEST PUSH1 0x1 PUSH1 0x1 PUSH1 0xA0 SHL SUB DUP2 AND PUSH1 0x0 SWAP1 DUP2 MSTORE PUSH1 0x1 PUSH1 0x20 MSTORE PUSH1 0x40 DUP2 KECCAK256 SLOAD PUSH1 0xFF AND DUP1 PUSH2 0x224 JUMPI POP PUSH1 0x1 PUSH1 0x1 PUSH1 0xA0 SHL SUB DUP3 AND PUSH1 0x0 SWAP1 DUP2 MSTORE PUSH1 0x2 PUSH1 0x20 MSTORE PUSH1 0x40 SWAP1 KECCAK256 SLOAD PUSH1 0xFF AND JUMPDEST ISZERO PUSH2 0x231 JUMPI POP PUSH1 0x1 PUSH2 0x235 JUMP JUMPDEST POP PUSH1 0x0 JUMPDEST SWAP2 SWAP1 POP JUMP JUMPDEST PUSH2 0x260 PUSH1 0x40 MLOAD DUP1 PUSH1 0x40 ADD PUSH1 0x40 MSTORE DUP1 PUSH1 0x5 DUP2 MSTORE PUSH1 0x20 ADD PUSH5 0x30B236B4B7 PUSH1 0xD9 SHL DUP2 MSTORE POP PUSH2 0x6AB JUMP JUMPDEST PUSH1 0x1 PUSH1 0x1 PUSH1 0xA0 SHL SUB AND CALLER PUSH1 0x1 PUSH1 0x1 PUSH1 0xA0 SHL SUB AND EQ DUP1 PUSH2 0x2B5 JUMPI POP PUSH2 0x2A0 PUSH1 0x40 MLOAD DUP1 PUSH1 0x40 ADD PUSH1 0x40 MSTORE DUP1 PUSH1 0x5 DUP2 MSTORE PUSH1 0x20 ADD PUSH5 0x37BBB732B9 PUSH1 0xD9 SHL DUP2 MSTORE POP PUSH2 0x6AB JUMP JUMPDEST PUSH1 0x1 PUSH1 0x1 PUSH1 0xA0 SHL SUB AND CALLER PUSH1 0x1 PUSH1 0x1 PUSH1 0xA0 SHL SUB AND EQ JUMPDEST PUSH2 0x2DA JUMPI PUSH1 0x40 MLOAD PUSH3 0x461BCD PUSH1 0xE5 SHL DUP2 MSTORE PUSH1 0x4 ADD PUSH2 0x2D1 SWAP1 PUSH2 0xB47 JUMP JUMPDEST PUSH1 0x40 MLOAD DUP1 SWAP2 SUB SWAP1 REVERT JUMPDEST PUSH1 0x1 PUSH1 0x1 PUSH1 0xA0 SHL SUB DUP2 AND PUSH1 0x0 SWAP1 DUP2 MSTORE PUSH1 0x1 PUSH1 0x20 DUP2 SWAP1 MSTORE PUSH1 0x40 SWAP2 DUP3 SWAP1 KECCAK256 DUP1 SLOAD PUSH1 0xFF NOT AND SWAP1 SWAP2 OR SWAP1 SSTORE MLOAD PUSH32 0x3F04A50450BEF2CBD6FA284FD81947443E43BDBF0DB0B834741B228B996AE35C SWAP1 PUSH2 0x32F SWAP1 DUP4 SWAP1 PUSH2 0xAB4 JUMP JUMPDEST PUSH1 0x40 MLOAD DUP1 SWAP2 SUB SWAP1 LOG1 POP JUMP JUMPDEST PUSH1 0x2 PUSH1 0x20 MSTORE PUSH1 0x0 SWAP1 DUP2 MSTORE PUSH1 0x40 SWAP1 KECCAK256 SLOAD PUSH1 0xFF AND DUP2 JUMP JUMPDEST PUSH1 0x1 PUSH1 0x20 MSTORE PUSH1 0x0 SWAP1 DUP2 MSTORE PUSH1 0x40 SWAP1 KECCAK256 SLOAD PUSH1 0xFF AND DUP2 JUMP JUMPDEST PUSH1 0x1 PUSH1 0x1 PUSH1 0xA0 SHL SUB DUP3 DUP2 AND PUSH1 0x0 SWAP1 DUP2 MSTORE PUSH1 0x3 PUSH1 0x20 MSTORE PUSH1 0x40 SWAP1 KECCAK256 SLOAD AND CALLER EQ PUSH2 0x39D JUMPI PUSH1 0x40 MLOAD PUSH3 0x461BCD PUSH1 0xE5 SHL DUP2 MSTORE PUSH1 0x4 ADD PUSH2 0x2D1 SWAP1 PUSH2 0xB17 JUMP JUMPDEST PUSH1 0x1 PUSH1 0x1 PUSH1 0xA0 SHL SUB DUP2 DUP2 AND PUSH1 0x0 SWAP1 DUP2 MSTORE PUSH1 0x3 PUSH1 0x20 MSTORE PUSH1 0x40 SWAP1 KECCAK256 SLOAD AND ISZERO PUSH2 0x3D5 JUMPI PUSH1 0x40 MLOAD PUSH3 0x461BCD PUSH1 0xE5 SHL DUP2 MSTORE PUSH1 0x4 ADD PUSH2 0x2D1 SWAP1 PUSH2 0xB72 JUMP JUMPDEST PUSH1 0x1 PUSH1 0x1 PUSH1 0xA0 SHL SUB DUP3 DUP2 AND PUSH1 0x0 DUP2 DUP2 MSTORE PUSH1 0x3 PUSH1 0x20 MSTORE PUSH1 0x40 DUP1 DUP3 KECCAK256 DUP1 SLOAD DUP7 DUP7 AND DUP1 DUP6 MSTORE SWAP4 DUP4 SWAP1 KECCAK256 DUP1 SLOAD SWAP2 DUP8 AND PUSH1 0x1 PUSH1 0x1 PUSH1 0xA0 SHL SUB NOT SWAP3 DUP4 AND OR DUP2 SSTORE DUP3 SLOAD SWAP1 SWAP2 AND SWAP1 SWAP2 SSTORE SLOAD SWAP1 MLOAD SWAP2 SWAP4 PUSH32 0xCEF7897A03E601F3FF31E759532EAC1DA82EEBD7E6F0F8FDE0787E934E53CBD1 SWAP3 PUSH2 0x44B SWAP3 SWAP1 SWAP2 AND SWAP1 PUSH2 0xAB4 JUMP JUMPDEST PUSH1 0x40 MLOAD DUP1 SWAP2 SUB SWAP1 LOG3 POP POP JUMP JUMPDEST PUSH2 0x47D PUSH1 0x40 MLOAD DUP1 PUSH1 0x40 ADD PUSH1 0x40 MSTORE DUP1 PUSH1 0x5 DUP2 MSTORE PUSH1 0x20 ADD PUSH5 0x30B236B4B7 PUSH1 0xD9 SHL DUP2 MSTORE POP PUSH2 0x6AB JUMP JUMPDEST PUSH1 0x1 PUSH1 0x1 PUSH1 0xA0 SHL SUB AND CALLER PUSH1 0x1 PUSH1 0x1 PUSH1 0xA0 SHL SUB AND EQ DUP1 PUSH2 0x4D2 JUMPI POP PUSH2 0x4BD PUSH1 0x40 MLOAD DUP1 PUSH1 0x40 ADD PUSH1 0x40 MSTORE DUP1 PUSH1 0x5 DUP2 MSTORE PUSH1 0x20 ADD PUSH5 0x37BBB732B9 PUSH1 0xD9 SHL DUP2 MSTORE POP PUSH2 0x6AB JUMP JUMPDEST PUSH1 0x1 PUSH1 0x1 PUSH1 0xA0 SHL SUB AND CALLER PUSH1 0x1 PUSH1 0x1 PUSH1 0xA0 SHL SUB AND EQ JUMPDEST PUSH2 0x4EE JUMPI PUSH1 0x40 MLOAD PUSH3 0x461BCD PUSH1 0xE5 SHL DUP2 MSTORE PUSH1 0x4 ADD PUSH2 0x2D1 SWAP1 PUSH2 0xB47 JUMP JUMPDEST PUSH1 0x1 PUSH1 0x1 PUSH1 0xA0 SHL SUB DUP2 AND PUSH1 0x0 SWAP1 DUP2 MSTORE PUSH1 0x2 PUSH1 0x20 MSTORE PUSH1 0x40 SWAP1 DUP2 SWAP1 KECCAK256 DUP1 SLOAD PUSH1 0xFF NOT AND PUSH1 0x1 OR SWAP1 SSTORE MLOAD PUSH32 0x68F5CDFC79250AC339A21F2DD385AAC4592B8F39C5A873771B402366E81140DB SWAP1 PUSH2 0x32F SWAP1 DUP4 SWAP1 PUSH2 0xAB4 JUMP JUMPDEST PUSH1 0x0 PUSH2 0x54C CALLER PUSH2 0x7F8 JUMP JUMPDEST SWAP1 POP SWAP1 JUMP JUMPDEST PUSH2 0x577 PUSH1 0x40 MLOAD DUP1 PUSH1 0x40 ADD PUSH1 0x40 MSTORE DUP1 PUSH1 0x5 DUP2 MSTORE PUSH1 0x20 ADD PUSH5 0x30B236B4B7 PUSH1 0xD9 SHL DUP2 MSTORE POP PUSH2 0x6AB JUMP JUMPDEST PUSH1 0x1 PUSH1 0x1 PUSH1 0xA0 SHL SUB AND CALLER PUSH1 0x1 PUSH1 0x1 PUSH1 0xA0 SHL SUB AND EQ DUP1 PUSH2 0x5CC JUMPI POP PUSH2 0x5B7 PUSH1 0x40 MLOAD DUP1 PUSH1 0x40 ADD PUSH1 0x40 MSTORE DUP1 PUSH1 0x5 DUP2 MSTORE PUSH1 0x20 ADD PUSH5 0x37BBB732B9 PUSH1 0xD9 SHL DUP2 MSTORE POP PUSH2 0x6AB JUMP JUMPDEST PUSH1 0x1 PUSH1 0x1 PUSH1 0xA0 SHL SUB AND CALLER PUSH1 0x1 PUSH1 0x1 PUSH1 0xA0 SHL SUB AND EQ JUMPDEST PUSH2 0x5E8 JUMPI PUSH1 0x40 MLOAD PUSH3 0x461BCD PUSH1 0xE5 SHL DUP2 MSTORE PUSH1 0x4 ADD PUSH2 0x2D1 SWAP1 PUSH2 0xB47 JUMP JUMPDEST DUP1 PUSH1 0x0 DUP1 DUP5 PUSH1 0x40 MLOAD PUSH1 0x20 ADD PUSH2 0x5FD SWAP2 SWAP1 PUSH2 0xA98 JUMP JUMPDEST PUSH1 0x40 MLOAD PUSH1 0x20 DUP2 DUP4 SUB SUB DUP2 MSTORE SWAP1 PUSH1 0x40 MSTORE DUP1 MLOAD SWAP1 PUSH1 0x20 ADD KECCAK256 DUP2 MSTORE PUSH1 0x20 ADD SWAP1 DUP2 MSTORE PUSH1 0x20 ADD PUSH1 0x0 KECCAK256 PUSH1 0x0 PUSH2 0x100 EXP DUP2 SLOAD DUP2 PUSH1 0x1 PUSH1 0x1 PUSH1 0xA0 SHL SUB MUL NOT AND SWAP1 DUP4 PUSH1 0x1 PUSH1 0x1 PUSH1 0xA0 SHL SUB AND MUL OR SWAP1 SSTORE POP PUSH32 0xFC0A6A253A16CECF0B9DAE14DA9B82F5B9B4FCBD38BCAC78349D9FDED55D383D DUP3 DUP3 PUSH1 0x40 MLOAD PUSH2 0x676 SWAP3 SWAP2 SWAP1 PUSH2 0xAD3 JUMP JUMPDEST PUSH1 0x40 MLOAD DUP1 SWAP2 SUB SWAP1 LOG1 POP POP JUMP JUMPDEST PUSH1 0x1 PUSH1 0x1 PUSH1 0xA0 SHL SUB DUP2 AND PUSH1 0x0 SWAP1 DUP2 MSTORE PUSH1 0x1 PUSH1 0x20 MSTORE PUSH1 0x40 DUP2 KECCAK256 SLOAD PUSH1 0xFF AND ISZERO PUSH2 0x231 JUMPI POP PUSH1 0x1 PUSH2 0x235 JUMP JUMPDEST PUSH1 0x0 DUP1 PUSH1 0x0 DUP4 PUSH1 0x40 MLOAD PUSH1 0x20 ADD PUSH2 0x6C1 SWAP2 SWAP1 PUSH2 0xA98 JUMP JUMPDEST PUSH1 0x40 DUP1 MLOAD DUP1 DUP4 SUB PUSH1 0x1F NOT ADD DUP2 MSTORE SWAP2 DUP2 MSTORE DUP2 MLOAD PUSH1 0x20 SWAP3 DUP4 ADD KECCAK256 DUP4 MSTORE SWAP1 DUP3 ADD SWAP3 SWAP1 SWAP3 MSTORE ADD PUSH1 0x0 KECCAK256 SLOAD PUSH1 0x1 PUSH1 0x1 PUSH1 0xA0 SHL SUB AND SWAP3 SWAP2 POP POP JUMP JUMPDEST PUSH1 0x3 PUSH1 0x20 MSTORE PUSH1 0x0 SWAP1 DUP2 MSTORE PUSH1 0x40 SWAP1 KECCAK256 SLOAD PUSH1 0x1 PUSH1 0x1 PUSH1 0xA0 SHL SUB AND DUP2 JUMP JUMPDEST PUSH2 0x737 PUSH1 0x40 MLOAD DUP1 PUSH1 0x40 ADD PUSH1 0x40 MSTORE DUP1 PUSH1 0x5 DUP2 MSTORE PUSH1 0x20 ADD PUSH5 0x30B236B4B7 PUSH1 0xD9 SHL DUP2 MSTORE POP PUSH2 0x6AB JUMP JUMPDEST PUSH1 0x1 PUSH1 0x1 PUSH1 0xA0 SHL SUB AND CALLER PUSH1 0x1 PUSH1 0x1 PUSH1 0xA0 SHL SUB AND EQ DUP1 PUSH2 0x78C JUMPI POP PUSH2 0x777 PUSH1 0x40 MLOAD DUP1 PUSH1 0x40 ADD PUSH1 0x40 MSTORE DUP1 PUSH1 0x5 DUP2 MSTORE PUSH1 0x20 ADD PUSH5 0x37BBB732B9 PUSH1 0xD9 SHL DUP2 MSTORE POP PUSH2 0x6AB JUMP JUMPDEST PUSH1 0x1 PUSH1 0x1 PUSH1 0xA0 SHL SUB AND CALLER PUSH1 0x1 PUSH1 0x1 PUSH1 0xA0 SHL SUB AND EQ JUMPDEST PUSH2 0x7A8 JUMPI PUSH1 0x40 MLOAD PUSH3 0x461BCD PUSH1 0xE5 SHL DUP2 MSTORE PUSH1 0x4 ADD PUSH2 0x2D1 SWAP1 PUSH2 0xB47 JUMP JUMPDEST PUSH1 0x1 PUSH1 0x1 PUSH1 0xA0 SHL SUB DUP2 AND PUSH1 0x0 SWAP1 DUP2 MSTORE PUSH1 0x2 PUSH1 0x20 MSTORE PUSH1 0x40 SWAP1 DUP2 SWAP1 KECCAK256 DUP1 SLOAD PUSH1 0xFF NOT AND SWAP1 SSTORE MLOAD PUSH32 0x51E737AAD5B0A2EE32C37AE8C06B9F89E99D26CC52BA5BDCB0E006983F1A5607 SWAP1 PUSH2 0x32F SWAP1 DUP4 SWAP1 PUSH2 0xAB4 JUMP JUMPDEST PUSH1 0x1 PUSH1 0x1 PUSH1 0xA0 SHL SUB DUP2 DUP2 AND PUSH1 0x0 SWAP1 DUP2 MSTORE PUSH1 0x3 PUSH1 0x20 MSTORE PUSH1 0x40 DUP2 KECCAK256 SLOAD SWAP1 SWAP2 AND ISZERO PUSH2 0x832 JUMPI PUSH1 0x40 MLOAD PUSH3 0x461BCD PUSH1 0xE5 SHL DUP2 MSTORE PUSH1 0x4 ADD PUSH2 0x2D1 SWAP1 PUSH2 0xB72 JUMP JUMPDEST PUSH1 0x40 MLOAD PUSH2 0x83E SWAP1 PUSH2 0x92E JUMP JUMPDEST PUSH1 0x40 MLOAD DUP1 SWAP2 SUB SWAP1 PUSH1 0x0 CREATE DUP1 ISZERO DUP1 ISZERO PUSH2 0x85A JUMPI RETURNDATASIZE PUSH1 0x0 DUP1 RETURNDATACOPY RETURNDATASIZE PUSH1 0x0 REVERT JUMPDEST POP ADDRESS PUSH1 0x0 SWAP1 DUP2 MSTORE PUSH1 0x3 PUSH1 0x20 MSTORE PUSH1 0x40 SWAP1 DUP2 SWAP1 KECCAK256 DUP1 SLOAD PUSH1 0x1 PUSH1 0x1 PUSH1 0xA0 SHL SUB NOT AND PUSH1 0x1 PUSH1 0x1 PUSH1 0xA0 SHL SUB DUP5 AND SWAP1 DUP2 OR SWAP1 SWAP2 SSTORE SWAP1 MLOAD PUSH4 0x13AF4035 PUSH1 0xE0 SHL DUP2 MSTORE SWAP2 SWAP3 POP SWAP1 PUSH4 0x13AF4035 SWAP1 PUSH2 0x8AC SWAP1 DUP6 SWAP1 PUSH1 0x4 ADD PUSH2 0xAB4 JUMP JUMPDEST PUSH1 0x0 PUSH1 0x40 MLOAD DUP1 DUP4 SUB DUP2 PUSH1 0x0 DUP8 DUP1 EXTCODESIZE ISZERO DUP1 ISZERO PUSH2 0x8C6 JUMPI PUSH1 0x0 DUP1 REVERT JUMPDEST POP GAS CALL ISZERO DUP1 ISZERO PUSH2 0x8DA JUMPI RETURNDATASIZE PUSH1 0x0 DUP1 RETURNDATACOPY RETURNDATASIZE PUSH1 0x0 REVERT JUMPDEST POP POP POP POP DUP2 PUSH1 0x1 PUSH1 0x1 PUSH1 0xA0 SHL SUB AND CALLER PUSH1 0x1 PUSH1 0x1 PUSH1 0xA0 SHL SUB AND PUSH32 0x454B0172F64812DF0CD504C2BD7DF7AAB8FF328A54D946B4BD0FA7C527ADF9CC DUP4 PUSH1 0x40 MLOAD PUSH2 0x921 SWAP2 SWAP1 PUSH2 0xAB4 JUMP JUMPDEST PUSH1 0x40 MLOAD DUP1 SWAP2 SUB SWAP1 LOG3 SWAP2 SWAP1 POP JUMP JUMPDEST PUSH2 0xB6A DUP1 PUSH2 0xBE6 DUP4 CODECOPY ADD SWAP1 JUMP JUMPDEST DUP1 CALLDATALOAD PUSH1 0x1 PUSH1 0x1 PUSH1 0xA0 SHL SUB DUP2 AND DUP2 EQ PUSH2 0x235 JUMPI PUSH1 0x0 DUP1 REVERT JUMPDEST PUSH1 0x0 DUP3 PUSH1 0x1F DUP4 ADD SLT PUSH2 0x962 JUMPI DUP1 DUP2 REVERT JUMPDEST DUP2 CALLDATALOAD PUSH8 0xFFFFFFFFFFFFFFFF DUP1 DUP3 GT ISZERO PUSH2 0x977 JUMPI INVALID JUMPDEST PUSH1 0x40 MLOAD PUSH1 0x1F DUP4 ADD PUSH1 0x1F NOT AND DUP2 ADD PUSH1 0x20 ADD DUP3 DUP2 GT DUP3 DUP3 LT OR ISZERO PUSH2 0x995 JUMPI INVALID JUMPDEST PUSH1 0x40 MSTORE DUP3 DUP2 MSTORE DUP5 DUP4 ADD PUSH1 0x20 ADD DUP7 LT ISZERO PUSH2 0x9AC JUMPI DUP4 DUP5 REVERT JUMPDEST DUP3 PUSH1 0x20 DUP7 ADD PUSH1 0x20 DUP4 ADD CALLDATACOPY SWAP2 DUP3 ADD PUSH1 0x20 ADD SWAP3 SWAP1 SWAP3 MSTORE SWAP4 SWAP3 POP POP POP JUMP JUMPDEST PUSH1 0x0 PUSH1 0x20 DUP3 DUP5 SUB SLT ISZERO PUSH2 0x9D8 JUMPI DUP1 DUP2 REVERT JUMPDEST PUSH2 0x9E1 DUP3 PUSH2 0x93B JUMP JUMPDEST SWAP4 SWAP3 POP POP POP JUMP JUMPDEST PUSH1 0x0 DUP1 PUSH1 0x40 DUP4 DUP6 SUB SLT ISZERO PUSH2 0x9FA JUMPI DUP1 DUP2 REVERT JUMPDEST PUSH2 0xA03 DUP4 PUSH2 0x93B JUMP JUMPDEST SWAP2 POP PUSH2 0xA11 PUSH1 0x20 DUP5 ADD PUSH2 0x93B JUMP JUMPDEST SWAP1 POP SWAP3 POP SWAP3 SWAP1 POP JUMP JUMPDEST PUSH1 0x0 PUSH1 0x20 DUP3 DUP5 SUB SLT ISZERO PUSH2 0xA2B JUMPI DUP1 DUP2 REVERT JUMPDEST DUP2 CALLDATALOAD PUSH8 0xFFFFFFFFFFFFFFFF DUP2 GT ISZERO PUSH2 0xA41 JUMPI DUP2 DUP3 REVERT JUMPDEST PUSH2 0xA4D DUP5 DUP3 DUP6 ADD PUSH2 0x952 JUMP JUMPDEST SWAP5 SWAP4 POP POP POP POP JUMP JUMPDEST PUSH1 0x0 DUP1 PUSH1 0x40 DUP4 DUP6 SUB SLT ISZERO PUSH2 0xA67 JUMPI DUP2 DUP3 REVERT JUMPDEST DUP3 CALLDATALOAD PUSH8 0xFFFFFFFFFFFFFFFF DUP2 GT ISZERO PUSH2 0xA7D JUMPI DUP3 DUP4 REVERT JUMPDEST PUSH2 0xA89 DUP6 DUP3 DUP7 ADD PUSH2 0x952 JUMP JUMPDEST SWAP3 POP POP PUSH2 0xA11 PUSH1 0x20 DUP5 ADD PUSH2 0x93B JUMP JUMPDEST PUSH1 0x0 DUP3 MLOAD PUSH2 0xAAA DUP2 DUP5 PUSH1 0x20 DUP8 ADD PUSH2 0xBB5 JUMP JUMPDEST SWAP2 SWAP1 SWAP2 ADD SWAP3 SWAP2 POP POP JUMP JUMPDEST PUSH1 0x1 PUSH1 0x1 PUSH1 0xA0 SHL SUB SWAP2 SWAP1 SWAP2 AND DUP2 MSTORE PUSH1 0x20 ADD SWAP1 JUMP JUMPDEST SWAP1 ISZERO ISZERO DUP2 MSTORE PUSH1 0x20 ADD SWAP1 JUMP JUMPDEST PUSH1 0x0 PUSH1 0x40 DUP3 MSTORE DUP4 MLOAD DUP1 PUSH1 0x40 DUP5 ADD MSTORE PUSH2 0xAF2 DUP2 PUSH1 0x60 DUP6 ADD PUSH1 0x20 DUP9 ADD PUSH2 0xBB5 JUMP JUMPDEST PUSH1 0x1 PUSH1 0x1 PUSH1 0xA0 SHL SUB SWAP4 SWAP1 SWAP4 AND PUSH1 0x20 DUP4 ADD MSTORE POP PUSH1 0x1F SWAP2 SWAP1 SWAP2 ADD PUSH1 0x1F NOT AND ADD PUSH1 0x60 ADD SWAP2 SWAP1 POP JUMP JUMPDEST PUSH1 0x20 DUP1 DUP3 MSTORE PUSH1 0x16 SWAP1 DUP3 ADD MSTORE PUSH22 0x34B73B30B634B216B83937BC3C96B7B916B7BBB732B9 PUSH1 0x51 SHL PUSH1 0x40 DUP3 ADD MSTORE PUSH1 0x60 ADD SWAP1 JUMP JUMPDEST PUSH1 0x20 DUP1 DUP3 MSTORE PUSH1 0x11 SWAP1 DUP3 ADD MSTORE PUSH17 0x1C195C9B5A5CDCDA5BDB8B59195B9A5959 PUSH1 0x7A SHL PUSH1 0x40 DUP3 ADD MSTORE PUSH1 0x60 ADD SWAP1 JUMP JUMPDEST PUSH1 0x20 DUP1 DUP3 MSTORE PUSH1 0x23 SWAP1 DUP3 ADD MSTORE PUSH32 0x6D756C7469706C652D70726F78792D7065722D757365722D6E6F742D616C6C6F PUSH1 0x40 DUP3 ADD MSTORE PUSH3 0x1DD959 PUSH1 0xEA SHL PUSH1 0x60 DUP3 ADD MSTORE PUSH1 0x80 ADD SWAP1 JUMP JUMPDEST PUSH1 0x0 JUMPDEST DUP4 DUP2 LT ISZERO PUSH2 0xBD0 JUMPI DUP2 DUP2 ADD MLOAD DUP4 DUP3 ADD MSTORE PUSH1 0x20 ADD PUSH2 0xBB8 JUMP JUMPDEST DUP4 DUP2 GT ISZERO PUSH2 0xBDF JUMPI PUSH1 0x0 DUP5 DUP5 ADD MSTORE JUMPDEST POP POP POP POP JUMP INVALID PUSH1 0x80 PUSH1 0x40 MSTORE CALLVALUE DUP1 ISZERO PUSH2 0x10 JUMPI PUSH1 0x0 DUP1 REVERT JUMPDEST POP PUSH1 0x0 DUP1 SLOAD CALLER PUSH1 0x1 PUSH1 0x1 PUSH1 0xA0 SHL SUB NOT SWAP2 DUP3 AND DUP2 OR DUP4 SSTORE PUSH1 0x1 DUP1 SLOAD SWAP1 SWAP3 AND OR SWAP1 SSTORE PUSH2 0xB2A SWAP1 DUP2 SWAP1 PUSH2 0x40 SWAP1 CODECOPY PUSH1 0x0 RETURN INVALID PUSH1 0x80 PUSH1 0x40 MSTORE PUSH1 0x4 CALLDATASIZE LT PUSH2 0x55 JUMPI PUSH1 0x0 CALLDATALOAD PUSH1 0xE0 SHR DUP1 PUSH4 0x13AF4035 EQ PUSH2 0x57 JUMPI DUP1 PUSH4 0x2520E7FF EQ PUSH2 0x77 JUMPI DUP1 PUSH4 0x7B103999 EQ PUSH2 0xAD JUMPI DUP1 PUSH4 0x8DA5CB5B EQ PUSH2 0xCF JUMPI DUP1 PUSH4 0xA731E2C2 EQ PUSH2 0xE4 JUMPI DUP1 PUSH4 0xF3541901 EQ PUSH2 0x104 JUMPI JUMPDEST STOP JUMPDEST CALLVALUE DUP1 ISZERO PUSH2 0x63 JUMPI PUSH1 0x0 DUP1 REVERT JUMPDEST POP PUSH2 0x55 PUSH2 0x72 CALLDATASIZE PUSH1 0x4 PUSH2 0x779 JUMP JUMPDEST PUSH2 0x124 JUMP JUMPDEST CALLVALUE DUP1 ISZERO PUSH2 0x83 JUMPI PUSH1 0x0 DUP1 REVERT JUMPDEST POP PUSH2 0x97 PUSH2 0x92 CALLDATASIZE PUSH1 0x4 PUSH2 0x779 JUMP JUMPDEST PUSH2 0x206 JUMP JUMPDEST PUSH1 0x40 MLOAD PUSH2 0xA4 SWAP2 SWAP1 PUSH2 0x9C7 JUMP JUMPDEST PUSH1 0x40 MLOAD DUP1 SWAP2 SUB SWAP1 RETURN JUMPDEST CALLVALUE DUP1 ISZERO PUSH2 0xB9 JUMPI PUSH1 0x0 DUP1 REVERT JUMPDEST POP PUSH2 0xC2 PUSH2 0x249 JUMP JUMPDEST PUSH1 0x40 MLOAD PUSH2 0xA4 SWAP2 SWAP1 PUSH2 0x918 JUMP JUMPDEST CALLVALUE DUP1 ISZERO PUSH2 0xDB JUMPI PUSH1 0x0 DUP1 REVERT JUMPDEST POP PUSH2 0xC2 PUSH2 0x258 JUMP JUMPDEST PUSH2 0xF7 PUSH2 0xF2 CALLDATASIZE PUSH1 0x4 PUSH2 0x7F6 JUMP JUMPDEST PUSH2 0x267 JUMP JUMPDEST PUSH1 0x40 MLOAD PUSH2 0xA4 SWAP2 SWAP1 PUSH2 0x967 JUMP JUMPDEST PUSH2 0x117 PUSH2 0x112 CALLDATASIZE PUSH1 0x4 PUSH2 0x79A JUMP JUMPDEST PUSH2 0x4AD JUMP JUMPDEST PUSH1 0x40 MLOAD PUSH2 0xA4 SWAP2 SWAP1 PUSH2 0xA0F JUMP JUMPDEST PUSH2 0x12D CALLER PUSH2 0x206 JUMP JUMPDEST PUSH2 0x152 JUMPI PUSH1 0x40 MLOAD PUSH3 0x461BCD PUSH1 0xE5 SHL DUP2 MSTORE PUSH1 0x4 ADD PUSH2 0x149 SWAP1 PUSH2 0xA50 JUMP JUMPDEST PUSH1 0x40 MLOAD DUP1 SWAP2 SUB SWAP1 REVERT JUMPDEST PUSH1 0x0 SLOAD PUSH1 0x1 SLOAD PUSH1 0x40 MLOAD PUSH4 0x1C81AEAB PUSH1 0xE1 SHL DUP2 MSTORE PUSH1 0x1 PUSH1 0x1 PUSH1 0xA0 SHL SUB SWAP3 DUP4 AND SWAP3 PUSH4 0x39035D56 SWAP3 PUSH2 0x188 SWAP3 SWAP2 AND SWAP1 DUP6 SWAP1 PUSH1 0x4 ADD PUSH2 0x92C JUMP JUMPDEST PUSH1 0x0 PUSH1 0x40 MLOAD DUP1 DUP4 SUB DUP2 PUSH1 0x0 DUP8 DUP1 EXTCODESIZE ISZERO DUP1 ISZERO PUSH2 0x1A2 JUMPI PUSH1 0x0 DUP1 REVERT JUMPDEST POP GAS CALL ISZERO DUP1 ISZERO PUSH2 0x1B6 JUMPI RETURNDATASIZE PUSH1 0x0 DUP1 RETURNDATACOPY RETURNDATASIZE PUSH1 0x0 REVERT JUMPDEST POP POP PUSH1 0x1 DUP1 SLOAD PUSH1 0x1 PUSH1 0x1 PUSH1 0xA0 SHL SUB NOT AND PUSH1 0x1 PUSH1 0x1 PUSH1 0xA0 SHL SUB DUP6 AND SWAP1 DUP2 OR SWAP1 SWAP2 SSTORE PUSH1 0x40 MLOAD SWAP1 SWAP3 POP PUSH32 0xCE241D7CA1F669FEE44B6FC00B8EBA2DF3BB514EED0F6F668F8F89096E81ED94 SWAP2 POP PUSH1 0x0 SWAP1 LOG2 POP JUMP JUMPDEST PUSH1 0x1 SLOAD PUSH1 0x0 SWAP1 PUSH1 0x1 PUSH1 0x1 PUSH1 0xA0 SHL SUB DUP4 DUP2 AND SWAP2 AND EQ ISZERO PUSH2 0x227 JUMPI POP PUSH1 0x1 PUSH2 0x244 JUMP JUMPDEST PUSH1 0x1 PUSH1 0x1 PUSH1 0xA0 SHL SUB DUP3 AND ADDRESS EQ ISZERO PUSH2 0x240 JUMPI POP PUSH1 0x1 PUSH2 0x244 JUMP JUMPDEST POP PUSH1 0x0 JUMPDEST SWAP2 SWAP1 POP JUMP JUMPDEST PUSH1 0x0 SLOAD PUSH1 0x1 PUSH1 0x1 PUSH1 0xA0 SHL SUB AND DUP2 JUMP JUMPDEST PUSH1 0x1 SLOAD PUSH1 0x1 PUSH1 0x1 PUSH1 0xA0 SHL SUB AND DUP2 JUMP JUMPDEST PUSH1 0x40 MLOAD PUSH1 0x60 SWAP1 PUSH1 0x4 CALLDATALOAD SWAP1 PUSH1 0x24 CALLDATALOAD SWAP1 DUP3 SWAP1 CALLER SWAP1 PUSH1 0x0 DUP1 CALLDATALOAD PUSH1 0x1 PUSH1 0x1 PUSH1 0xE0 SHL SUB NOT AND SWAP2 PUSH32 0x644843F351D3FBA4ABCD60109EAFF9F54BAC8FB8CCF0BAB941009C21DF21CF31 SWAP2 PUSH2 0x2B9 SWAP2 DUP8 SWAP2 CALLVALUE SWAP2 CALLDATASIZE SWAP1 PUSH2 0x9D2 JUMP JUMPDEST PUSH1 0x40 MLOAD DUP1 SWAP2 SUB SWAP1 LOG4 PUSH2 0x2CA CALLER PUSH2 0x206 JUMP JUMPDEST PUSH2 0x2E6 JUMPI PUSH1 0x40 MLOAD PUSH3 0x461BCD PUSH1 0xE5 SHL DUP2 MSTORE PUSH1 0x4 ADD PUSH2 0x149 SWAP1 PUSH2 0xA50 JUMP JUMPDEST DUP7 PUSH1 0x0 JUMPDEST DUP2 MLOAD DUP2 LT ISZERO PUSH2 0x3F4 JUMPI PUSH1 0x0 PUSH1 0x1 PUSH1 0x1 PUSH1 0xA0 SHL SUB AND DUP3 DUP3 DUP2 MLOAD DUP2 LT PUSH2 0x30A JUMPI INVALID JUMPDEST PUSH1 0x20 MUL PUSH1 0x20 ADD ADD MLOAD PUSH1 0x1 PUSH1 0x1 PUSH1 0xA0 SHL SUB AND EQ ISZERO PUSH2 0x339 JUMPI PUSH1 0x40 MLOAD PUSH3 0x461BCD PUSH1 0xE5 SHL DUP2 MSTORE PUSH1 0x4 ADD PUSH2 0x149 SWAP1 PUSH2 0xA7B JUMP JUMPDEST PUSH1 0x0 SLOAD DUP3 MLOAD PUSH1 0x1 PUSH1 0x1 PUSH1 0xA0 SHL SUB SWAP1 SWAP2 AND SWAP1 PUSH4 0x11390441 SWAP1 DUP5 SWAP1 DUP5 SWAP1 DUP2 LT PUSH2 0x35C JUMPI INVALID JUMPDEST PUSH1 0x20 MUL PUSH1 0x20 ADD ADD MLOAD PUSH1 0x40 MLOAD DUP3 PUSH4 0xFFFFFFFF AND PUSH1 0xE0 SHL DUP2 MSTORE PUSH1 0x4 ADD PUSH2 0x380 SWAP2 SWAP1 PUSH2 0x918 JUMP JUMPDEST PUSH1 0x20 PUSH1 0x40 MLOAD DUP1 DUP4 SUB DUP2 DUP7 DUP1 EXTCODESIZE ISZERO DUP1 ISZERO PUSH2 0x398 JUMPI PUSH1 0x0 DUP1 REVERT JUMPDEST POP GAS STATICCALL ISZERO DUP1 ISZERO PUSH2 0x3AC JUMPI RETURNDATASIZE PUSH1 0x0 DUP1 RETURNDATACOPY RETURNDATASIZE PUSH1 0x0 REVERT JUMPDEST POP POP POP POP PUSH1 0x40 MLOAD RETURNDATASIZE PUSH1 0x1F NOT PUSH1 0x1F DUP3 ADD AND DUP3 ADD DUP1 PUSH1 0x40 MSTORE POP DUP2 ADD SWAP1 PUSH2 0x3D0 SWAP2 SWAP1 PUSH2 0x8AD JUMP JUMPDEST PUSH2 0x3EC JUMPI PUSH1 0x40 MLOAD PUSH3 0x461BCD PUSH1 0xE5 SHL DUP2 MSTORE PUSH1 0x4 ADD PUSH2 0x149 SWAP1 PUSH2 0xA22 JUMP JUMPDEST PUSH1 0x1 ADD PUSH2 0x2EA JUMP JUMPDEST POP DUP8 MLOAD PUSH8 0xFFFFFFFFFFFFFFFF DUP2 GT DUP1 ISZERO PUSH2 0x40D JUMPI PUSH1 0x0 DUP1 REVERT JUMPDEST POP PUSH1 0x40 MLOAD SWAP1 DUP1 DUP3 MSTORE DUP1 PUSH1 0x20 MUL PUSH1 0x20 ADD DUP3 ADD PUSH1 0x40 MSTORE DUP1 ISZERO PUSH2 0x441 JUMPI DUP2 PUSH1 0x20 ADD JUMPDEST PUSH1 0x60 DUP2 MSTORE PUSH1 0x20 ADD SWAP1 PUSH1 0x1 SWAP1 SUB SWAP1 DUP2 PUSH2 0x42C JUMPI SWAP1 POP JUMPDEST POP SWAP4 POP PUSH1 0x0 JUMPDEST DUP9 MLOAD DUP2 LT ISZERO PUSH2 0x4A1 JUMPI PUSH2 0x482 DUP10 DUP3 DUP2 MLOAD DUP2 LT PUSH2 0x45F JUMPI INVALID JUMPDEST PUSH1 0x20 MUL PUSH1 0x20 ADD ADD MLOAD DUP10 DUP4 DUP2 MLOAD DUP2 LT PUSH2 0x473 JUMPI INVALID JUMPDEST PUSH1 0x20 MUL PUSH1 0x20 ADD ADD MLOAD DUP10 DUP10 PUSH2 0x607 JUMP JUMPDEST DUP6 DUP3 DUP2 MLOAD DUP2 LT PUSH2 0x48E JUMPI INVALID JUMPDEST PUSH1 0x20 SWAP1 DUP2 MUL SWAP2 SWAP1 SWAP2 ADD ADD MSTORE PUSH1 0x1 ADD PUSH2 0x447 JUMP JUMPDEST POP POP POP POP SWAP5 SWAP4 POP POP POP POP JUMP JUMPDEST PUSH1 0x40 MLOAD PUSH1 0x60 SWAP1 PUSH1 0x4 CALLDATALOAD SWAP1 PUSH1 0x24 CALLDATALOAD SWAP1 DUP3 SWAP1 CALLER SWAP1 PUSH1 0x0 DUP1 CALLDATALOAD PUSH1 0x1 PUSH1 0x1 PUSH1 0xE0 SHL SUB NOT AND SWAP2 PUSH32 0x644843F351D3FBA4ABCD60109EAFF9F54BAC8FB8CCF0BAB941009C21DF21CF31 SWAP2 PUSH2 0x4FF SWAP2 DUP8 SWAP2 CALLVALUE SWAP2 CALLDATASIZE SWAP1 PUSH2 0x9D2 JUMP JUMPDEST PUSH1 0x40 MLOAD DUP1 SWAP2 SUB SWAP1 LOG4 PUSH2 0x510 CALLER PUSH2 0x206 JUMP JUMPDEST PUSH2 0x52C JUMPI PUSH1 0x40 MLOAD PUSH3 0x461BCD PUSH1 0xE5 SHL DUP2 MSTORE PUSH1 0x4 ADD PUSH2 0x149 SWAP1 PUSH2 0xA50 JUMP JUMPDEST DUP7 PUSH1 0x1 PUSH1 0x1 PUSH1 0xA0 SHL SUB DUP2 AND PUSH2 0x553 JUMPI PUSH1 0x40 MLOAD PUSH3 0x461BCD PUSH1 0xE5 SHL DUP2 MSTORE PUSH1 0x4 ADD PUSH2 0x149 SWAP1 PUSH2 0xA7B JUMP JUMPDEST PUSH1 0x0 SLOAD PUSH1 0x40 MLOAD PUSH4 0x11390441 PUSH1 0xE0 SHL DUP2 MSTORE PUSH1 0x1 PUSH1 0x1 PUSH1 0xA0 SHL SUB SWAP1 SWAP2 AND SWAP1 PUSH4 0x11390441 SWAP1 PUSH2 0x583 SWAP1 DUP5 SWAP1 PUSH1 0x4 ADD PUSH2 0x918 JUMP JUMPDEST PUSH1 0x20 PUSH1 0x40 MLOAD DUP1 DUP4 SUB DUP2 DUP7 DUP1 EXTCODESIZE ISZERO DUP1 ISZERO PUSH2 0x59B JUMPI PUSH1 0x0 DUP1 REVERT JUMPDEST POP GAS STATICCALL ISZERO DUP1 ISZERO PUSH2 0x5AF JUMPI RETURNDATASIZE PUSH1 0x0 DUP1 RETURNDATACOPY RETURNDATASIZE PUSH1 0x0 REVERT JUMPDEST POP POP POP POP PUSH1 0x40 MLOAD RETURNDATASIZE PUSH1 0x1F NOT PUSH1 0x1F DUP3 ADD AND DUP3 ADD DUP1 PUSH1 0x40 MSTORE POP DUP2 ADD SWAP1 PUSH2 0x5D3 SWAP2 SWAP1 PUSH2 0x8AD JUMP JUMPDEST PUSH2 0x5EF JUMPI PUSH1 0x40 MLOAD PUSH3 0x461BCD PUSH1 0xE5 SHL DUP2 MSTORE PUSH1 0x4 ADD PUSH2 0x149 SWAP1 PUSH2 0xA22 JUMP JUMPDEST PUSH2 0x5FB DUP9 DUP9 DUP9 DUP9 PUSH2 0x607 JUMP JUMPDEST SWAP9 SWAP8 POP POP POP POP POP POP POP POP JUMP JUMPDEST PUSH1 0x60 PUSH32 0xBD37415AAF130F9A169D66BC22D669B6A5AA55F384E7B41D105714EB8277B341 DUP6 DUP5 DUP5 PUSH1 0x40 MLOAD PUSH2 0x63C SWAP4 SWAP3 SWAP2 SWAP1 PUSH2 0x946 JUMP JUMPDEST PUSH1 0x40 MLOAD DUP1 SWAP2 SUB SWAP1 LOG1 PUSH1 0x0 DUP1 DUP6 MLOAD PUSH1 0x20 DUP8 ADD DUP9 PUSH2 0x1388 GAS SUB DELEGATECALL RETURNDATASIZE PUSH1 0x40 MLOAD SWAP3 POP PUSH1 0x1F NOT PUSH1 0x1F PUSH1 0x20 DUP4 ADD ADD AND DUP4 ADD PUSH1 0x40 MSTORE DUP1 DUP4 MSTORE DUP1 PUSH1 0x0 PUSH1 0x20 DUP6 ADD RETURNDATACOPY DUP2 ISZERO PUSH1 0x1 DUP2 EQ PUSH2 0x684 JUMPI PUSH2 0x68B JUMP JUMPDEST DUP2 PUSH1 0x20 DUP6 ADD REVERT JUMPDEST POP POP POP SWAP5 SWAP4 POP POP POP POP JUMP JUMPDEST DUP1 CALLDATALOAD PUSH1 0x1 PUSH1 0x1 PUSH1 0xA0 SHL SUB DUP2 AND DUP2 EQ PUSH2 0x244 JUMPI PUSH1 0x0 DUP1 REVERT JUMPDEST PUSH1 0x0 DUP3 PUSH1 0x1F DUP4 ADD SLT PUSH2 0x6BD JUMPI DUP1 DUP2 REVERT JUMPDEST DUP2 CALLDATALOAD PUSH1 0x20 PUSH2 0x6D2 PUSH2 0x6CD DUP4 PUSH2 0xAD6 JUMP JUMPDEST PUSH2 0xAB2 JUMP JUMPDEST DUP3 DUP2 MSTORE DUP2 DUP2 ADD SWAP1 DUP6 DUP4 ADD DUP6 JUMPDEST DUP6 DUP2 LT ISZERO PUSH2 0x707 JUMPI PUSH2 0x6F5 DUP10 DUP7 DUP5 CALLDATALOAD DUP12 ADD ADD PUSH2 0x714 JUMP JUMPDEST DUP5 MSTORE SWAP3 DUP5 ADD SWAP3 SWAP1 DUP5 ADD SWAP1 PUSH1 0x1 ADD PUSH2 0x6DE JUMP JUMPDEST POP SWAP1 SWAP8 SWAP7 POP POP POP POP POP POP POP JUMP JUMPDEST PUSH1 0x0 DUP3 PUSH1 0x1F DUP4 ADD SLT PUSH2 0x724 JUMPI DUP1 DUP2 REVERT JUMPDEST DUP2 CALLDATALOAD PUSH8 0xFFFFFFFFFFFFFFFF DUP2 GT ISZERO PUSH2 0x738 JUMPI INVALID JUMPDEST PUSH2 0x74B PUSH1 0x1F DUP3 ADD PUSH1 0x1F NOT AND PUSH1 0x20 ADD PUSH2 0xAB2 JUMP JUMPDEST DUP2 DUP2 MSTORE DUP5 PUSH1 0x20 DUP4 DUP7 ADD ADD GT ISZERO PUSH2 0x75F JUMPI DUP3 DUP4 REVERT JUMPDEST DUP2 PUSH1 0x20 DUP6 ADD PUSH1 0x20 DUP4 ADD CALLDATACOPY SWAP1 DUP2 ADD PUSH1 0x20 ADD SWAP2 SWAP1 SWAP2 MSTORE SWAP3 SWAP2 POP POP JUMP JUMPDEST PUSH1 0x0 PUSH1 0x20 DUP3 DUP5 SUB SLT ISZERO PUSH2 0x78A JUMPI DUP1 DUP2 REVERT JUMPDEST PUSH2 0x793 DUP3 PUSH2 0x696 JUMP JUMPDEST SWAP4 SWAP3 POP POP POP JUMP JUMPDEST PUSH1 0x0 DUP1 PUSH1 0x0 DUP1 PUSH1 0x80 DUP6 DUP8 SUB SLT ISZERO PUSH2 0x7AF JUMPI DUP3 DUP4 REVERT JUMPDEST PUSH2 0x7B8 DUP6 PUSH2 0x696 JUMP JUMPDEST SWAP4 POP PUSH1 0x20 DUP6 ADD CALLDATALOAD PUSH8 0xFFFFFFFFFFFFFFFF DUP2 GT ISZERO PUSH2 0x7D3 JUMPI DUP4 DUP5 REVERT JUMPDEST PUSH2 0x7DF DUP8 DUP3 DUP9 ADD PUSH2 0x714 JUMP JUMPDEST SWAP5 SWAP8 SWAP5 SWAP7 POP POP POP POP PUSH1 0x40 DUP4 ADD CALLDATALOAD SWAP3 PUSH1 0x60 ADD CALLDATALOAD SWAP2 SWAP1 POP JUMP JUMPDEST PUSH1 0x0 DUP1 PUSH1 0x0 DUP1 PUSH1 0x80 DUP6 DUP8 SUB SLT ISZERO PUSH2 0x80B JUMPI DUP4 DUP5 REVERT JUMPDEST DUP5 CALLDATALOAD PUSH8 0xFFFFFFFFFFFFFFFF DUP1 DUP3 GT ISZERO PUSH2 0x822 JUMPI DUP6 DUP7 REVERT JUMPDEST DUP2 DUP8 ADD SWAP2 POP DUP8 PUSH1 0x1F DUP4 ADD SLT PUSH2 0x835 JUMPI DUP6 DUP7 REVERT JUMPDEST DUP2 CALLDATALOAD PUSH1 0x20 PUSH2 0x845 PUSH2 0x6CD DUP4 PUSH2 0xAD6 JUMP JUMPDEST DUP3 DUP2 MSTORE DUP2 DUP2 ADD SWAP1 DUP6 DUP4 ADD DUP4 DUP6 MUL DUP8 ADD DUP5 ADD DUP14 LT ISZERO PUSH2 0x861 JUMPI DUP11 DUP12 REVERT JUMPDEST DUP11 SWAP7 POP JUMPDEST DUP5 DUP8 LT ISZERO PUSH2 0x88A JUMPI PUSH2 0x876 DUP2 PUSH2 0x696 JUMP JUMPDEST DUP4 MSTORE PUSH1 0x1 SWAP7 SWAP1 SWAP7 ADD SWAP6 SWAP2 DUP4 ADD SWAP2 DUP4 ADD PUSH2 0x865 JUMP JUMPDEST POP SWAP9 POP POP DUP9 ADD CALLDATALOAD SWAP3 POP POP DUP1 DUP3 GT ISZERO PUSH2 0x8A0 JUMPI DUP5 DUP6 REVERT JUMPDEST POP PUSH2 0x7DF DUP8 DUP3 DUP9 ADD PUSH2 0x6AD JUMP JUMPDEST PUSH1 0x0 PUSH1 0x20 DUP3 DUP5 SUB SLT ISZERO PUSH2 0x8BE JUMPI DUP1 DUP2 REVERT JUMPDEST DUP2 MLOAD DUP1 ISZERO ISZERO DUP2 EQ PUSH2 0x793 JUMPI DUP2 DUP3 REVERT JUMPDEST PUSH1 0x0 DUP2 MLOAD DUP1 DUP5 MSTORE DUP2 JUMPDEST DUP2 DUP2 LT ISZERO PUSH2 0x8F2 JUMPI PUSH1 0x20 DUP2 DUP6 ADD DUP2 ADD MLOAD DUP7 DUP4 ADD DUP3 ADD MSTORE ADD PUSH2 0x8D6 JUMP JUMPDEST DUP2 DUP2 GT ISZERO PUSH2 0x903 JUMPI DUP3 PUSH1 0x20 DUP4 DUP8 ADD ADD MSTORE JUMPDEST POP PUSH1 0x1F ADD PUSH1 0x1F NOT AND SWAP3 SWAP1 SWAP3 ADD PUSH1 0x20 ADD SWAP3 SWAP2 POP POP JUMP JUMPDEST PUSH1 0x1 PUSH1 0x1 PUSH1 0xA0 SHL SUB SWAP2 SWAP1 SWAP2 AND DUP2 MSTORE PUSH1 0x20 ADD SWAP1 JUMP JUMPDEST PUSH1 0x1 PUSH1 0x1 PUSH1 0xA0 SHL SUB SWAP3 DUP4 AND DUP2 MSTORE SWAP2 AND PUSH1 0x20 DUP3 ADD MSTORE PUSH1 0x40 ADD SWAP1 JUMP JUMPDEST PUSH1 0x1 PUSH1 0x1 PUSH1 0xA0 SHL SUB SWAP4 SWAP1 SWAP4 AND DUP4 MSTORE PUSH1 0x20 DUP4 ADD SWAP2 SWAP1 SWAP2 MSTORE PUSH1 0x40 DUP3 ADD MSTORE PUSH1 0x60 ADD SWAP1 JUMP JUMPDEST PUSH1 0x0 PUSH1 0x20 DUP1 DUP4 ADD DUP2 DUP5 MSTORE DUP1 DUP6 MLOAD DUP1 DUP4 MSTORE PUSH1 0x40 DUP7 ADD SWAP2 POP PUSH1 0x40 DUP5 DUP3 MUL DUP8 ADD ADD SWAP3 POP DUP4 DUP8 ADD DUP6 JUMPDEST DUP3 DUP2 LT ISZERO PUSH2 0x9BA JUMPI PUSH1 0x3F NOT DUP9 DUP7 SUB ADD DUP5 MSTORE PUSH2 0x9A8 DUP6 DUP4 MLOAD PUSH2 0x8CD JUMP JUMPDEST SWAP5 POP SWAP3 DUP6 ADD SWAP3 SWAP1 DUP6 ADD SWAP1 PUSH1 0x1 ADD PUSH2 0x98C JUMP JUMPDEST POP SWAP3 SWAP8 SWAP7 POP POP POP POP POP POP POP JUMP JUMPDEST SWAP1 ISZERO ISZERO DUP2 MSTORE PUSH1 0x20 ADD SWAP1 JUMP JUMPDEST PUSH1 0x0 DUP6 DUP3 MSTORE DUP5 PUSH1 0x20 DUP4 ADD MSTORE PUSH1 0x60 PUSH1 0x40 DUP4 ADD MSTORE DUP3 PUSH1 0x60 DUP4 ADD MSTORE DUP3 DUP5 PUSH1 0x80 DUP5 ADD CALLDATACOPY DUP2 DUP4 ADD PUSH1 0x80 SWAP1 DUP2 ADD SWAP2 SWAP1 SWAP2 MSTORE PUSH1 0x1F SWAP1 SWAP3 ADD PUSH1 0x1F NOT AND ADD ADD SWAP4 SWAP3 POP POP POP JUMP JUMPDEST PUSH1 0x0 PUSH1 0x20 DUP3 MSTORE PUSH2 0x793 PUSH1 0x20 DUP4 ADD DUP5 PUSH2 0x8CD JUMP JUMPDEST PUSH1 0x20 DUP1 DUP3 MSTORE PUSH1 0x14 SWAP1 DUP3 ADD MSTORE PUSH20 0x1B1BD9DA58CB5B9BDD0B585D5D1A1BDC9A5CD959 PUSH1 0x62 SHL PUSH1 0x40 DUP3 ADD MSTORE PUSH1 0x60 ADD SWAP1 JUMP JUMPDEST PUSH1 0x20 DUP1 DUP3 MSTORE PUSH1 0x11 SWAP1 DUP3 ADD MSTORE PUSH17 0x1C195C9B5A5CDCDA5BDB8B59195B9A5959 PUSH1 0x7A SHL PUSH1 0x40 DUP3 ADD MSTORE PUSH1 0x60 ADD SWAP1 JUMP JUMPDEST PUSH1 0x20 DUP1 DUP3 MSTORE PUSH1 0x1C SWAP1 DUP3 ADD MSTORE PUSH32 0x6C6F6769632D70726F78792D616464726573732D726571756972656400000000 PUSH1 0x40 DUP3 ADD MSTORE PUSH1 0x60 ADD SWAP1 JUMP JUMPDEST PUSH1 0x40 MLOAD DUP2 DUP2 ADD PUSH8 0xFFFFFFFFFFFFFFFF DUP2 GT DUP3 DUP3 LT OR ISZERO PUSH2 0xACE JUMPI INVALID JUMPDEST PUSH1 0x40 MSTORE SWAP2 SWAP1 POP JUMP JUMPDEST PUSH1 0x0 PUSH8 0xFFFFFFFFFFFFFFFF DUP3 GT ISZERO PUSH2 0xAEA JUMPI INVALID JUMPDEST POP PUSH1 0x20 SWAP1 DUP2 MUL ADD SWAP1 JUMP INVALID LOG2 PUSH5 0x6970667358 0x22 SLT KECCAK256 0xC5 SWAP12 0xF7 PUSH2 0x4DFE 0xBC 0xB8 0xCC MLOAD 0xCA SWAP14 GT DUP9 0x23 0xCE 0xD7 DUP14 0x5C 0xC3 0xEE 0x26 0x22 MULMOD MUL SWAP10 PUSH3 0x8879C8 CALLDATASIZE 0x48 PUSH5 0x736F6C6343 STOP SMOD MOD STOP CALLER LOG2 PUSH5 0x6970667358 0x22 SLT KECCAK256 BALANCE COINBASE 0xB1 PUSH4 0x42536DC8 0xF9 PUSH17 0xD2498ADA6272378BDC27B98EEEB9C27895 0x5D 0xED PUSH22 0xED4664736F6C63430007060033000000000000000000 "
        },
        "methodIdentifiers": {
          "build()": "8e1a55fc",
          "build(address)": "f3701da2",
          "disableLogic(address)": "d93b4ee7",
          "enableLogic(address)": "5e2bd421",
          "enableStaticLogic(address)": "13f07317",
          "getAddress(string)": "bf40fac1",
          "logic(address)": "11390441",
          "logicProxies(address)": "15413ccf",
          "logicProxiesStatic(address)": "28e98537",
          "logicStatic(address)": "bbfdc3c4",
          "proxies(address)": "c4552791",
          "record(address,address)": "39035d56",
          "setAddress(string,address)": "9b2ea4bd"
        }
      }
    }
  }
}