{
  "_format": "hh-sol-artifact-1",
  "contractName": "AddressRegistry",
  "sourceName": "contracts/BitStakerRegistry.sol",
  "abi": [
    {
      "anonymous": false,
      "inputs": [
        {
          "indexed": false,
          "internalType": "string",
          "name": "name",
          "type": "string"
        },
        {
          "indexed": false,
          "internalType": "address",
          "name": "addr",
          "type": "address"
        }
      ],
      "name": "LogSetAddress",
      "type": "event"
    },
    {
      "inputs": [
        {
          "internalType": "string",
          "name": "_name",
          "type": "string"
        }
      ],
      "name": "getAddress",
      "outputs": [
        {
          "internalType": "address",
          "name": "",
          "type": "address"
        }
      ],
      "stateMutability": "view",
      "type": "function"
    },
    {
      "inputs": [
        {
          "internalType": "string",
          "name": "_name",
          "type": "string"
        },
        {
          "internalType": "address",
          "name": "_userAddress",
          "type": "address"
        }
      ],
      "name": "setAddress",
      "outputs": [],
      "stateMutability": "nonpayable",
      "type": "function"
    }
  ],
  "bytecode": "0x608060405234801561001057600080fd5b5061040e806100206000396000f3fe608060405234801561001057600080fd5b50600436106100365760003560e01c80639b2ea4bd1461003b578063bf40fac114610050575b600080fd5b61004e6100493660046102ae565b610079565b005b61006361005e366004610273565b6101b3565b6040516100709190610325565b60405180910390f35b61009f6040518060400160405280600581526020016430b236b4b760d91b8152506101b3565b6001600160a01b0316336001600160a01b031614806100f457506100df6040518060400160405280600581526020016437bbb732b960d91b8152506101b3565b6001600160a01b0316336001600160a01b0316145b6101195760405162461bcd60e51b81526004016101109061037d565b60405180910390fd5b806000808460405160200161012e9190610309565b60405160208183030381529060405280519060200120815260200190815260200160002060006101000a8154816001600160a01b0302191690836001600160a01b031602179055507ffc0a6a253a16cecf0b9dae14da9b82f5b9b4fcbd38bcac78349d9fded55d383d82826040516101a7929190610339565b60405180910390a15050565b6000806000836040516020016101c99190610309565b60408051808303601f19018152918152815160209283012083529082019290925201600020546001600160a01b031692915050565b600082601f83011261020e578081fd5b813567ffffffffffffffff8082111561022357fe5b604051601f8301601f19168101602001828111828210171561024157fe5b604052828152848301602001861015610258578384fd5b82602086016020830137918201602001929092529392505050565b600060208284031215610284578081fd5b813567ffffffffffffffff81111561029a578182fd5b6102a6848285016101fe565b949350505050565b600080604083850312156102c0578081fd5b823567ffffffffffffffff8111156102d6578182fd5b6102e2858286016101fe565b92505060208301356001600160a01b03811681146102fe578182fd5b809150509250929050565b6000825161031b8184602087016103a8565b9190910192915050565b6001600160a01b0391909116815260200190565b60006040825283518060408401526103588160608501602088016103a8565b6001600160a01b0393909316602083015250601f91909101601f191601606001919050565b6020808252601190820152701c195c9b5a5cdcda5bdb8b59195b9a5959607a1b604082015260600190565b60005b838110156103c35781810151838201526020016103ab565b838111156103d2576000848401525b5050505056fea2646970667358221220b5a7daa8b436167b10d7e5677a203fe6f0767d35f67f7a3bb9bf7ef2691cb66364736f6c63430007060033",
  "linkReferences": {},
  "deployedLinkReferences": {}
}