{
  "_format": "hh-sol-artifact-1",
  "contractName": "AddressRecord",
  "sourceName": "contracts/BitStakerRegistry.sol",
  "abi": [
    {
      "inputs": [],
      "name": "registry",
      "outputs": [
        {
          "internalType": "address",
          "name": "",
          "type": "address"
        }
      ],
      "stateMutability": "view",
      "type": "function"
    }
  ],
  "bytecode": "0x6080604052348015600f57600080fd5b5060a08061001e6000396000f3fe6080604052348015600f57600080fd5b506004361060285760003560e01c80637b10399914602d575b600080fd5b60336047565b604051603e91906056565b60405180910390f35b6000546001600160a01b031681565b6001600160a01b039190911681526020019056fea2646970667358221220da9dbe6d8340f774ae81ae5a2948ad6169f2ef8b472b2e7f2da43e8b1cbce50f64736f6c63430007060033",
  "linkReferences": {},
  "deployedLinkReferences": {}
}