{
  "_format": "hh-sol-artifact-1",
  "contractName": "BitStakerRegistery",
  "sourceName": "contracts/BitStakerRegistry.sol",
  "abi": [
    {
      "inputs": [],
      "stateMutability": "nonpayable",
      "type": "constructor"
    },
    {
      "anonymous": false,
      "inputs": [
        {
          "indexed": true,
          "internalType": "address",
          "name": "sender",
          "type": "address"
        },
        {
          "indexed": true,
          "internalType": "address",
          "name": "owner",
          "type": "address"
        },
        {
          "indexed": false,
          "internalType": "address",
          "name": "proxy",
          "type": "address"
        }
      ],
      "name": "Created",
      "type": "event"
    },
    {
      "anonymous": false,
      "inputs": [
        {
          "indexed": false,
          "internalType": "address",
          "name": "logicAddress",
          "type": "address"
        }
      ],
      "name": "LogDisableLogic",
      "type": "event"
    },
    {
      "anonymous": false,
      "inputs": [
        {
          "indexed": false,
          "internalType": "address",
          "name": "logicAddress",
          "type": "address"
        }
      ],
      "name": "LogEnableLogic",
      "type": "event"
    },
    {
      "anonymous": false,
      "inputs": [
        {
          "indexed": false,
          "internalType": "address",
          "name": "logicAddress",
          "type": "address"
        }
      ],
      "name": "LogEnableStaticLogic",
      "type": "event"
    },
    {
      "anonymous": false,
      "inputs": [
        {
          "indexed": true,
          "internalType": "address",
          "name": "currentOwner",
          "type": "address"
        },
        {
          "indexed": true,
          "internalType": "address",
          "name": "nextOwner",
          "type": "address"
        },
        {
          "indexed": false,
          "internalType": "address",
          "name": "proxy",
          "type": "address"
        }
      ],
      "name": "LogRecord",
      "type": "event"
    },
    {
      "anonymous": false,
      "inputs": [
        {
          "indexed": false,
          "internalType": "string",
          "name": "name",
          "type": "string"
        },
        {
          "indexed": false,
          "internalType": "address",
          "name": "addr",
          "type": "address"
        }
      ],
      "name": "LogSetAddress",
      "type": "event"
    },
    {
      "inputs": [],
      "name": "build",
      "outputs": [
        {
          "internalType": "contract UserWallet",
          "name": "proxy",
          "type": "address"
        }
      ],
      "stateMutability": "nonpayable",
      "type": "function"
    },
    {
      "inputs": [
        {
          "internalType": "address",
          "name": "_owner",
          "type": "address"
        }
      ],
      "name": "build",
      "outputs": [
        {
          "internalType": "contract UserWallet",
          "name": "proxy",
          "type": "address"
        }
      ],
      "stateMutability": "nonpayable",
      "type": "function"
    },
    {
      "inputs": [
        {
          "internalType": "address",
          "name": "_logicAddress",
          "type": "address"
        }
      ],
      "name": "disableLogic",
      "outputs": [],
      "stateMutability": "nonpayable",
      "type": "function"
    },
    {
      "inputs": [
        {
          "internalType": "address",
          "name": "_logicAddress",
          "type": "address"
        }
      ],
      "name": "enableLogic",
      "outputs": [],
      "stateMutability": "nonpayable",
      "type": "function"
    },
    {
      "inputs": [
        {
          "internalType": "address",
          "name": "_logicAddress",
          "type": "address"
        }
      ],
      "name": "enableStaticLogic",
      "outputs": [],
      "stateMutability": "nonpayable",
      "type": "function"
    },
    {
      "inputs": [
        {
          "internalType": "string",
          "name": "_name",
          "type": "string"
        }
      ],
      "name": "getAddress",
      "outputs": [
        {
          "internalType": "address",
          "name": "",
          "type": "address"
        }
      ],
      "stateMutability": "view",
      "type": "function"
    },
    {
      "inputs": [
        {
          "internalType": "address",
          "name": "_logicAddress",
          "type": "address"
        }
      ],
      "name": "logic",
      "outputs": [
        {
          "internalType": "bool",
          "name": "",
          "type": "bool"
        }
      ],
      "stateMutability": "view",
      "type": "function"
    },
    {
      "inputs": [
        {
          "internalType": "address",
          "name": "",
          "type": "address"
        }
      ],
      "name": "logicProxies",
      "outputs": [
        {
          "internalType": "bool",
          "name": "",
          "type": "bool"
        }
      ],
      "stateMutability": "view",
      "type": "function"
    },
    {
      "inputs": [
        {
          "internalType": "address",
          "name": "",
          "type": "address"
        }
      ],
      "name": "logicProxiesStatic",
      "outputs": [
        {
          "internalType": "bool",
          "name": "",
          "type": "bool"
        }
      ],
      "stateMutability": "view",
      "type": "function"
    },
    {
      "inputs": [
        {
          "internalType": "address",
          "name": "_logicAddress",
          "type": "address"
        }
      ],
      "name": "logicStatic",
      "outputs": [
        {
          "internalType": "bool",
          "name": "",
          "type": "bool"
        }
      ],
      "stateMutability": "view",
      "type": "function"
    },
    {
      "inputs": [
        {
          "internalType": "address",
          "name": "",
          "type": "address"
        }
      ],
      "name": "proxies",
      "outputs": [
        {
          "internalType": "contract UserWallet",
          "name": "",
          "type": "address"
        }
      ],
      "stateMutability": "view",
      "type": "function"
    },
    {
      "inputs": [
        {
          "internalType": "address",
          "name": "_currentOwner",
          "type": "address"
        },
        {
          "internalType": "address",
          "name": "_nextOwner",
          "type": "address"
        }
      ],
      "name": "record",
      "outputs": [],
      "stateMutability": "nonpayable",
      "type": "function"
    },
    {
      "inputs": [
        {
          "internalType": "string",
          "name": "_name",
          "type": "string"
        },
        {
          "internalType": "address",
          "name": "_userAddress",
          "type": "address"
        }
      ],
      "name": "setAddress",
      "outputs": [],
      "stateMutability": "nonpayable",
      "type": "function"
    }
  ],
  "bytecode": "0x608060405234801561001057600080fd5b5033600080604051602001610024906100dd565b60405160208183030381529060405280519060200120815260200190815260200160002060006101000a8154816001600160a01b0302191690836001600160a01b031602179055503360008060405160200161007f906100cc565b60405160208183030381529060405280519060200120815260200190815260200160002060006101000a8154816001600160a01b0302191690836001600160a01b031602179055506100ee565b6437bbb732b960d91b815260050190565b6430b236b4b760d91b815260050190565b611785806100fd6000396000f3fe608060405234801561001057600080fd5b50600436106100cf5760003560e01c80638e1a55fc1161008c578063bf40fac111610066578063bf40fac114610199578063c4552791146101ac578063d93b4ee7146101bf578063f3701da2146101d2576100cf565b80638e1a55fc1461015e5780639b2ea4bd14610173578063bbfdc3c414610186576100cf565b806311390441146100d457806313f07317146100fd57806315413ccf1461011257806328e985371461012557806339035d56146101385780635e2bd4211461014b575b600080fd5b6100e76100e23660046109c7565b6101e5565b6040516100f49190610ac8565b60405180910390f35b61011061010b3660046109c7565b61023a565b005b6100e76101203660046109c7565b61033a565b6100e76101333660046109c7565b61034f565b6101106101463660046109e8565b610364565b6101106101593660046109c7565b610457565b610166610541565b6040516100f49190610ab4565b610110610181366004610a55565b610551565b6100e76101943660046109c7565b610682565b6101666101a7366004610a1a565b6106ab565b6101666101ba3660046109c7565b6106f6565b6101106101cd3660046109c7565b610711565b6101666101e03660046109c7565b6107f8565b6001600160a01b03811660009081526001602052604081205460ff168061022457506001600160a01b03821660009081526002602052604090205460ff165b1561023157506001610235565b5060005b919050565b6102606040518060400160405280600581526020016430b236b4b760d91b8152506106ab565b6001600160a01b0316336001600160a01b031614806102b557506102a06040518060400160405280600581526020016437bbb732b960d91b8152506106ab565b6001600160a01b0316336001600160a01b0316145b6102da5760405162461bcd60e51b81526004016102d190610b47565b60405180910390fd5b6001600160a01b038116600090815260016020819052604091829020805460ff19169091179055517f3f04a50450bef2cbd6fa284fd81947443e43bdbf0db0b834741b228b996ae35c9061032f908390610ab4565b60405180910390a150565b60026020526000908152604090205460ff1681565b60016020526000908152604090205460ff1681565b6001600160a01b0382811660009081526003602052604090205416331461039d5760405162461bcd60e51b81526004016102d190610b17565b6001600160a01b0381811660009081526003602052604090205416156103d55760405162461bcd60e51b81526004016102d190610b72565b6001600160a01b0382811660008181526003602052604080822080548686168085529383902080549187166001600160a01b0319928316178155825490911690915554905191937fcef7897a03e601f3ff31e759532eac1da82eebd7e6f0f8fde0787e934e53cbd19261044b9290911690610ab4565b60405180910390a35050565b61047d6040518060400160405280600581526020016430b236b4b760d91b8152506106ab565b6001600160a01b0316336001600160a01b031614806104d257506104bd6040518060400160405280600581526020016437bbb732b960d91b8152506106ab565b6001600160a01b0316336001600160a01b0316145b6104ee5760405162461bcd60e51b81526004016102d190610b47565b6001600160a01b03811660009081526002602052604090819020805460ff19166001179055517f68f5cdfc79250ac339a21f2dd385aac4592b8f39c5a873771b402366e81140db9061032f908390610ab4565b600061054c336107f8565b905090565b6105776040518060400160405280600581526020016430b236b4b760d91b8152506106ab565b6001600160a01b0316336001600160a01b031614806105cc57506105b76040518060400160405280600581526020016437bbb732b960d91b8152506106ab565b6001600160a01b0316336001600160a01b0316145b6105e85760405162461bcd60e51b81526004016102d190610b47565b80600080846040516020016105fd9190610a98565b60405160208183030381529060405280519060200120815260200190815260200160002060006101000a8154816001600160a01b0302191690836001600160a01b031602179055507ffc0a6a253a16cecf0b9dae14da9b82f5b9b4fcbd38bcac78349d9fded55d383d8282604051610676929190610ad3565b60405180910390a15050565b6001600160a01b03811660009081526001602052604081205460ff161561023157506001610235565b6000806000836040516020016106c19190610a98565b60408051808303601f19018152918152815160209283012083529082019290925201600020546001600160a01b031692915050565b6003602052600090815260409020546001600160a01b031681565b6107376040518060400160405280600581526020016430b236b4b760d91b8152506106ab565b6001600160a01b0316336001600160a01b0316148061078c57506107776040518060400160405280600581526020016437bbb732b960d91b8152506106ab565b6001600160a01b0316336001600160a01b0316145b6107a85760405162461bcd60e51b81526004016102d190610b47565b6001600160a01b03811660009081526002602052604090819020805460ff19169055517f51e737aad5b0a2ee32c37ae8c06b9f89e99d26cc52ba5bdcb0e006983f1a56079061032f908390610ab4565b6001600160a01b03818116600090815260036020526040812054909116156108325760405162461bcd60e51b81526004016102d190610b72565b60405161083e9061092e565b604051809103906000f08015801561085a573d6000803e3d6000fd5b50306000908152600360205260409081902080546001600160a01b0319166001600160a01b03841690811790915590516313af403560e01b8152919250906313af4035906108ac908590600401610ab4565b600060405180830381600087803b1580156108c657600080fd5b505af11580156108da573d6000803e3d6000fd5b50505050816001600160a01b0316336001600160a01b03167f454b0172f64812df0cd504c2bd7df7aab8ff328a54d946b4bd0fa7c527adf9cc836040516109219190610ab4565b60405180910390a3919050565b610b6a80610be683390190565b80356001600160a01b038116811461023557600080fd5b600082601f830112610962578081fd5b813567ffffffffffffffff8082111561097757fe5b604051601f8301601f19168101602001828111828210171561099557fe5b6040528281528483016020018610156109ac578384fd5b82602086016020830137918201602001929092529392505050565b6000602082840312156109d8578081fd5b6109e18261093b565b9392505050565b600080604083850312156109fa578081fd5b610a038361093b565b9150610a116020840161093b565b90509250929050565b600060208284031215610a2b578081fd5b813567ffffffffffffffff811115610a41578182fd5b610a4d84828501610952565b949350505050565b60008060408385031215610a67578182fd5b823567ffffffffffffffff811115610a7d578283fd5b610a8985828601610952565b925050610a116020840161093b565b60008251610aaa818460208701610bb5565b9190910192915050565b6001600160a01b0391909116815260200190565b901515815260200190565b6000604082528351806040840152610af2816060850160208801610bb5565b6001600160a01b0393909316602083015250601f91909101601f191601606001919050565b60208082526016908201527534b73b30b634b216b83937bc3c96b7b916b7bbb732b960511b604082015260600190565b6020808252601190820152701c195c9b5a5cdcda5bdb8b59195b9a5959607a1b604082015260600190565b60208082526023908201527f6d756c7469706c652d70726f78792d7065722d757365722d6e6f742d616c6c6f6040820152621dd95960ea1b606082015260800190565b60005b83811015610bd0578181015183820152602001610bb8565b83811115610bdf576000848401525b5050505056fe608060405234801561001057600080fd5b5060008054336001600160a01b03199182168117835560018054909216179055610b2a90819061004090396000f3fe6080604052600436106100555760003560e01c806313af4035146100575780632520e7ff146100775780637b103999146100ad5780638da5cb5b146100cf578063a731e2c2146100e4578063f354190114610104575b005b34801561006357600080fd5b50610055610072366004610779565b610124565b34801561008357600080fd5b50610097610092366004610779565b610206565b6040516100a491906109c7565b60405180910390f35b3480156100b957600080fd5b506100c2610249565b6040516100a49190610918565b3480156100db57600080fd5b506100c2610258565b6100f76100f23660046107f6565b610267565b6040516100a49190610967565b61011761011236600461079a565b6104ad565b6040516100a49190610a0f565b61012d33610206565b6101525760405162461bcd60e51b815260040161014990610a50565b60405180910390fd5b600054600154604051631c81aeab60e11b81526001600160a01b03928316926339035d569261018892911690859060040161092c565b600060405180830381600087803b1580156101a257600080fd5b505af11580156101b6573d6000803e3d6000fd5b5050600180546001600160a01b0319166001600160a01b0385169081179091556040519092507fce241d7ca1f669fee44b6fc00b8eba2df3bb514eed0f6f668f8f89096e81ed949150600090a250565b6001546000906001600160a01b038381169116141561022757506001610244565b6001600160a01b03821630141561024057506001610244565b5060005b919050565b6000546001600160a01b031681565b6001546001600160a01b031681565b604051606090600435906024359082903390600080356001600160e01b031916917f644843f351d3fba4abcd60109eaff9f54bac8fb8ccf0bab941009c21df21cf31916102b9918791349136906109d2565b60405180910390a46102ca33610206565b6102e65760405162461bcd60e51b815260040161014990610a50565b8660005b81518110156103f45760006001600160a01b031682828151811061030a57fe5b60200260200101516001600160a01b031614156103395760405162461bcd60e51b815260040161014990610a7b565b60005482516001600160a01b039091169063113904419084908490811061035c57fe5b60200260200101516040518263ffffffff1660e01b81526004016103809190610918565b60206040518083038186803b15801561039857600080fd5b505afa1580156103ac573d6000803e3d6000fd5b505050506040513d601f19601f820116820180604052508101906103d091906108ad565b6103ec5760405162461bcd60e51b815260040161014990610a22565b6001016102ea565b50875167ffffffffffffffff8111801561040d57600080fd5b5060405190808252806020026020018201604052801561044157816020015b606081526020019060019003908161042c5790505b50935060005b88518110156104a15761048289828151811061045f57fe5b602002602001015189838151811061047357fe5b60200260200101518989610607565b85828151811061048e57fe5b6020908102919091010152600101610447565b50505050949350505050565b604051606090600435906024359082903390600080356001600160e01b031916917f644843f351d3fba4abcd60109eaff9f54bac8fb8ccf0bab941009c21df21cf31916104ff918791349136906109d2565b60405180910390a461051033610206565b61052c5760405162461bcd60e51b815260040161014990610a50565b866001600160a01b0381166105535760405162461bcd60e51b815260040161014990610a7b565b600054604051631139044160e01b81526001600160a01b0390911690631139044190610583908490600401610918565b60206040518083038186803b15801561059b57600080fd5b505afa1580156105af573d6000803e3d6000fd5b505050506040513d601f19601f820116820180604052508101906105d391906108ad565b6105ef5760405162461bcd60e51b815260040161014990610a22565b6105fb88888888610607565b98975050505050505050565b60607fbd37415aaf130f9a169d66bc22d669b6a5aa55f384e7b41d105714eb8277b34185848460405161063c93929190610946565b60405180910390a1600080855160208701886113885a03f43d6040519250601f19601f6020830101168301604052808352806000602085013e8115600181146106845761068b565b8160208501fd5b505050949350505050565b80356001600160a01b038116811461024457600080fd5b600082601f8301126106bd578081fd5b813560206106d26106cd83610ad6565b610ab2565b82815281810190858301855b85811015610707576106f5898684358b0101610714565b845292840192908401906001016106de565b5090979650505050505050565b600082601f830112610724578081fd5b813567ffffffffffffffff81111561073857fe5b61074b601f8201601f1916602001610ab2565b81815284602083860101111561075f578283fd5b816020850160208301379081016020019190915292915050565b60006020828403121561078a578081fd5b61079382610696565b9392505050565b600080600080608085870312156107af578283fd5b6107b885610696565b9350602085013567ffffffffffffffff8111156107d3578384fd5b6107df87828801610714565b949794965050505060408301359260600135919050565b6000806000806080858703121561080b578384fd5b843567ffffffffffffffff80821115610822578586fd5b818701915087601f830112610835578586fd5b813560206108456106cd83610ad6565b82815281810190858301838502870184018d1015610861578a8bfd5b8a96505b8487101561088a5761087681610696565b835260019690960195918301918301610865565b50985050880135925050808211156108a0578485fd5b506107df878288016106ad565b6000602082840312156108be578081fd5b81518015158114610793578182fd5b60008151808452815b818110156108f2576020818501810151868301820152016108d6565b818111156109035782602083870101525b50601f01601f19169290920160200192915050565b6001600160a01b0391909116815260200190565b6001600160a01b0392831681529116602082015260400190565b6001600160a01b039390931683526020830191909152604082015260600190565b6000602080830181845280855180835260408601915060408482028701019250838701855b828110156109ba57603f198886030184526109a88583516108cd565b9450928501929085019060010161098c565b5092979650505050505050565b901515815260200190565b60008582528460208301526060604083015282606083015282846080840137818301608090810191909152601f909201601f191601019392505050565b60006020825261079360208301846108cd565b6020808252601490820152731b1bd9da58cb5b9bdd0b585d5d1a1bdc9a5cd95960621b604082015260600190565b6020808252601190820152701c195c9b5a5cdcda5bdb8b59195b9a5959607a1b604082015260600190565b6020808252601c908201527f6c6f6769632d70726f78792d616464726573732d726571756972656400000000604082015260600190565b60405181810167ffffffffffffffff81118282101715610ace57fe5b604052919050565b600067ffffffffffffffff821115610aea57fe5b506020908102019056fea2646970667358221220c59bf7614dfebcb8cc51ca9d118823ced78d5cc3ee2622090299628879c8364864736f6c63430007060033a26469706673582212203141b16342536dc8f970d2498ada6272378bdc27b98eeeb9c278955ded75ed4664736f6c63430007060033",
  "linkReferences": {},
  "deployedLinkReferences": {}
}