{
  "_format": "hh-sol-artifact-1",
  "contractName": "LogicRegistry",
  "sourceName": "contracts/BitStakerRegistry.sol",
  "abi": [
    {
      "anonymous": false,
      "inputs": [
        {
          "indexed": false,
          "internalType": "address",
          "name": "logicAddress",
          "type": "address"
        }
      ],
      "name": "LogDisableLogic",
      "type": "event"
    },
    {
      "anonymous": false,
      "inputs": [
        {
          "indexed": false,
          "internalType": "address",
          "name": "logicAddress",
          "type": "address"
        }
      ],
      "name": "LogEnableLogic",
      "type": "event"
    },
    {
      "anonymous": false,
      "inputs": [
        {
          "indexed": false,
          "internalType": "address",
          "name": "logicAddress",
          "type": "address"
        }
      ],
      "name": "LogEnableStaticLogic",
      "type": "event"
    },
    {
      "anonymous": false,
      "inputs": [
        {
          "indexed": false,
          "internalType": "string",
          "name": "name",
          "type": "string"
        },
        {
          "indexed": false,
          "internalType": "address",
          "name": "addr",
          "type": "address"
        }
      ],
      "name": "LogSetAddress",
      "type": "event"
    },
    {
      "inputs": [
        {
          "internalType": "address",
          "name": "_logicAddress",
          "type": "address"
        }
      ],
      "name": "disableLogic",
      "outputs": [],
      "stateMutability": "nonpayable",
      "type": "function"
    },
    {
      "inputs": [
        {
          "internalType": "address",
          "name": "_logicAddress",
          "type": "address"
        }
      ],
      "name": "enableLogic",
      "outputs": [],
      "stateMutability": "nonpayable",
      "type": "function"
    },
    {
      "inputs": [
        {
          "internalType": "address",
          "name": "_logicAddress",
          "type": "address"
        }
      ],
      "name": "enableStaticLogic",
      "outputs": [],
      "stateMutability": "nonpayable",
      "type": "function"
    },
    {
      "inputs": [
        {
          "internalType": "string",
          "name": "_name",
          "type": "string"
        }
      ],
      "name": "getAddress",
      "outputs": [
        {
          "internalType": "address",
          "name": "",
          "type": "address"
        }
      ],
      "stateMutability": "view",
      "type": "function"
    },
    {
      "inputs": [
        {
          "internalType": "address",
          "name": "_logicAddress",
          "type": "address"
        }
      ],
      "name": "logic",
      "outputs": [
        {
          "internalType": "bool",
          "name": "",
          "type": "bool"
        }
      ],
      "stateMutability": "view",
      "type": "function"
    },
    {
      "inputs": [
        {
          "internalType": "address",
          "name": "",
          "type": "address"
        }
      ],
      "name": "logicProxies",
      "outputs": [
        {
          "internalType": "bool",
          "name": "",
          "type": "bool"
        }
      ],
      "stateMutability": "view",
      "type": "function"
    },
    {
      "inputs": [
        {
          "internalType": "address",
          "name": "",
          "type": "address"
        }
      ],
      "name": "logicProxiesStatic",
      "outputs": [
        {
          "internalType": "bool",
          "name": "",
          "type": "bool"
        }
      ],
      "stateMutability": "view",
      "type": "function"
    },
    {
      "inputs": [
        {
          "internalType": "address",
          "name": "_logicAddress",
          "type": "address"
        }
      ],
      "name": "logicStatic",
      "outputs": [
        {
          "internalType": "bool",
          "name": "",
          "type": "bool"
        }
      ],
      "stateMutability": "view",
      "type": "function"
    },
    {
      "inputs": [
        {
          "internalType": "string",
          "name": "_name",
          "type": "string"
        },
        {
          "internalType": "address",
          "name": "_userAddress",
          "type": "address"
        }
      ],
      "name": "setAddress",
      "outputs": [],
      "stateMutability": "nonpayable",
      "type": "function"
    }
  ],
  "bytecode": "0x608060405234801561001057600080fd5b506108a1806100206000396000f3fe608060405234801561001057600080fd5b50600436106100935760003560e01c80635e2bd421116100665780635e2bd421146100fc5780639b2ea4bd1461010f578063bbfdc3c414610122578063bf40fac114610135578063d93b4ee71461015557610093565b8063113904411461009857806313f07317146100c157806315413ccf146100d657806328e98537146100e9575b600080fd5b6100ab6100a63660046106e9565b610168565b6040516100b891906107c1565b60405180910390f35b6100d46100cf3660046106e9565b6101bd565b005b6100ab6100e43660046106e9565b6102bd565b6100ab6100f73660046106e9565b6102d2565b6100d461010a3660046106e9565b6102e7565b6100d461011d366004610745565b6103d1565b6100ab6101303660046106e9565b610502565b61014861014336600461070a565b61052b565b6040516100b891906107ad565b6100d46101633660046106e9565b610576565b6001600160a01b03811660009081526001602052604081205460ff16806101a757506001600160a01b03821660009081526002602052604090205460ff165b156101b4575060016101b8565b5060005b919050565b6101e36040518060400160405280600581526020016430b236b4b760d91b81525061052b565b6001600160a01b0316336001600160a01b0316148061023857506102236040518060400160405280600581526020016437bbb732b960d91b81525061052b565b6001600160a01b0316336001600160a01b0316145b61025d5760405162461bcd60e51b815260040161025490610810565b60405180910390fd5b6001600160a01b038116600090815260016020819052604091829020805460ff19169091179055517f3f04a50450bef2cbd6fa284fd81947443e43bdbf0db0b834741b228b996ae35c906102b29083906107ad565b60405180910390a150565b60026020526000908152604090205460ff1681565b60016020526000908152604090205460ff1681565b61030d6040518060400160405280600581526020016430b236b4b760d91b81525061052b565b6001600160a01b0316336001600160a01b03161480610362575061034d6040518060400160405280600581526020016437bbb732b960d91b81525061052b565b6001600160a01b0316336001600160a01b0316145b61037e5760405162461bcd60e51b815260040161025490610810565b6001600160a01b03811660009081526002602052604090819020805460ff19166001179055517f68f5cdfc79250ac339a21f2dd385aac4592b8f39c5a873771b402366e81140db906102b29083906107ad565b6103f76040518060400160405280600581526020016430b236b4b760d91b81525061052b565b6001600160a01b0316336001600160a01b0316148061044c57506104376040518060400160405280600581526020016437bbb732b960d91b81525061052b565b6001600160a01b0316336001600160a01b0316145b6104685760405162461bcd60e51b815260040161025490610810565b806000808460405160200161047d9190610791565b60405160208183030381529060405280519060200120815260200190815260200160002060006101000a8154816001600160a01b0302191690836001600160a01b031602179055507ffc0a6a253a16cecf0b9dae14da9b82f5b9b4fcbd38bcac78349d9fded55d383d82826040516104f69291906107cc565b60405180910390a15050565b6001600160a01b03811660009081526001602052604081205460ff16156101b4575060016101b8565b6000806000836040516020016105419190610791565b60408051808303601f19018152918152815160209283012083529082019290925201600020546001600160a01b031692915050565b61059c6040518060400160405280600581526020016430b236b4b760d91b81525061052b565b6001600160a01b0316336001600160a01b031614806105f157506105dc6040518060400160405280600581526020016437bbb732b960d91b81525061052b565b6001600160a01b0316336001600160a01b0316145b61060d5760405162461bcd60e51b815260040161025490610810565b6001600160a01b03811660009081526002602052604090819020805460ff19169055517f51e737aad5b0a2ee32c37ae8c06b9f89e99d26cc52ba5bdcb0e006983f1a5607906102b29083906107ad565b80356001600160a01b03811681146101b857600080fd5b600082601f830112610684578081fd5b813567ffffffffffffffff8082111561069957fe5b604051601f8301601f1916810160200182811182821017156106b757fe5b6040528281528483016020018610156106ce578384fd5b82602086016020830137918201602001929092529392505050565b6000602082840312156106fa578081fd5b6107038261065d565b9392505050565b60006020828403121561071b578081fd5b813567ffffffffffffffff811115610731578182fd5b61073d84828501610674565b949350505050565b60008060408385031215610757578081fd5b823567ffffffffffffffff81111561076d578182fd5b61077985828601610674565b9250506107886020840161065d565b90509250929050565b600082516107a381846020870161083b565b9190910192915050565b6001600160a01b0391909116815260200190565b901515815260200190565b60006040825283518060408401526107eb81606085016020880161083b565b6001600160a01b0393909316602083015250601f91909101601f191601606001919050565b6020808252601190820152701c195c9b5a5cdcda5bdb8b59195b9a5959607a1b604082015260600190565b60005b8381101561085657818101518382015260200161083e565b83811115610865576000848401525b5050505056fea264697066735822122021b2aac40146b740bb2343e6c0bd370df8c750e6dad69301c9c0688cad108f3364736f6c63430007060033",
  "linkReferences": {},
  "deployedLinkReferences": {}
}