{
  "_format": "hh-sol-artifact-1",
  "contractName": "UserAuth",
  "sourceName": "contracts/BitStakerRegistry.sol",
  "abi": [
    {
      "anonymous": false,
      "inputs": [
        {
          "indexed": true,
          "internalType": "address",
          "name": "owner",
          "type": "address"
        }
      ],
      "name": "LogSetOwner",
      "type": "event"
    },
    {
      "inputs": [
        {
          "internalType": "address",
          "name": "src",
          "type": "address"
        }
      ],
      "name": "isAuth",
      "outputs": [
        {
          "internalType": "bool",
          "name": "",
          "type": "bool"
        }
      ],
      "stateMutability": "view",
      "type": "function"
    },
    {
      "inputs": [],
      "name": "owner",
      "outputs": [
        {
          "internalType": "address",
          "name": "",
          "type": "address"
        }
      ],
      "stateMutability": "view",
      "type": "function"
    },
    {
      "inputs": [],
      "name": "registry",
      "outputs": [
        {
          "internalType": "address",
          "name": "",
          "type": "address"
        }
      ],
      "stateMutability": "view",
      "type": "function"
    },
    {
      "inputs": [
        {
          "internalType": "address",
          "name": "nextOwner",
          "type": "address"
        }
      ],
      "name": "setOwner",
      "outputs": [],
      "stateMutability": "nonpayable",
      "type": "function"
    }
  ],
  "bytecode": "0x608060405234801561001057600080fd5b506102b7806100206000396000f3fe608060405234801561001057600080fd5b506004361061004c5760003560e01c806313af4035146100515780632520e7ff146100665780637b1039991461008f5780638da5cb5b146100a4575b600080fd5b61006461005f3660046101ef565b6100ac565b005b6100796100743660046101ef565b61018e565b604051610086919061024b565b60405180910390f35b6100976101d1565b604051610086919061021d565b6100976101e0565b6100b53361018e565b6100da5760405162461bcd60e51b81526004016100d190610256565b60405180910390fd5b600054600154604051631c81aeab60e11b81526001600160a01b03928316926339035d5692610110929116908590600401610231565b600060405180830381600087803b15801561012a57600080fd5b505af115801561013e573d6000803e3d6000fd5b5050600180546001600160a01b0319166001600160a01b0385169081179091556040519092507fce241d7ca1f669fee44b6fc00b8eba2df3bb514eed0f6f668f8f89096e81ed949150600090a250565b6001546000906001600160a01b03838116911614156101af575060016101cc565b6001600160a01b0382163014156101c8575060016101cc565b5060005b919050565b6000546001600160a01b031681565b6001546001600160a01b031681565b600060208284031215610200578081fd5b81356001600160a01b0381168114610216578182fd5b9392505050565b6001600160a01b0391909116815260200190565b6001600160a01b0392831681529116602082015260400190565b901515815260200190565b6020808252601190820152701c195c9b5a5cdcda5bdb8b59195b9a5959607a1b60408201526060019056fea26469706673582212204fbac28cd69bcd3c14817d1eae32d6df1a0d4af07e3826f20a045200b1f7f0c864736f6c63430007060033",
  "linkReferences": {},
  "deployedLinkReferences": {}
}