{
  "_format": "hh-sol-artifact-1",
  "contractName": "UserWallet",
  "sourceName": "contracts/BitStakerRegistry.sol",
  "abi": [
    {
      "inputs": [],
      "stateMutability": "nonpayable",
      "type": "constructor"
    },
    {
      "anonymous": false,
      "inputs": [
        {
          "indexed": false,
          "internalType": "address",
          "name": "target",
          "type": "address"
        },
        {
          "indexed": false,
          "internalType": "uint256",
          "name": "srcNum",
          "type": "uint256"
        },
        {
          "indexed": false,
          "internalType": "uint256",
          "name": "sessionNum",
          "type": "uint256"
        }
      ],
      "name": "LogExecute",
      "type": "event"
    },
    {
      "anonymous": false,
      "inputs": [
        {
          "indexed": true,
          "internalType": "bytes4",
          "name": "sig",
          "type": "bytes4"
        },
        {
          "indexed": true,
          "internalType": "address",
          "name": "guy",
          "type": "address"
        },
        {
          "indexed": true,
          "internalType": "bytes32",
          "name": "foo",
          "type": "bytes32"
        },
        {
          "indexed": false,
          "internalType": "bytes32",
          "name": "bar",
          "type": "bytes32"
        },
        {
          "indexed": false,
          "internalType": "uint256",
          "name": "wad",
          "type": "uint256"
        },
        {
          "indexed": false,
          "internalType": "bytes",
          "name": "fax",
          "type": "bytes"
        }
      ],
      "name": "LogNote",
      "type": "event"
    },
    {
      "anonymous": false,
      "inputs": [
        {
          "indexed": true,
          "internalType": "address",
          "name": "owner",
          "type": "address"
        }
      ],
      "name": "LogSetOwner",
      "type": "event"
    },
    {
      "stateMutability": "payable",
      "type": "fallback"
    },
    {
      "inputs": [
        {
          "internalType": "address",
          "name": "_target",
          "type": "address"
        },
        {
          "internalType": "bytes",
          "name": "_data",
          "type": "bytes"
        },
        {
          "internalType": "uint256",
          "name": "_src",
          "type": "uint256"
        },
        {
          "internalType": "uint256",
          "name": "_session",
          "type": "uint256"
        }
      ],
      "name": "execute",
      "outputs": [
        {
          "internalType": "bytes",
          "name": "response",
          "type": "bytes"
        }
      ],
      "stateMutability": "payable",
      "type": "function"
    },
    {
      "inputs": [
        {
          "internalType": "address[]",
          "name": "_targets",
          "type": "address[]"
        },
        {
          "internalType": "bytes[]",
          "name": "_data",
          "type": "bytes[]"
        },
        {
          "internalType": "uint256",
          "name": "_src",
          "type": "uint256"
        },
        {
          "internalType": "uint256",
          "name": "_session",
          "type": "uint256"
        }
      ],
      "name": "executeMulti",
      "outputs": [
        {
          "internalType": "bytes[]",
          "name": "returnData",
          "type": "bytes[]"
        }
      ],
      "stateMutability": "payable",
      "type": "function"
    },
    {
      "inputs": [
        {
          "internalType": "address",
          "name": "src",
          "type": "address"
        }
      ],
      "name": "isAuth",
      "outputs": [
        {
          "internalType": "bool",
          "name": "",
          "type": "bool"
        }
      ],
      "stateMutability": "view",
      "type": "function"
    },
    {
      "inputs": [],
      "name": "owner",
      "outputs": [
        {
          "internalType": "address",
          "name": "",
          "type": "address"
        }
      ],
      "stateMutability": "view",
      "type": "function"
    },
    {
      "inputs": [],
      "name": "registry",
      "outputs": [
        {
          "internalType": "address",
          "name": "",
          "type": "address"
        }
      ],
      "stateMutability": "view",
      "type": "function"
    },
    {
      "inputs": [
        {
          "internalType": "address",
          "name": "nextOwner",
          "type": "address"
        }
      ],
      "name": "setOwner",
      "outputs": [],
      "stateMutability": "nonpayable",
      "type": "function"
    }
  ],
  "bytecode": "0x608060405234801561001057600080fd5b5060008054336001600160a01b03199182168117835560018054909216179055610b2a90819061004090396000f3fe6080604052600436106100555760003560e01c806313af4035146100575780632520e7ff146100775780637b103999146100ad5780638da5cb5b146100cf578063a731e2c2146100e4578063f354190114610104575b005b34801561006357600080fd5b50610055610072366004610779565b610124565b34801561008357600080fd5b50610097610092366004610779565b610206565b6040516100a491906109c7565b60405180910390f35b3480156100b957600080fd5b506100c2610249565b6040516100a49190610918565b3480156100db57600080fd5b506100c2610258565b6100f76100f23660046107f6565b610267565b6040516100a49190610967565b61011761011236600461079a565b6104ad565b6040516100a49190610a0f565b61012d33610206565b6101525760405162461bcd60e51b815260040161014990610a50565b60405180910390fd5b600054600154604051631c81aeab60e11b81526001600160a01b03928316926339035d569261018892911690859060040161092c565b600060405180830381600087803b1580156101a257600080fd5b505af11580156101b6573d6000803e3d6000fd5b5050600180546001600160a01b0319166001600160a01b0385169081179091556040519092507fce241d7ca1f669fee44b6fc00b8eba2df3bb514eed0f6f668f8f89096e81ed949150600090a250565b6001546000906001600160a01b038381169116141561022757506001610244565b6001600160a01b03821630141561024057506001610244565b5060005b919050565b6000546001600160a01b031681565b6001546001600160a01b031681565b604051606090600435906024359082903390600080356001600160e01b031916917f644843f351d3fba4abcd60109eaff9f54bac8fb8ccf0bab941009c21df21cf31916102b9918791349136906109d2565b60405180910390a46102ca33610206565b6102e65760405162461bcd60e51b815260040161014990610a50565b8660005b81518110156103f45760006001600160a01b031682828151811061030a57fe5b60200260200101516001600160a01b031614156103395760405162461bcd60e51b815260040161014990610a7b565b60005482516001600160a01b039091169063113904419084908490811061035c57fe5b60200260200101516040518263ffffffff1660e01b81526004016103809190610918565b60206040518083038186803b15801561039857600080fd5b505afa1580156103ac573d6000803e3d6000fd5b505050506040513d601f19601f820116820180604052508101906103d091906108ad565b6103ec5760405162461bcd60e51b815260040161014990610a22565b6001016102ea565b50875167ffffffffffffffff8111801561040d57600080fd5b5060405190808252806020026020018201604052801561044157816020015b606081526020019060019003908161042c5790505b50935060005b88518110156104a15761048289828151811061045f57fe5b602002602001015189838151811061047357fe5b60200260200101518989610607565b85828151811061048e57fe5b6020908102919091010152600101610447565b50505050949350505050565b604051606090600435906024359082903390600080356001600160e01b031916917f644843f351d3fba4abcd60109eaff9f54bac8fb8ccf0bab941009c21df21cf31916104ff918791349136906109d2565b60405180910390a461051033610206565b61052c5760405162461bcd60e51b815260040161014990610a50565b866001600160a01b0381166105535760405162461bcd60e51b815260040161014990610a7b565b600054604051631139044160e01b81526001600160a01b0390911690631139044190610583908490600401610918565b60206040518083038186803b15801561059b57600080fd5b505afa1580156105af573d6000803e3d6000fd5b505050506040513d601f19601f820116820180604052508101906105d391906108ad565b6105ef5760405162461bcd60e51b815260040161014990610a22565b6105fb88888888610607565b98975050505050505050565b60607fbd37415aaf130f9a169d66bc22d669b6a5aa55f384e7b41d105714eb8277b34185848460405161063c93929190610946565b60405180910390a1600080855160208701886113885a03f43d6040519250601f19601f6020830101168301604052808352806000602085013e8115600181146106845761068b565b8160208501fd5b505050949350505050565b80356001600160a01b038116811461024457600080fd5b600082601f8301126106bd578081fd5b813560206106d26106cd83610ad6565b610ab2565b82815281810190858301855b85811015610707576106f5898684358b0101610714565b845292840192908401906001016106de565b5090979650505050505050565b600082601f830112610724578081fd5b813567ffffffffffffffff81111561073857fe5b61074b601f8201601f1916602001610ab2565b81815284602083860101111561075f578283fd5b816020850160208301379081016020019190915292915050565b60006020828403121561078a578081fd5b61079382610696565b9392505050565b600080600080608085870312156107af578283fd5b6107b885610696565b9350602085013567ffffffffffffffff8111156107d3578384fd5b6107df87828801610714565b949794965050505060408301359260600135919050565b6000806000806080858703121561080b578384fd5b843567ffffffffffffffff80821115610822578586fd5b818701915087601f830112610835578586fd5b813560206108456106cd83610ad6565b82815281810190858301838502870184018d1015610861578a8bfd5b8a96505b8487101561088a5761087681610696565b835260019690960195918301918301610865565b50985050880135925050808211156108a0578485fd5b506107df878288016106ad565b6000602082840312156108be578081fd5b81518015158114610793578182fd5b60008151808452815b818110156108f2576020818501810151868301820152016108d6565b818111156109035782602083870101525b50601f01601f19169290920160200192915050565b6001600160a01b0391909116815260200190565b6001600160a01b0392831681529116602082015260400190565b6001600160a01b039390931683526020830191909152604082015260600190565b6000602080830181845280855180835260408601915060408482028701019250838701855b828110156109ba57603f198886030184526109a88583516108cd565b9450928501929085019060010161098c565b5092979650505050505050565b901515815260200190565b60008582528460208301526060604083015282606083015282846080840137818301608090810191909152601f909201601f191601019392505050565b60006020825261079360208301846108cd565b6020808252601490820152731b1bd9da58cb5b9bdd0b585d5d1a1bdc9a5cd95960621b604082015260600190565b6020808252601190820152701c195c9b5a5cdcda5bdb8b59195b9a5959607a1b604082015260600190565b6020808252601c908201527f6c6f6769632d70726f78792d616464726573732d726571756972656400000000604082015260600190565b60405181810167ffffffffffffffff81118282101715610ace57fe5b604052919050565b600067ffffffffffffffff821115610aea57fe5b506020908102019056fea2646970667358221220c59bf7614dfebcb8cc51ca9d118823ced78d5cc3ee2622090299628879c8364864736f6c63430007060033",
  "linkReferences": {},
  "deployedLinkReferences": {}
}