{
  "_format": "hh-sol-artifact-1",
  "contractName": "MaticProtocol",
  "sourceName": "contracts/protocols/matic/MaticProtocol.sol",
  "abi": [
    {
      "anonymous": false,
      "inputs": [
        {
          "indexed": false,
          "internalType": "uint256",
          "name": "validatorId",
          "type": "uint256"
        },
        {
          "indexed": false,
          "internalType": "address",
          "name": "validatorAddress",
          "type": "address"
        },
        {
          "indexed": false,
          "internalType": "uint256",
          "name": "amount",
          "type": "uint256"
        }
      ],
      "name": "MaticValidatorDelegated",
      "type": "event"
    },
    {
      "inputs": [
        {
          "internalType": "uint256",
          "name": "_validatorId",
          "type": "uint256"
        },
        {
          "internalType": "uint256",
          "name": "_amount",
          "type": "uint256"
        },
        {
          "internalType": "uint256",
          "name": "_minShare",
          "type": "uint256"
        },
        {
          "internalType": "uint256",
          "name": "getId",
          "type": "uint256"
        }
      ],
      "name": "buyShare",
      "outputs": [],
      "stateMutability": "payable",
      "type": "function"
    },
    {
      "inputs": [],
      "name": "maticToken",
      "outputs": [
        {
          "internalType": "contract IERC20Interface",
          "name": "",
          "type": "address"
        }
      ],
      "stateMutability": "view",
      "type": "function"
    },
    {
      "inputs": [],
      "name": "stakeManagerProxy",
      "outputs": [
        {
          "internalType": "contract IStakeManagerProxy",
          "name": "",
          "type": "address"
        }
      ],
      "stateMutability": "view",
      "type": "function"
    }
  ],
  "bytecode": "0x608060405234801561001057600080fd5b5061059c806100206000396000f3fe6080604052600436106100345760003560e01c80634a58088814610039578063b2f5754714610064578063dc35429614610079575b600080fd5b34801561004557600080fd5b5061004e61008e565b60405161005b91906104ed565b60405180910390f35b6100776100723660046104a3565b6100a6565b005b34801561008557600080fd5b5061004e6102d1565b735e3ef299fddf15eaa0432e6e66473ace8c13d90881565b60006100b282856102e9565b60405163158d0b6360e21b8152909150600090735e3ef299fddf15eaa0432e6e66473ace8c13d908906356342d8c906100ef908990600401610530565b60206040518083038186803b15801561010757600080fd5b505afa15801561011b573d6000803e3d6000fd5b505050506040513d601f19601f8201168201806040525081019061013f9190610464565b90506001600160a01b0381166101705760405162461bcd60e51b815260040161016790610501565b60405180910390fd5b6101af6040518060400160405280601a81526020017f76616c696461746f72436f6e747261637441646472657373202000000000000081525082610388565b60405163095ea7b360e01b8152737d1afa7b718fb893db30a3abc0cfc608aacfebb09063095ea7b3906101fc90735e3ef299fddf15eaa0432e6e66473ace8c13d9089086906004016104d4565b600060405180830381600087803b15801561021657600080fd5b505af115801561022a573d6000803e3d6000fd5b5050604051636ab1507160e01b81526001600160a01b0384169250636ab15071915061025c9088908890600401610558565b600060405180830381600087803b15801561027657600080fd5b505af115801561028a573d6000803e3d6000fd5b505050507f73093c0ced516cc0dbd57eaaab24fe4e7798e8b4d269c852e8a0f31ef8db64218682876040516102c193929190610539565b60405180910390a1505050505050565b737d1afa7b718fb893db30a3abc0cfc608aacfebb081565b6000821561037f576040516354e3875560e11b81527370e0ba845a1a0f2da3359c97e0285013525ffc499063a9c70eaa90610328908690600401610530565b602060405180830381600087803b15801561034257600080fd5b505af1158015610356573d6000803e3d6000fd5b505050506040513d601f19601f8201168201806040525081019061037a919061048b565b610381565b815b9392505050565b61043f82826040516024018080602001836001600160a01b03168152602001828103825284818151815260200191508051906020019080838360005b838110156103dc5781810151838201526020016103c4565b50505050905090810190601f1680156104095780820380516001836020036101000a031916815260200191505b5060408051601f198184030181529190526020810180516001600160e01b031663319af33360e01b179052935061044392505050565b5050565b80516a636f6e736f6c652e6c6f67602083016000808483855afa5050505050565b600060208284031215610475578081fd5b81516001600160a01b0381168114610381578182fd5b60006020828403121561049c578081fd5b5051919050565b600080600080608085870312156104b8578283fd5b5050823594602084013594506040840135936060013592509050565b6001600160a01b03929092168252602082015260400190565b6001600160a01b0391909116815260200190565b60208082526015908201527476616c696461746f72206d7573742065786973747360581b604082015260600190565b90815260200190565b9283526001600160a01b03919091166020830152604082015260600190565b91825260208201526040019056fea2646970667358221220f2cc7e1e5427976f56e8829bf683c3fcd4f744315a2676c69b77abbf9c336bef64736f6c63430007060033",
  "linkReferences": {},
  "deployedLinkReferences": {}
}