{
  "_format": "hh-sol-artifact-1",
  "contractName": "ConnectV2AaveV2",
  "sourceName": "contracts/protocols/aave/ConnectV2AaveV2.sol",
  "abi": [
    {
      "anonymous": false,
      "inputs": [
        {
          "indexed": false,
          "internalType": "address",
          "name": "_sourceToken",
          "type": "address"
        },
        {
          "indexed": false,
          "internalType": "uint256",
          "name": "_depositAmount",
          "type": "uint256"
        },
        {
          "indexed": false,
          "internalType": "address",
          "name": "_borrowToken",
          "type": "address"
        },
        {
          "indexed": false,
          "internalType": "uint256",
          "name": "_borrowAmount",
          "type": "uint256"
        },
        {
          "indexed": false,
          "internalType": "uint256",
          "name": "_mode",
          "type": "uint256"
        }
      ],
      "name": "Borrow",
      "type": "event"
    },
    {
      "anonymous": false,
      "inputs": [
        {
          "indexed": true,
          "internalType": "address",
          "name": "token",
          "type": "address"
        },
        {
          "indexed": false,
          "internalType": "uint256",
          "name": "tokenAmt",
          "type": "uint256"
        },
        {
          "indexed": true,
          "internalType": "uint256",
          "name": "rateMode",
          "type": "uint256"
        },
        {
          "indexed": false,
          "internalType": "uint256",
          "name": "getId",
          "type": "uint256"
        },
        {
          "indexed": false,
          "internalType": "uint256",
          "name": "setId",
          "type": "uint256"
        }
      ],
      "name": "LogBorrow",
      "type": "event"
    },
    {
      "anonymous": false,
      "inputs": [
        {
          "indexed": true,
          "internalType": "address",
          "name": "token",
          "type": "address"
        },
        {
          "indexed": false,
          "internalType": "uint256",
          "name": "tokenAmt",
          "type": "uint256"
        },
        {
          "indexed": false,
          "internalType": "uint256",
          "name": "getId",
          "type": "uint256"
        },
        {
          "indexed": false,
          "internalType": "uint256",
          "name": "setId",
          "type": "uint256"
        }
      ],
      "name": "LogDeposit",
      "type": "event"
    },
    {
      "anonymous": false,
      "inputs": [
        {
          "indexed": false,
          "internalType": "address[]",
          "name": "tokens",
          "type": "address[]"
        }
      ],
      "name": "LogEnableCollateral",
      "type": "event"
    },
    {
      "anonymous": false,
      "inputs": [
        {
          "indexed": true,
          "internalType": "address",
          "name": "token",
          "type": "address"
        },
        {
          "indexed": false,
          "internalType": "uint256",
          "name": "tokenAmt",
          "type": "uint256"
        },
        {
          "indexed": true,
          "internalType": "uint256",
          "name": "rateMode",
          "type": "uint256"
        },
        {
          "indexed": false,
          "internalType": "uint256",
          "name": "getId",
          "type": "uint256"
        },
        {
          "indexed": false,
          "internalType": "uint256",
          "name": "setId",
          "type": "uint256"
        }
      ],
      "name": "LogPayback",
      "type": "event"
    },
    {
      "anonymous": false,
      "inputs": [
        {
          "indexed": true,
          "internalType": "address",
          "name": "token",
          "type": "address"
        },
        {
          "indexed": false,
          "internalType": "uint256",
          "name": "rateMode",
          "type": "uint256"
        }
      ],
      "name": "LogSwapRateMode",
      "type": "event"
    },
    {
      "anonymous": false,
      "inputs": [
        {
          "indexed": true,
          "internalType": "address",
          "name": "token",
          "type": "address"
        },
        {
          "indexed": false,
          "internalType": "uint256",
          "name": "tokenAmt",
          "type": "uint256"
        },
        {
          "indexed": false,
          "internalType": "uint256",
          "name": "getId",
          "type": "uint256"
        },
        {
          "indexed": false,
          "internalType": "uint256",
          "name": "setId",
          "type": "uint256"
        }
      ],
      "name": "LogWithdraw",
      "type": "event"
    },
    {
      "inputs": [
        {
          "internalType": "address",
          "name": "token",
          "type": "address"
        },
        {
          "internalType": "uint256",
          "name": "amt",
          "type": "uint256"
        },
        {
          "internalType": "uint256",
          "name": "rateMode",
          "type": "uint256"
        },
        {
          "internalType": "uint256",
          "name": "getId",
          "type": "uint256"
        },
        {
          "internalType": "uint256",
          "name": "setId",
          "type": "uint256"
        }
      ],
      "name": "borrow",
      "outputs": [],
      "stateMutability": "payable",
      "type": "function"
    },
    {
      "inputs": [
        {
          "internalType": "address",
          "name": "token",
          "type": "address"
        },
        {
          "internalType": "uint256",
          "name": "amt",
          "type": "uint256"
        },
        {
          "internalType": "uint256",
          "name": "setId",
          "type": "uint256"
        }
      ],
      "name": "deposit",
      "outputs": [
        {
          "internalType": "uint256",
          "name": "amount_",
          "type": "uint256"
        },
        {
          "internalType": "address",
          "name": "token_",
          "type": "address"
        }
      ],
      "stateMutability": "payable",
      "type": "function"
    },
    {
      "inputs": [
        {
          "internalType": "address",
          "name": "depositToken",
          "type": "address"
        },
        {
          "internalType": "address",
          "name": "borrowToken",
          "type": "address"
        },
        {
          "internalType": "uint256",
          "name": "depositAmt",
          "type": "uint256"
        },
        {
          "internalType": "uint256",
          "name": "borrowAmt",
          "type": "uint256"
        },
        {
          "internalType": "uint256",
          "name": "rateMode",
          "type": "uint256"
        },
        {
          "internalType": "uint256",
          "name": "getId",
          "type": "uint256"
        },
        {
          "internalType": "uint256",
          "name": "setId",
          "type": "uint256"
        }
      ],
      "name": "depositAndBorrow",
      "outputs": [],
      "stateMutability": "payable",
      "type": "function"
    },
    {
      "inputs": [
        {
          "internalType": "address[]",
          "name": "tokens",
          "type": "address[]"
        }
      ],
      "name": "enableCollateral",
      "outputs": [
        {
          "internalType": "string",
          "name": "_eventName",
          "type": "string"
        },
        {
          "internalType": "bytes",
          "name": "_eventParam",
          "type": "bytes"
        }
      ],
      "stateMutability": "payable",
      "type": "function"
    },
    {
      "inputs": [],
      "name": "name",
      "outputs": [
        {
          "internalType": "string",
          "name": "",
          "type": "string"
        }
      ],
      "stateMutability": "view",
      "type": "function"
    }
  ],
  "bytecode": "0x608060405234801561001057600080fd5b50610f29806100206000396000f3fe60806040526004361061004a5760003560e01c806306fdde031461004f5780630efe6a8b1461007a57806340861fc01461009b5780636abcd3de146100b0578063da2b65c8146100c3575b600080fd5b34801561005b57600080fd5b506100646100e4565b6040516100719190610e3e565b60405180910390f35b61008d610088366004610b26565b610109565b604051610071929190610eb6565b6100ae6100a9366004610ac5565b61037a565b005b6100ae6100be366004610b5a565b6103dc565b6100d66100d1366004610b9d565b610541565b604051610071929190610e51565b604051806040016040528060098152602001684161766556322d763160b81b81525081565b6000806000849050600073b53c1a33016b2dc2ff3653530bff1848a515c8c56001600160a01b0316630261bf8b6040518163ffffffff1660e01b815260040160206040518083038186803b15801561016057600080fd5b505afa158015610174573d6000803e3d6000fd5b505050506040513d601f19601f820116820180604052508101906101989190610aa9565b90506001600160a01b03871673eeeeeeeeeeeeeeeeeeeeeeeeeeeeeeeeeeeeeeee146000816101c757886101dd565b73c02aaa39b223fe8d0a0e5c4f27ead9083c756cc25b90508082156102095760001985146101f557846101f7565b475b9450610204838287610718565b610297565b60001985146102185784610294565b6040516370a0823160e01b81526001600160a01b038216906370a0823190610244903090600401610cf9565b60206040518083038186803b15801561025c57600080fd5b505afa158015610270573d6000803e3d6000fd5b505050506040513d601f19601f820116820180604052508101906102949190610c0c565b94505b60405163095ea7b360e01b81526001600160a01b0382169063095ea7b3906102c59087908990600401610d42565b600060405180830381600087803b1580156102df57600080fd5b505af11580156102f3573d6000803e3d6000fd5b505060405163e8eda9df60e01b81526001600160a01b038716925063e8eda9df915061032b90859089903090610c9c90600401610d5b565b600060405180830381600087803b15801561034557600080fd5b505af1158015610359573d6000803e3d6000fd5b5050505084965081955061036d8886610778565b5050505050935093915050565b610385878683610109565b505061039486858585856103dc565b7f49dd87b26edb1c92c93f83b092bd5a425c6bf7a562c0fed02f2576c49f477ba487868887876040516103cb959493929190610d88565b60405180910390a150505050505050565b60006103e883866107ee565b9050600073b53c1a33016b2dc2ff3653530bff1848a515c8c56001600160a01b0316630261bf8b6040518163ffffffff1660e01b815260040160206040518083038186803b15801561043957600080fd5b505afa15801561044d573d6000803e3d6000fd5b505050506040513d601f19601f820116820180604052508101906104719190610aa9565b90506001600160a01b03871673eeeeeeeeeeeeeeeeeeeeeeeeeeeeeeeeeeeeeeee146000816104a057886104b6565b73c02aaa39b223fe8d0a0e5c4f27ead9083c756cc25b60405163a415bcad60e01b81529091506001600160a01b0384169063a415bcad906104ef90849088908c90610c9c903090600401610dbc565b600060405180830381600087803b15801561050957600080fd5b505af115801561051d573d6000803e3d6000fd5b5050505061052c82828661088d565b6105368585610778565b505050505050505050565b606080828061056b5760405162461bcd60e51b815260040161056290610e7f565b60405180910390fd5b600073b53c1a33016b2dc2ff3653530bff1848a515c8c56001600160a01b0316630261bf8b6040518163ffffffff1660e01b815260040160206040518083038186803b1580156105ba57600080fd5b505afa1580156105ce573d6000803e3d6000fd5b505050506040513d601f19601f820116820180604052508101906105f29190610aa9565b905060005b828110156106b257600087878381811061060d57fe5b90506020020160208101906106229190610a8d565b9050600061062f82610956565b1180156106425750610640816109f2565b155b156106a957604051635a3b74b960e01b81526001600160a01b03841690635a3b74b990610676908490600190600401610d27565b600060405180830381600087803b15801561069057600080fd5b505af11580156106a4573d6000803e3d6000fd5b505050505b506001016105f7565b506040518060400160405280601e81526020017f4c6f67456e61626c65436f6c6c61746572616c28616464726573735b5d290000815250935085856040516020016106fe929190610df0565b604051602081830303815290604052925050509250929050565b821561077357816001600160a01b031663d0e30db0826040518263ffffffff1660e01b81526004016000604051808303818588803b15801561075957600080fd5b505af115801561076d573d6000803e3d6000fd5b50505050505b505050565b81156107ea57604051631878f25160e21b81527370e0ba845a1a0f2da3359c97e0285013525ffc49906361e3c944906107b79085908590600401610ecd565b600060405180830381600087803b1580156107d157600080fd5b505af11580156107e5573d6000803e3d6000fd5b505050505b5050565b60008215610884576040516354e3875560e11b81527370e0ba845a1a0f2da3359c97e0285013525ffc499063a9c70eaa9061082d908690600401610ead565b602060405180830381600087803b15801561084757600080fd5b505af115801561085b573d6000803e3d6000fd5b505050506040513d601f19601f8201168201806040525081019061087f9190610c0c565b610886565b815b9392505050565b82156107735760405163095ea7b360e01b81526001600160a01b0383169063095ea7b3906108c19085908590600401610d42565b600060405180830381600087803b1580156108db57600080fd5b505af11580156108ef573d6000803e3d6000fd5b5050604051632e1a7d4d60e01b81526001600160a01b0385169250632e1a7d4d915061091f908490600401610ead565b600060405180830381600087803b15801561093957600080fd5b505af115801561094d573d6000803e3d6000fd5b50505050505050565b6040516328dd2d0160e01b815260009073057835ad21a177dbdd3090bb1cae03eacf78fc6d906328dd2d01906109929085903090600401610d0d565b6101206040518083038186803b1580156109ab57600080fd5b505afa1580156109bf573d6000803e3d6000fd5b505050506040513d601f19601f820116820180604052508101906109e39190610c24565b50969998505050505050505050565b6040516328dd2d0160e01b815260009073057835ad21a177dbdd3090bb1cae03eacf78fc6d906328dd2d0190610a2e9085903090600401610d0d565b6101206040518083038186803b158015610a4757600080fd5b505afa158015610a5b573d6000803e3d6000fd5b505050506040513d601f19601f82011682018060405250810190610a7f9190610c24565b9a9950505050505050505050565b600060208284031215610a9e578081fd5b813561088681610edb565b600060208284031215610aba578081fd5b815161088681610edb565b600080600080600080600060e0888a031215610adf578283fd5b8735610aea81610edb565b96506020880135610afa81610edb565b96999698505050506040850135946060810135946080820135945060a0820135935060c0909101359150565b600080600060608486031215610b3a578283fd5b8335610b4581610edb565b95602085013595506040909401359392505050565b600080600080600060a08688031215610b71578081fd5b8535610b7c81610edb565b97602087013597506040870135966060810135965060800135945092505050565b60008060208385031215610baf578182fd5b823567ffffffffffffffff80821115610bc6578384fd5b818501915085601f830112610bd9578384fd5b813581811115610be7578485fd5b8660208083028501011115610bfa578485fd5b60209290920196919550909350505050565b600060208284031215610c1d578081fd5b5051919050565b60008060008060008060008060006101208a8c031215610c42578182fd5b8951985060208a0151975060408a0151965060608a0151955060808a0151945060a08a0151935060c08a0151925060e08a015164ffffffffff81168114610c87578283fd5b6101008b01519092508015158114610c9d578182fd5b809150509295985092959850929598565b60008151808452815b81811015610cd357602081850181015186830182015201610cb7565b81811115610ce45782602083870101525b50601f01601f19169290920160200192915050565b6001600160a01b0391909116815260200190565b6001600160a01b0392831681529116602082015260400190565b6001600160a01b039290921682521515602082015260400190565b6001600160a01b03929092168252602082015260400190565b6001600160a01b03948516815260208101939093529216604082015261ffff909116606082015260800190565b6001600160a01b03958616815260208101949094529190931660408301526060820192909252608081019190915260a00190565b6001600160a01b0395861681526020810194909452604084019290925261ffff166060830152909116608082015260a00190565b60208082528181018390526000908460408401835b86811015610e33578235610e1881610edb565b6001600160a01b031682529183019190830190600101610e05565b509695505050505050565b6000602082526108866020830184610cae565b600060408252610e646040830185610cae565b8281036020840152610e768185610cae565b95945050505050565b6020808252601490820152730c0b5d1bdad95b9ccb5b9bdd0b585b1b1bddd95960621b604082015260600190565b90815260200190565b9182526001600160a01b0316602082015260400190565b918252602082015260400190565b6001600160a01b0381168114610ef057600080fd5b5056fea2646970667358221220d7f796dccd44083327a60d8c8558daa735f296f354ed7d1dc076d47e0536fbac64736f6c63430007060033",
  "linkReferences": {},
  "deployedLinkReferences": {}
}