{
  "_format": "hh-sol-artifact-1",
  "contractName": "FundGateway",
  "sourceName": "contracts/FundGateway.sol",
  "abi": [
    {
      "inputs": [
        {
          "internalType": "address",
          "name": "_token",
          "type": "address"
        },
        {
          "internalType": "uint256",
          "name": "_amount",
          "type": "uint256"
        }
      ],
      "name": "deposit",
      "outputs": [],
      "stateMutability": "nonpayable",
      "type": "function"
    },
    {
      "inputs": [
        {
          "internalType": "address",
          "name": "_token",
          "type": "address"
        },
        {
          "internalType": "uint256",
          "name": "_amount",
          "type": "uint256"
        }
      ],
      "name": "withdraw",
      "outputs": [],
      "stateMutability": "nonpayable",
      "type": "function"
    }
  ],
  "bytecode": "0x608060405234801561001057600080fd5b506102a5806100206000396000f3fe608060405234801561001057600080fd5b50600436106100365760003560e01c806347e7ef241461003b578063f3fef3a314610050575b600080fd5b61004e6100493660046101d5565b610063565b005b61004e61005e3660046101d5565b6100ea565b6040516323b872dd60e01b81526001600160a01b038316906323b872dd9061009390339030908690600401610232565b602060405180830381600087803b1580156100ad57600080fd5b505af11580156100c1573d6000803e3d6000fd5b505050506040513d601f19601f820116820180604052508101906100e5919061020b565b505050565b6001600160a01b03821673eeeeeeeeeeeeeeeeeeeeeeeeeeeeeeeeeeeeeeee1433811561014d576040516001600160a01b0382169084156108fc029085906000818181858888f19350505050158015610147573d6000803e3d6000fd5b506101cf565b60405163a9059cbb60e01b81526001600160a01b0385169063a9059cbb9061017b9033908790600401610256565b602060405180830381600087803b15801561019557600080fd5b505af11580156101a9573d6000803e3d6000fd5b505050506040513d601f19601f820116820180604052508101906101cd919061020b565b505b50505050565b600080604083850312156101e7578182fd5b82356001600160a01b03811681146101fd578283fd5b946020939093013593505050565b60006020828403121561021c578081fd5b8151801515811461022b578182fd5b9392505050565b6001600160a01b039384168152919092166020820152604081019190915260600190565b6001600160a01b0392909216825260208201526040019056fea2646970667358221220ae640e389aee12c81b2e863b21bcb0b7bcd82b875767eb9fcdbd26e7623065fa64736f6c63430007060033",
  "linkReferences": {},
  "deployedLinkReferences": {}
}