{
  "_format": "hh-sol-artifact-1",
  "contractName": "FundGateway",
  "sourceName": "contracts/FundGateway.sol",
  "abi": [
    {
      "inputs": [
        {
          "internalType": "address",
          "name": "_token",
          "type": "address"
        },
        {
          "internalType": "uint256",
          "name": "_amount",
          "type": "uint256"
        }
      ],
      "name": "deposit",
      "outputs": [],
      "stateMutability": "nonpayable",
      "type": "function"
    },
    {
      "inputs": [
        {
          "internalType": "address",
          "name": "_token",
          "type": "address"
        },
        {
          "internalType": "uint256",
          "name": "_amount",
          "type": "uint256"
        },
        {
          "internalType": "uint256",
          "name": "getId",
          "type": "uint256"
        }
      ],
      "name": "withdraw",
      "outputs": [],
      "stateMutability": "payable",
      "type": "function"
    }
  ],
  "bytecode": "0x608060405234801561001057600080fd5b506104bc806100206000396000f3fe6080604052600436106100295760003560e01c806347e7ef241461002e578063b5c5f67214610050575b600080fd5b34801561003a57600080fd5b5061004e6100493660046103ad565b610063565b005b61004e61005e3660046103d6565b6100ea565b6040516323b872dd60e01b81526001600160a01b038316906323b872dd9061009390339030908690600401610440565b602060405180830381600087803b1580156100ad57600080fd5b505af11580156100c1573d6000803e3d6000fd5b505050506040513d601f19601f820116820180604052508101906100e59190610408565b505050565b60006100f68284610216565b60408051808201909152600d81526c03132b732b334b1b4b0b93c901609d1b60208201529091506001600160a01b03851673eeeeeeeeeeeeeeeeeeeeeeeeeeeeeeeeeeeeeeee1490339061014a90826102b5565b811561018c576040516001600160a01b0382169084156108fc029085906000818181858888f19350505050158015610186573d6000803e3d6000fd5b5061020e565b60405163a9059cbb60e01b81526001600160a01b0387169063a9059cbb906101ba9033908790600401610464565b602060405180830381600087803b1580156101d457600080fd5b505af11580156101e8573d6000803e3d6000fd5b505050506040513d601f19601f8201168201806040525081019061020c9190610408565b505b505050505050565b600082156102ac576040516354e3875560e11b815273cd8a1c3ba11cf5ecfa6267617243239504a98d909063a9c70eaa9061025590869060040161047d565b602060405180830381600087803b15801561026f57600080fd5b505af1158015610283573d6000803e3d6000fd5b505050506040513d601f19601f820116820180604052508101906102a79190610428565b6102ae565b815b9392505050565b61036c82826040516024018080602001836001600160a01b03168152602001828103825284818151815260200191508051906020019080838360005b838110156103095781810151838201526020016102f1565b50505050905090810190601f1680156103365780820380516001836020036101000a031916815260200191505b5060408051601f198184030181529190526020810180516001600160e01b031663319af33360e01b179052935061037092505050565b5050565b80516a636f6e736f6c652e6c6f67602083016000808483855afa5050505050565b80356001600160a01b03811681146103a857600080fd5b919050565b600080604083850312156103bf578182fd5b6103c883610391565b946020939093013593505050565b6000806000606084860312156103ea578081fd5b6103f384610391565b95602085013595506040909401359392505050565b600060208284031215610419578081fd5b815180151581146102ae578182fd5b600060208284031215610439578081fd5b5051919050565b6001600160a01b039384168152919092166020820152604081019190915260600190565b6001600160a01b03929092168252602082015260400190565b9081526020019056fea2646970667358221220034f9ad74dc6c70c37f8e7e72b7b5e1abc1071b3dcb16a383b54d0d99b9bd1e764736f6c63430007060033",
  "linkReferences": {},
  "deployedLinkReferences": {}
}