{
  "_format": "hh-sol-artifact-1",
  "contractName": "GraphProtocol",
  "sourceName": "contracts/protocols/graph-protocol/GraphProtocol.sol",
  "abi": [
    {
      "anonymous": false,
      "inputs": [
        {
          "indexed": false,
          "internalType": "address",
          "name": "_indexer",
          "type": "address"
        },
        {
          "indexed": false,
          "internalType": "uint256",
          "name": "_amount",
          "type": "uint256"
        },
        {
          "indexed": false,
          "internalType": "uint256",
          "name": "_share",
          "type": "uint256"
        }
      ],
      "name": "GraphProtocolDelegated",
      "type": "event"
    },
    {
      "anonymous": false,
      "inputs": [
        {
          "indexed": false,
          "internalType": "address",
          "name": "_indexer",
          "type": "address"
        },
        {
          "indexed": false,
          "internalType": "uint256",
          "name": "_amount",
          "type": "uint256"
        },
        {
          "indexed": false,
          "internalType": "uint256",
          "name": "_share",
          "type": "uint256"
        }
      ],
      "name": "GraphProtocolUnDelegated",
      "type": "event"
    },
    {
      "anonymous": false,
      "inputs": [
        {
          "indexed": false,
          "internalType": "address",
          "name": "_indexer",
          "type": "address"
        },
        {
          "indexed": false,
          "internalType": "address",
          "name": "_delegateToIndexer",
          "type": "address"
        },
        {
          "indexed": false,
          "internalType": "uint256",
          "name": "_tokens",
          "type": "uint256"
        }
      ],
      "name": "GraphProtocolWithdrawDelegated",
      "type": "event"
    },
    {
      "anonymous": false,
      "inputs": [
        {
          "indexed": false,
          "internalType": "address",
          "name": "_graphProxy",
          "type": "address"
        },
        {
          "indexed": false,
          "internalType": "address",
          "name": "_grtTokenAddress",
          "type": "address"
        }
      ],
      "name": "LogDelegate",
      "type": "event"
    },
    {
      "inputs": [
        {
          "internalType": "address",
          "name": "_indexer",
          "type": "address"
        },
        {
          "internalType": "uint256",
          "name": "_tokens",
          "type": "uint256"
        },
        {
          "internalType": "uint256",
          "name": "getId",
          "type": "uint256"
        }
      ],
      "name": "delegate",
      "outputs": [
        {
          "internalType": "uint256",
          "name": "shares_",
          "type": "uint256"
        }
      ],
      "stateMutability": "payable",
      "type": "function"
    },
    {
      "inputs": [],
      "name": "graphProxy",
      "outputs": [
        {
          "internalType": "contract IGraphProtocolInterface",
          "name": "",
          "type": "address"
        }
      ],
      "stateMutability": "view",
      "type": "function"
    },
    {
      "inputs": [],
      "name": "grtTokenAddress",
      "outputs": [
        {
          "internalType": "contract IERC20Interface",
          "name": "",
          "type": "address"
        }
      ],
      "stateMutability": "view",
      "type": "function"
    },
    {
      "inputs": [
        {
          "internalType": "address",
          "name": "_indexer",
          "type": "address"
        },
        {
          "internalType": "uint256",
          "name": "_shares",
          "type": "uint256"
        },
        {
          "internalType": "uint256",
          "name": "getId",
          "type": "uint256"
        }
      ],
      "name": "undelegate",
      "outputs": [
        {
          "internalType": "uint256",
          "name": "tokens_",
          "type": "uint256"
        }
      ],
      "stateMutability": "nonpayable",
      "type": "function"
    },
    {
      "inputs": [
        {
          "internalType": "address",
          "name": "_indexer",
          "type": "address"
        },
        {
          "internalType": "address",
          "name": "_delegateToIndexer",
          "type": "address"
        }
      ],
      "name": "withdrawDelegated",
      "outputs": [
        {
          "internalType": "uint256",
          "name": "tokens_",
          "type": "uint256"
        }
      ],
      "stateMutability": "nonpayable",
      "type": "function"
    }
  ],
  "bytecode": "0x608060405234801561001057600080fd5b506106b7806100206000396000f3fe60806040526004361061004a5760003560e01c80630185921e1461004f57806337ebce271461007857806351a60b021461009a578063796e4109146100ba578063f522f8cf146100cf575b600080fd5b61006261005d3660046105a2565b6100ef565b60405161006f9190610678565b60405180910390f35b34801561008457600080fd5b5061008d610111565b60405161006f9190610664565b3480156100a657600080fd5b506100626100b5366004610570565b610129565b3480156100c657600080fd5b5061008d6101fa565b3480156100db57600080fd5b506100626100ea3660046105a2565b610212565b6000806100fc83856102f2565b90506101088582610391565b95945050505050565b73f55041e37e12cd407ad00ce2910b8269b01263b981565b6040516328d3058160e11b815260009073f55041e37e12cd407ad00ce2910b8269b01263b9906351a60b029061016590869086906004016105ec565b602060405180830381600087803b15801561017f57600080fd5b505af1158015610193573d6000803e3d6000fd5b505050506040513d601f19601f820116820180604052508101906101b791906105d4565b90507f0eb4cb385b7689ae1f07c30552bd19fc0a4736965f29a3a9e9b37f6a1d21c9c68383836040516101ec93929190610606565b60405180910390a192915050565b73c944e90c64b2c07662a292be6244bdf05cda44a781565b60008061021f83856102f2565b6040516326ccee8b60e11b815290915073f55041e37e12cd407ad00ce2910b8269b01263b990634d99dd169061025b908890859060040161062a565b602060405180830381600087803b15801561027557600080fd5b505af1158015610289573d6000803e3d6000fd5b505050506040513d601f19601f820116820180604052508101906102ad91906105d4565b91507fac03ff6d8cef1f899bcef3aca4d90927f65f7c03869e465e15f92f07ab97fa0b8583866040516102e293929190610643565b60405180910390a1509392505050565b60008215610388576040516354e3875560e11b815273cd8a1c3ba11cf5ecfa6267617243239504a98d909063a9c70eaa90610331908690600401610678565b602060405180830381600087803b15801561034b57600080fd5b505af115801561035f573d6000803e3d6000fd5b505050506040513d601f19601f8201168201806040525081019061038391906105d4565b61038a565b815b9392505050565b60405163095ea7b360e01b815260009073c944e90c64b2c07662a292be6244bdf05cda44a79063095ea7b3906103e19073f55041e37e12cd407ad00ce2910b8269b01263b990869060040161062a565b600060405180830381600087803b1580156103fb57600080fd5b505af115801561040f573d6000803e3d6000fd5b505060405163026e402b60e01b815273f55041e37e12cd407ad00ce2910b8269b01263b9925063026e402b915061044c908690869060040161062a565b602060405180830381600087803b15801561046657600080fd5b505af115801561047a573d6000803e3d6000fd5b505050506040513d601f19601f8201168201806040525081019061049e91906105d4565b60405163095ea7b360e01b815290915073c944e90c64b2c07662a292be6244bdf05cda44a79063095ea7b3906104ef9073f55041e37e12cd407ad00ce2910b8269b01263b99060009060040161062a565b600060405180830381600087803b15801561050957600080fd5b505af115801561051d573d6000803e3d6000fd5b505050507fac03ff6d8cef1f899bcef3aca4d90927f65f7c03869e465e15f92f07ab97fa0b8383836040516101ec93929190610643565b80356001600160a01b038116811461056b57600080fd5b919050565b60008060408385031215610582578182fd5b61058b83610554565b915061059960208401610554565b90509250929050565b6000806000606084860312156105b6578081fd5b6105bf84610554565b95602085013595506040909401359392505050565b6000602082840312156105e5578081fd5b5051919050565b6001600160a01b0392831681529116602082015260400190565b6001600160a01b039384168152919092166020820152604081019190915260600190565b6001600160a01b03929092168252602082015260400190565b6001600160a01b039390931683526020830191909152604082015260600190565b6001600160a01b0391909116815260200190565b9081526020019056fea26469706673582212209d6fe2c89bd986b6e27af84ae83b0e229506551c2f4865550fb7a7eaf78554b664736f6c63430007060033",
  "linkReferences": {},
  "deployedLinkReferences": {}
}