{
  "_format": "hh-sol-artifact-1",
  "contractName": "GraphProtocol",
  "sourceName": "contracts/protocols/graph-protocol/GraphProtocol.sol",
  "abi": [
    {
      "constant": false,
      "inputs": [
        {
          "name": "_indexer",
          "type": "address"
        },
        {
          "name": "_tokens",
          "type": "uint256"
        }
      ],
      "name": "delegate",
      "outputs": [
        {
          "name": "shares_",
          "type": "uint256"
        }
      ],
      "payable": false,
      "stateMutability": "nonpayable",
      "type": "function"
    },
    {
      "constant": true,
      "inputs": [],
      "name": "graphProxy",
      "outputs": [
        {
          "name": "",
          "type": "address"
        }
      ],
      "payable": false,
      "stateMutability": "view",
      "type": "function"
    },
    {
      "constant": false,
      "inputs": [
        {
          "name": "_indexer",
          "type": "address"
        },
        {
          "name": "_shares",
          "type": "uint256"
        }
      ],
      "name": "undelegate",
      "outputs": [
        {
          "name": "tokens_",
          "type": "uint256"
        }
      ],
      "payable": false,
      "stateMutability": "nonpayable",
      "type": "function"
    },
    {
      "constant": false,
      "inputs": [
        {
          "name": "_indexer",
          "type": "address"
        },
        {
          "name": "_delegateToIndexer",
          "type": "address"
        }
      ],
      "name": "withdrawDelegated",
      "outputs": [
        {
          "name": "tokens_",
          "type": "uint256"
        }
      ],
      "payable": false,
      "stateMutability": "nonpayable",
      "type": "function"
    },
    {
      "constant": true,
      "inputs": [],
      "name": "grtTokenAddress",
      "outputs": [
        {
          "name": "",
          "type": "address"
        }
      ],
      "payable": false,
      "stateMutability": "view",
      "type": "function"
    },
    {
      "anonymous": false,
      "inputs": [
        {
          "indexed": false,
          "name": "_graphProxy",
          "type": "address"
        },
        {
          "indexed": false,
          "name": "_grtTokenAddress",
          "type": "address"
        }
      ],
      "name": "LogDelegate",
      "type": "event"
    },
    {
      "anonymous": false,
      "inputs": [
        {
          "indexed": false,
          "name": "_indexer",
          "type": "address"
        },
        {
          "indexed": false,
          "name": "_amount",
          "type": "uint256"
        },
        {
          "indexed": false,
          "name": "_share",
          "type": "uint256"
        }
      ],
      "name": "GraphProtocolDelegated",
      "type": "event"
    },
    {
      "anonymous": false,
      "inputs": [
        {
          "indexed": false,
          "name": "_indexer",
          "type": "address"
        },
        {
          "indexed": false,
          "name": "_amount",
          "type": "uint256"
        },
        {
          "indexed": false,
          "name": "_share",
          "type": "uint256"
        }
      ],
      "name": "GraphProtocolUnDelegated",
      "type": "event"
    },
    {
      "anonymous": false,
      "inputs": [
        {
          "indexed": false,
          "name": "_indexer",
          "type": "address"
        },
        {
          "indexed": false,
          "name": "_delegateToIndexer",
          "type": "address"
        },
        {
          "indexed": false,
          "name": "_tokens",
          "type": "uint256"
        }
      ],
      "name": "GraphProtocolWithdrawDelegated",
      "type": "event"
    }
  ],
  "bytecode": "0x608060405234801561001057600080fd5b50610714806100206000396000f3fe608060405234801561001057600080fd5b5060043610610073577c01000000000000000000000000000000000000000000000000000000006000350463026e402b811461007857806337ebce27146100b65780634d99dd16146100da57806351a60b0214610106578063796e410914610134575b600080fd5b6100a46004803603604081101561008e57600080fd5b50600160a060020a03813516906020013561013c565b60408051918252519081900360200190f35b6100be61041b565b60408051600160a060020a039092168252519081900360200190f35b6100a4600480360360408110156100f057600080fd5b50600160a060020a038135169060200135610433565b6100a46004803603604081101561011c57600080fd5b50600160a060020a0381358116916020013516610531565b6100be6106d0565b604080517f23b872dd0000000000000000000000000000000000000000000000000000000081523360048201523060248201526044810183905290516000917354fe55d5d255b8460fb3bc52d5d676f9ae5697cd916323b872dd9160648082019260209290919082900301818787803b1580156101b857600080fd5b505af11580156101cc573d6000803e3d6000fd5b505050506040513d60208110156101e257600080fd5b5050604080517f095ea7b3000000000000000000000000000000000000000000000000000000008152732d44c0e097f6cd0f514edac633d82e01280b4a5c60048201526024810184905290517354fe55d5d255b8460fb3bc52d5d676f9ae5697cd9163095ea7b391604480830192600092919082900301818387803b15801561026a57600080fd5b505af115801561027e573d6000803e3d6000fd5b5050604080517f026e402b000000000000000000000000000000000000000000000000000000008152600160a060020a0387166004820152602481018690529051732d44c0e097f6cd0f514edac633d82e01280b4a5c935063026e402b925060448083019260209291908290030181600087803b1580156102fe57600080fd5b505af1158015610312573d6000803e3d6000fd5b505050506040513d602081101561032857600080fd5b5051604080517f095ea7b3000000000000000000000000000000000000000000000000000000008152732d44c0e097f6cd0f514edac633d82e01280b4a5c600482015260006024820181905291519293507354fe55d5d255b8460fb3bc52d5d676f9ae5697cd9263095ea7b39260448084019391929182900301818387803b1580156103b357600080fd5b505af11580156103c7573d6000803e3d6000fd5b505060408051600160a060020a03871681526020810186905280820185905290517fac03ff6d8cef1f899bcef3aca4d90927f65f7c03869e465e15f92f07ab97fa0b9350908190036060019150a192915050565b732d44c0e097f6cd0f514edac633d82e01280b4a5c81565b604080517f4d99dd16000000000000000000000000000000000000000000000000000000008152600160a060020a0384166004820152602481018390529051600091732d44c0e097f6cd0f514edac633d82e01280b4a5c91634d99dd169160448082019260209290919082900301818787803b1580156104b257600080fd5b505af11580156104c6573d6000803e3d6000fd5b505050506040513d60208110156104dc57600080fd5b505160408051600160a060020a03861681526020810183905280820185905290519192507fac03ff6d8cef1f899bcef3aca4d90927f65f7c03869e465e15f92f07ab97fa0b919081900360600190a192915050565b604080517f51a60b02000000000000000000000000000000000000000000000000000000008152600160a060020a038481166004830152831660248201529051600091732d44c0e097f6cd0f514edac633d82e01280b4a5c916351a60b029160448082019260209290919082900301818787803b1580156105b157600080fd5b505af11580156105c5573d6000803e3d6000fd5b505050506040513d60208110156105db57600080fd5b5051604080517fa9059cbb0000000000000000000000000000000000000000000000000000000081523360048201526024810183905290519192507354fe55d5d255b8460fb3bc52d5d676f9ae5697cd9163a9059cbb916044808201926020929091908290030181600087803b15801561065457600080fd5b505af1158015610668573d6000803e3d6000fd5b505050506040513d602081101561067e57600080fd5b505060408051600160a060020a0380861682528416602082015280820183905290517f0eb4cb385b7689ae1f07c30552bd19fc0a4736965f29a3a9e9b37f6a1d21c9c69181900360600190a192915050565b7354fe55d5d255b8460fb3bc52d5d676f9ae5697cd8156fea165627a7a72305820773a25b433224d8be304d4ef3feb613e24bbf57ef375f6f4ddf655edaba0be8c0029",
  "linkReferences": {},
  "deployedLinkReferences": {}
}