{
  "_format": "hh-sol-artifact-1",
  "contractName": "OneInch",
  "sourceName": "contracts/protocols/1inch/1Inch.sol",
  "abi": [
    {
      "anonymous": false,
      "inputs": [
        {
          "indexed": false,
          "internalType": "address",
          "name": "_source",
          "type": "address"
        },
        {
          "indexed": false,
          "internalType": "uint256",
          "name": "_sourceAmount",
          "type": "uint256"
        },
        {
          "indexed": false,
          "internalType": "address",
          "name": "_destination",
          "type": "address"
        },
        {
          "indexed": false,
          "internalType": "uint256",
          "name": "_destinationAmount",
          "type": "uint256"
        }
      ],
      "name": "TokenSwapped",
      "type": "event"
    },
    {
      "inputs": [
        {
          "internalType": "uint256",
          "name": "_amount",
          "type": "uint256"
        },
        {
          "internalType": "address",
          "name": "_sourceToken",
          "type": "address"
        },
        {
          "internalType": "address",
          "name": "_destinationToken",
          "type": "address"
        },
        {
          "internalType": "address",
          "name": "_to",
          "type": "address"
        },
        {
          "internalType": "bytes",
          "name": "_callData",
          "type": "bytes"
        },
        {
          "internalType": "uint256",
          "name": "_value",
          "type": "uint256"
        },
        {
          "internalType": "uint256",
          "name": "getId",
          "type": "uint256"
        },
        {
          "internalType": "uint256",
          "name": "setId",
          "type": "uint256"
        }
      ],
      "name": "swap",
      "outputs": [
        {
          "internalType": "uint256",
          "name": "_swappedAmount",
          "type": "uint256"
        }
      ],
      "stateMutability": "payable",
      "type": "function"
    }
  ],
  "bytecode": "0x608060405234801561001057600080fd5b50610687806100206000396000f3fe60806040526004361061001e5760003560e01c8063fa47f6a514610023575b600080fd5b610036610031366004610493565b61004c565b604051610043919061063a565b60405180910390f35b600080610059848b610082565b9050610069818a8a8a8a8a610121565b915061007583836103e9565b5098975050505050505050565b60008215610118576040516354e3875560e11b81527370e0ba845a1a0f2da3359c97e0285013525ffc499063a9c70eaa906100c190869060040161063a565b602060405180830381600087803b1580156100db57600080fd5b505af11580156100ef573d6000803e3d6000fd5b505050506040513d601f19601f82011682018060405250810190610113919061047b565b61011a565b815b9392505050565b60006001600160a01b03861673eeeeeeeeeeeeeeeeeeeeeeeeeeeeeeeeeeeeeeee14806101a95760405163095ea7b360e01b81526001600160a01b0388169063095ea7b3906101769088908c906004016105cc565b600060405180830381600087803b15801561019057600080fd5b505af11580156101a4573d6000803e3d6000fd5b505050505b6040516370a0823160e01b81526000906001600160a01b038816906370a08231906101d89030906004016105b8565b60206040518083038186803b1580156101f057600080fd5b505afa158015610204573d6000803e3d6000fd5b505050506040513d601f19601f82011682018060405250810190610228919061047b565b90506000866001600160a01b03168587604051610245919061057f565b60006040518083038185875af1925050503d8060008114610282576040519150601f19603f3d011682016040523d82523d6000602084013e610287565b606091505b50509050806102b15760405162461bcd60e51b81526004016102a89061060f565b60405180910390fd5b6040516370a0823160e01b81526000906001600160a01b038a16906370a08231906102e09030906004016105b8565b60206040518083038186803b1580156102f857600080fd5b505afa15801561030c573d6000803e3d6000fd5b505050506040513d601f19601f82011682018060405250810190610330919061047b565b9050836103995760405163095ea7b360e01b81526001600160a01b038b169063095ea7b390610366908b906000906004016105cc565b600060405180830381600087803b15801561038057600080fd5b505af1158015610394573d6000803e3d6000fd5b505050505b82810394507f81530fc4b9af72da99fec8cd4b055559a95085b63d6d713875a3b410b01a7e9b8a8c8b886040516103d394939291906105e5565b60405180910390a1505050509695505050505050565b811561045b57604051631878f25160e21b81527370e0ba845a1a0f2da3359c97e0285013525ffc49906361e3c944906104289085908590600401610643565b600060405180830381600087803b15801561044257600080fd5b505af1158015610456573d6000803e3d6000fd5b505050505b5050565b80356001600160a01b038116811461047657600080fd5b919050565b60006020828403121561048c578081fd5b5051919050565b600080600080600080600080610100898b0312156104af578384fd5b8835975060206104c0818b0161045f565b97506104ce60408b0161045f565b96506104dc60608b0161045f565b955060808a013567ffffffffffffffff808211156104f8578687fd5b818c0191508c601f83011261050b578687fd5b81358181111561051757fe5b604051601f8201601f191681018501838111828210171561053457fe5b60405281815283820185018f101561054a578889fd5b81858501868301379081019093019690965250979a969950949793969560a0850135955060c08501359460e001359350915050565b60008251815b8181101561059f5760208186018101518583015201610585565b818111156105ad5782828501525b509190910192915050565b6001600160a01b0391909116815260200190565b6001600160a01b03929092168252602082015260400190565b6001600160a01b039485168152602081019390935292166040820152606081019190915260800190565b6020808252601190820152700c525b98da0b5cddd85c0b59985a5b1959607a1b604082015260600190565b90815260200190565b91825260208201526040019056fea2646970667358221220d4a239a211d722f9fefb9337862839d5e55d19ac2b625d5a7709fc98f7fb0fe964736f6c63430007060033",
  "linkReferences": {},
  "deployedLinkReferences": {}
}