{
  "_format": "hh-sol-artifact-1",
  "contractName": "OneInch",
  "sourceName": "contracts/protocols/1inch/1Inch.sol",
  "abi": [
    {
      "anonymous": false,
      "inputs": [
        {
          "indexed": false,
          "internalType": "address",
          "name": "_source",
          "type": "address"
        },
        {
          "indexed": false,
          "internalType": "uint256",
          "name": "_sourceAmount",
          "type": "uint256"
        },
        {
          "indexed": false,
          "internalType": "address",
          "name": "_destination",
          "type": "address"
        },
        {
          "indexed": false,
          "internalType": "uint256",
          "name": "_destinationAmount",
          "type": "uint256"
        }
      ],
      "name": "TokenSwapped",
      "type": "event"
    },
    {
      "inputs": [
        {
          "internalType": "uint256",
          "name": "_amount",
          "type": "uint256"
        },
        {
          "internalType": "address",
          "name": "_sourceToken",
          "type": "address"
        },
        {
          "internalType": "address",
          "name": "_destinationToken",
          "type": "address"
        },
        {
          "internalType": "address",
          "name": "_to",
          "type": "address"
        },
        {
          "internalType": "bytes",
          "name": "_callData",
          "type": "bytes"
        },
        {
          "internalType": "uint256",
          "name": "_value",
          "type": "uint256"
        }
      ],
      "name": "swap",
      "outputs": [
        {
          "internalType": "uint256",
          "name": "_swappedAmount",
          "type": "uint256"
        }
      ],
      "stateMutability": "payable",
      "type": "function"
    }
  ],
  "bytecode": "0x608060405234801561001057600080fd5b506105be806100206000396000f3fe60806040526004361061001e5760003560e01c80636883031d14610023575b600080fd5b6100366100313660046103c5565b61004c565b604051610043919061057f565b60405180910390f35b600080856001600160a01b03166370a08231336040518263ffffffff1660e01b815260040161007b91906104d9565b60206040518083038186803b15801561009357600080fd5b505afa1580156100a7573d6000803e3d6000fd5b505050506040513d601f19601f820116820180604052508101906100cb91906103ad565b6040516323b872dd60e01b81529091506001600160a01b038816906323b872dd906100fe90339030908d906004016104ed565b602060405180830381600087803b15801561011857600080fd5b505af115801561012c573d6000803e3d6000fd5b505050506040513d601f19601f820116820180604052508101906101509190610386565b5060405163095ea7b360e01b81526001600160a01b0388169063095ea7b39061017f9088908c90600401610511565b600060405180830381600087803b15801561019957600080fd5b505af11580156101ad573d6000803e3d6000fd5b505050506000856001600160a01b031684866040516101cc91906104a0565b60006040518083038185875af1925050503d8060008114610209576040519150601f19603f3d011682016040523d82523d6000602084013e61020e565b606091505b50509050806102385760405162461bcd60e51b815260040161022f90610554565b60405180910390fd5b6040516370a0823160e01b81526000906001600160a01b038916906370a08231906102679033906004016104d9565b60206040518083038186803b15801561027f57600080fd5b505afa158015610293573d6000803e3d6000fd5b505050506040513d601f19601f820116820180604052508101906102b791906103ad565b60405163095ea7b360e01b81529091506001600160a01b038a169063095ea7b3906102e9908a90600090600401610511565b600060405180830381600087803b15801561030357600080fd5b505af1158015610317573d6000803e3d6000fd5b5050505082810393507f81530fc4b9af72da99fec8cd4b055559a95085b63d6d713875a3b410b01a7e9b898b8a87604051610355949392919061052a565b60405180910390a15050509695505050505050565b80356001600160a01b038116811461038157600080fd5b919050565b600060208284031215610397578081fd5b815180151581146103a6578182fd5b9392505050565b6000602082840312156103be578081fd5b5051919050565b60008060008060008060c087890312156103dd578182fd5b8635955060206103ee81890161036a565b95506103fc6040890161036a565b945061040a6060890161036a565b9350608088013567ffffffffffffffff80821115610426578485fd5b818a0191508a601f830112610439578485fd5b81358181111561044557fe5b604051601f8201601f191681018501838111828210171561046257fe5b60405281815283820185018d1015610478578687fd5b818585018683013786858383010152809650505050505060a087013590509295509295509295565b60008251815b818110156104c057602081860181015185830152016104a6565b818111156104ce5782828501525b509190910192915050565b6001600160a01b0391909116815260200190565b6001600160a01b039384168152919092166020820152604081019190915260600190565b6001600160a01b03929092168252602082015260400190565b6001600160a01b039485168152602081019390935292166040820152606081019190915260800190565b6020808252601190820152700c525b98da0b5cddd85c0b59985a5b1959607a1b604082015260600190565b9081526020019056fea2646970667358221220fc56ff277f62f91e36be6ab449eadfa7a8ac1354a85bf597c182b7e12056fc9f64736f6c63430007060033",
  "linkReferences": {},
  "deployedLinkReferences": {}
}