{
  "_format": "hh-sol-artifact-1",
  "contractName": "BitStakeMemory",
  "sourceName": "contracts/BitStakeMemory.sol",
  "abi": [
    {
      "inputs": [
        {
          "internalType": "uint256",
          "name": "_id",
          "type": "uint256"
        }
      ],
      "name": "getAddr",
      "outputs": [
        {
          "internalType": "address",
          "name": "_addr",
          "type": "address"
        }
      ],
      "stateMutability": "nonpayable",
      "type": "function"
    },
    {
      "inputs": [
        {
          "internalType": "uint256",
          "name": "_id",
          "type": "uint256"
        }
      ],
      "name": "getBytes",
      "outputs": [
        {
          "internalType": "bytes32",
          "name": "_byte",
          "type": "bytes32"
        }
      ],
      "stateMutability": "nonpayable",
      "type": "function"
    },
    {
      "inputs": [
        {
          "internalType": "uint256",
          "name": "_id",
          "type": "uint256"
        }
      ],
      "name": "getUint",
      "outputs": [
        {
          "internalType": "uint256",
          "name": "_num",
          "type": "uint256"
        }
      ],
      "stateMutability": "nonpayable",
      "type": "function"
    },
    {
      "inputs": [
        {
          "internalType": "uint256",
          "name": "_id",
          "type": "uint256"
        },
        {
          "internalType": "address",
          "name": "_addr",
          "type": "address"
        }
      ],
      "name": "setAddr",
      "outputs": [],
      "stateMutability": "nonpayable",
      "type": "function"
    },
    {
      "inputs": [
        {
          "internalType": "uint256",
          "name": "_id",
          "type": "uint256"
        },
        {
          "internalType": "bytes32",
          "name": "_byte",
          "type": "bytes32"
        }
      ],
      "name": "setBytes",
      "outputs": [],
      "stateMutability": "nonpayable",
      "type": "function"
    },
    {
      "inputs": [
        {
          "internalType": "uint256",
          "name": "_id",
          "type": "uint256"
        },
        {
          "internalType": "uint256",
          "name": "_num",
          "type": "uint256"
        }
      ],
      "name": "setUint",
      "outputs": [],
      "stateMutability": "nonpayable",
      "type": "function"
    }
  ],
  "bytecode": "0x608060405234801561001057600080fd5b506102b4806100206000396000f3fe608060405234801561001057600080fd5b50600436106100625760003560e01c8063455ded9e1461006757806357bc2ef31461007c57806361e3c944146100a5578063a9c70eaa146100b8578063d81f84b7146100cb578063eba36dbd146100eb575b600080fd5b61007a610075366004610240565b6100fe565b005b61008f61008a3660046101ee565b61011b565b60405161009c9190610275565b60405180910390f35b61007a6100b3366004610240565b61013c565b61008f6100c63660046101ee565b61015b565b6100de6100d93660046101ee565b61017e565b60405161009c9190610261565b61007a6100f9366004610206565b6101b3565b336000908152602081815260408083209483529390529190912055565b33600090815260208181526040808320938352929052908120805491905590565b3360009081526001602090815260408083209483529390529190912055565b336000908152600160209081526040808320938352929052908120805491905590565b3360009081526002602090815260408083209383529290522080546001600160a01b031981169091556001600160a01b031690565b3360009081526002602090815260408083209483529390529190912080546001600160a01b0319166001600160a01b03909216919091179055565b6000602082840312156101ff578081fd5b5035919050565b60008060408385031215610218578081fd5b8235915060208301356001600160a01b0381168114610235578182fd5b809150509250929050565b60008060408385031215610252578182fd5b50508035926020909101359150565b6001600160a01b0391909116815260200190565b9081526020019056fea264697066735822122008489d02fd8920015071f8fe442d66c9ecce1e0a175509310c1c6fd438af574864736f6c63430007060033",
  "linkReferences": {},
  "deployedLinkReferences": {}
}