{
  "contractName": "GraphProtocol",
  "abi": [
    {
      "inputs": [
        {
          "internalType": "address",
          "name": "_grtTokenAddress",
          "type": "address"
        },
        {
          "internalType": "address",
          "name": "_graphProxy",
          "type": "address"
        }
      ],
      "payable": false,
      "stateMutability": "nonpayable",
      "type": "constructor"
    },
    {
      "anonymous": false,
      "inputs": [
        {
          "indexed": false,
          "internalType": "address",
          "name": "_indexer",
          "type": "address"
        },
        {
          "indexed": false,
          "internalType": "uint256",
          "name": "_amount",
          "type": "uint256"
        },
        {
          "indexed": false,
          "internalType": "uint256",
          "name": "_share",
          "type": "uint256"
        }
      ],
      "name": "GraphProtocolDelegated",
      "type": "event"
    },
    {
      "anonymous": false,
      "inputs": [
        {
          "indexed": false,
          "internalType": "address",
          "name": "_indexer",
          "type": "address"
        },
        {
          "indexed": false,
          "internalType": "uint256",
          "name": "_amount",
          "type": "uint256"
        },
        {
          "indexed": false,
          "internalType": "uint256",
          "name": "_share",
          "type": "uint256"
        }
      ],
      "name": "GraphProtocolUnDelegated",
      "type": "event"
    },
    {
      "anonymous": false,
      "inputs": [
        {
          "indexed": false,
          "internalType": "address",
          "name": "_indexer",
          "type": "address"
        },
        {
          "indexed": false,
          "internalType": "address",
          "name": "_delegateToIndexer",
          "type": "address"
        },
        {
          "indexed": false,
          "internalType": "uint256",
          "name": "_tokens",
          "type": "uint256"
        }
      ],
      "name": "GraphProtocolWithdrawDelegated",
      "type": "event"
    },
    {
      "constant": true,
      "inputs": [],
      "name": "graphProxy",
      "outputs": [
        {
          "internalType": "contract IGraphProtocolInterface",
          "name": "",
          "type": "address"
        }
      ],
      "payable": false,
      "stateMutability": "view",
      "type": "function"
    },
    {
      "constant": true,
      "inputs": [],
      "name": "grtTokenAddress",
      "outputs": [
        {
          "internalType": "contract IERC20Interface",
          "name": "",
          "type": "address"
        }
      ],
      "payable": false,
      "stateMutability": "view",
      "type": "function"
    },
    {
      "constant": false,
      "inputs": [
        {
          "internalType": "address",
          "name": "_indexer",
          "type": "address"
        },
        {
          "internalType": "uint256",
          "name": "_tokens",
          "type": "uint256"
        }
      ],
      "name": "delegate",
      "outputs": [
        {
          "internalType": "uint256",
          "name": "shares_",
          "type": "uint256"
        }
      ],
      "payable": false,
      "stateMutability": "nonpayable",
      "type": "function"
    },
    {
      "constant": false,
      "inputs": [
        {
          "internalType": "address",
          "name": "_indexer",
          "type": "address"
        },
        {
          "internalType": "uint256",
          "name": "_shares",
          "type": "uint256"
        }
      ],
      "name": "undelegate",
      "outputs": [
        {
          "internalType": "uint256",
          "name": "tokens_",
          "type": "uint256"
        }
      ],
      "payable": false,
      "stateMutability": "nonpayable",
      "type": "function"
    },
    {
      "constant": false,
      "inputs": [
        {
          "internalType": "address",
          "name": "_indexer",
          "type": "address"
        },
        {
          "internalType": "address",
          "name": "_delegateToIndexer",
          "type": "address"
        }
      ],
      "name": "withdrawDelegated",
      "outputs": [
        {
          "internalType": "uint256",
          "name": "tokens_",
          "type": "uint256"
        }
      ],
      "payable": false,
      "stateMutability": "nonpayable",
      "type": "function"
    }
  ],
  "bytecode": "0x608060405234801561001057600080fd5b50604051610ae4380380610ae48339818101604052604081101561003357600080fd5b81019080805190602001909291908051906020019092919050505081600160006101000a81548173ffffffffffffffffffffffffffffffffffffffff021916908373ffffffffffffffffffffffffffffffffffffffff160217905550806000806101000a81548173ffffffffffffffffffffffffffffffffffffffff021916908373ffffffffffffffffffffffffffffffffffffffff1602179055505050610a04806100e06000396000f3fe608060405234801561001057600080fd5b50600436106100575760003560e01c8063026e402b1461005c57806337ebce27146100be5780634d99dd161461010857806351a60b021461016a578063796e4109146101e2575b600080fd5b6100a86004803603604081101561007257600080fd5b81019080803573ffffffffffffffffffffffffffffffffffffffff1690602001909291908035906020019092919050505061022c565b6040518082815260200191505060405180910390f35b6100c6610587565b604051808273ffffffffffffffffffffffffffffffffffffffff1673ffffffffffffffffffffffffffffffffffffffff16815260200191505060405180910390f35b6101546004803603604081101561011e57600080fd5b81019080803573ffffffffffffffffffffffffffffffffffffffff169060200190929190803590602001909291905050506105ac565b6040518082815260200191505060405180910390f35b6101cc6004803603604081101561018057600080fd5b81019080803573ffffffffffffffffffffffffffffffffffffffff169060200190929190803573ffffffffffffffffffffffffffffffffffffffff16906020019092919050505061070c565b6040518082815260200191505060405180910390f35b6101ea6109a9565b604051808273ffffffffffffffffffffffffffffffffffffffff1673ffffffffffffffffffffffffffffffffffffffff16815260200191505060405180910390f35b6000600160009054906101000a900473ffffffffffffffffffffffffffffffffffffffff1673ffffffffffffffffffffffffffffffffffffffff166323b872dd3330856040518463ffffffff1660e01b8152600401808473ffffffffffffffffffffffffffffffffffffffff1673ffffffffffffffffffffffffffffffffffffffff1681526020018373ffffffffffffffffffffffffffffffffffffffff1673ffffffffffffffffffffffffffffffffffffffff1681526020018281526020019350505050602060405180830381600087803b15801561030b57600080fd5b505af115801561031f573d6000803e3d6000fd5b505050506040513d602081101561033557600080fd5b810190808051906020019092919050505050600160009054906101000a900473ffffffffffffffffffffffffffffffffffffffff1673ffffffffffffffffffffffffffffffffffffffff1663095ea7b36000809054906101000a900473ffffffffffffffffffffffffffffffffffffffff16846040518363ffffffff1660e01b8152600401808373ffffffffffffffffffffffffffffffffffffffff1673ffffffffffffffffffffffffffffffffffffffff16815260200182815260200192505050600060405180830381600087803b15801561041157600080fd5b505af1158015610425573d6000803e3d6000fd5b505050506000809054906101000a900473ffffffffffffffffffffffffffffffffffffffff1673ffffffffffffffffffffffffffffffffffffffff1663026e402b84846040518363ffffffff1660e01b8152600401808373ffffffffffffffffffffffffffffffffffffffff1673ffffffffffffffffffffffffffffffffffffffff16815260200182815260200192505050602060405180830381600087803b1580156104d157600080fd5b505af11580156104e5573d6000803e3d6000fd5b505050506040513d60208110156104fb57600080fd5b810190808051906020019092919050505090507fac03ff6d8cef1f899bcef3aca4d90927f65f7c03869e465e15f92f07ab97fa0b838383604051808473ffffffffffffffffffffffffffffffffffffffff1673ffffffffffffffffffffffffffffffffffffffff168152602001838152602001828152602001935050505060405180910390a192915050565b6000809054906101000a900473ffffffffffffffffffffffffffffffffffffffff1681565b60008060009054906101000a900473ffffffffffffffffffffffffffffffffffffffff1673ffffffffffffffffffffffffffffffffffffffff16634d99dd1684846040518363ffffffff1660e01b8152600401808373ffffffffffffffffffffffffffffffffffffffff1673ffffffffffffffffffffffffffffffffffffffff16815260200182815260200192505050602060405180830381600087803b15801561065657600080fd5b505af115801561066a573d6000803e3d6000fd5b505050506040513d602081101561068057600080fd5b810190808051906020019092919050505090507fac03ff6d8cef1f899bcef3aca4d90927f65f7c03869e465e15f92f07ab97fa0b838284604051808473ffffffffffffffffffffffffffffffffffffffff1673ffffffffffffffffffffffffffffffffffffffff168152602001838152602001828152602001935050505060405180910390a192915050565b60008060009054906101000a900473ffffffffffffffffffffffffffffffffffffffff1673ffffffffffffffffffffffffffffffffffffffff166351a60b0284846040518363ffffffff1660e01b8152600401808373ffffffffffffffffffffffffffffffffffffffff1673ffffffffffffffffffffffffffffffffffffffff1681526020018273ffffffffffffffffffffffffffffffffffffffff1673ffffffffffffffffffffffffffffffffffffffff16815260200192505050602060405180830381600087803b1580156107e257600080fd5b505af11580156107f6573d6000803e3d6000fd5b505050506040513d602081101561080c57600080fd5b81019080805190602001909291905050509050600160009054906101000a900473ffffffffffffffffffffffffffffffffffffffff1673ffffffffffffffffffffffffffffffffffffffff1663a9059cbb33836040518363ffffffff1660e01b8152600401808373ffffffffffffffffffffffffffffffffffffffff1673ffffffffffffffffffffffffffffffffffffffff16815260200182815260200192505050602060405180830381600087803b1580156108c857600080fd5b505af11580156108dc573d6000803e3d6000fd5b505050506040513d60208110156108f257600080fd5b8101908080519060200190929190505050507f0eb4cb385b7689ae1f07c30552bd19fc0a4736965f29a3a9e9b37f6a1d21c9c6838383604051808473ffffffffffffffffffffffffffffffffffffffff1673ffffffffffffffffffffffffffffffffffffffff1681526020018373ffffffffffffffffffffffffffffffffffffffff1673ffffffffffffffffffffffffffffffffffffffff168152602001828152602001935050505060405180910390a192915050565b600160009054906101000a900473ffffffffffffffffffffffffffffffffffffffff168156fea265627a7a72315820838cd5e281439b1c45fedf620f78989747f89f467e2d7351206b25575753387164736f6c63430005100032",
  "source": "pragma solidity ^0.5.2;\n\nimport '../../IERC20Interface.sol';\ninterface IGraphProtocolInterface {\n    event GraphProtocolDelegated(address _indexer, uint256 _amount, uint256 _share);\n    event GraphProtocolUnDelegated(address _indexer, uint256 _amount, uint256 _share);\n    event GraphProtocolWithdrawDelegated(address _indexer, address _delegateToIndexer, uint256 _tokens);\n\n    function delegate(address _indexer, uint256 _tokens)\n        external\n        returns (uint256  shares_);\n\n    function undelegate(address _indexer, uint256 _shares)\n        external\n        returns (uint256  tokens_);\n\n    function withdrawDelegated(address _indexer, address _delegateToIndexer)\n        external\n        returns (uint256 tokens_);  \n}\n\ncontract GraphProtocol is IGraphProtocolInterface {\n\n    IGraphProtocolInterface public graphProxy;\n    IERC20Interface public grtTokenAddress;\n    \n    constructor(address _grtTokenAddress, address _graphProxy) public {\n        grtTokenAddress = IERC20Interface(_grtTokenAddress);\n        graphProxy = IGraphProtocolInterface(_graphProxy);\n    }\n\n    function delegate(address _indexer, uint256 _tokens)\n        public\n        returns (uint256 shares_)\n    {\n        IERC20Interface(grtTokenAddress).transferFrom(msg.sender, address(this), _tokens);\n        IERC20Interface(grtTokenAddress).approve(address(graphProxy), _tokens);\n        shares_ = graphProxy.delegate(_indexer, _tokens);\n        emit GraphProtocolDelegated(_indexer, _tokens, shares_);\n    }\n\n    function undelegate(address _indexer, uint256 _shares) \n        public\n        returns (uint256 tokens_)\n        {\n\n            tokens_ = graphProxy.undelegate( _indexer, _shares);\n            emit GraphProtocolDelegated(_indexer, tokens_, _shares); \n        }\n\n\n    function withdrawDelegated(address _indexer, address _delegateToIndexer)\n        public\n        returns (uint256 tokens_) \n        {\n            tokens_ = graphProxy.withdrawDelegated(_indexer, _delegateToIndexer);\n            grtTokenAddress.transfer(msg.sender, tokens_);\n            emit GraphProtocolWithdrawDelegated(_indexer, _delegateToIndexer,  tokens_);\n        }\n}\n",
  "sourcePath": "/Users/sarveshjain/personal/staking/onchain-staking/contracts/protocols/graph-protocol/GraphProtocol.sol",
  "compiler": {
    "name": "solc",
    "version": "0.5.16+commit.9c3226ce.Emscripten.clang"
  },
  "schemaVersion": "3.4.1",
  "updatedAt": "2021-06-13T17:38:54.486Z",
  "devdoc": {
    "methods": {}
  },
  "userdoc": {
    "methods": {}
  }
}