{
  "contractName": "InstaRegistry",
  "abi": [
    {
      "inputs": [],
      "payable": false,
      "stateMutability": "nonpayable",
      "type": "constructor"
    },
    {
      "anonymous": false,
      "inputs": [
        {
          "indexed": true,
          "internalType": "address",
          "name": "sender",
          "type": "address"
        },
        {
          "indexed": true,
          "internalType": "address",
          "name": "owner",
          "type": "address"
        },
        {
          "indexed": false,
          "internalType": "address",
          "name": "proxy",
          "type": "address"
        }
      ],
      "name": "Created",
      "type": "event"
    },
    {
      "anonymous": false,
      "inputs": [
        {
          "indexed": false,
          "internalType": "address",
          "name": "logicAddress",
          "type": "address"
        }
      ],
      "name": "LogDisableLogic",
      "type": "event"
    },
    {
      "anonymous": false,
      "inputs": [
        {
          "indexed": false,
          "internalType": "address",
          "name": "logicAddress",
          "type": "address"
        }
      ],
      "name": "LogEnableLogic",
      "type": "event"
    },
    {
      "anonymous": false,
      "inputs": [
        {
          "indexed": false,
          "internalType": "address",
          "name": "logicAddress",
          "type": "address"
        }
      ],
      "name": "LogEnableStaticLogic",
      "type": "event"
    },
    {
      "anonymous": false,
      "inputs": [
        {
          "indexed": true,
          "internalType": "address",
          "name": "currentOwner",
          "type": "address"
        },
        {
          "indexed": true,
          "internalType": "address",
          "name": "nextOwner",
          "type": "address"
        },
        {
          "indexed": false,
          "internalType": "address",
          "name": "proxy",
          "type": "address"
        }
      ],
      "name": "LogRecord",
      "type": "event"
    },
    {
      "anonymous": false,
      "inputs": [
        {
          "indexed": false,
          "internalType": "string",
          "name": "name",
          "type": "string"
        },
        {
          "indexed": false,
          "internalType": "address",
          "name": "addr",
          "type": "address"
        }
      ],
      "name": "LogSetAddress",
      "type": "event"
    },
    {
      "constant": false,
      "inputs": [],
      "name": "build",
      "outputs": [
        {
          "internalType": "contract UserWallet",
          "name": "proxy",
          "type": "address"
        }
      ],
      "payable": false,
      "stateMutability": "nonpayable",
      "type": "function"
    },
    {
      "constant": false,
      "inputs": [
        {
          "internalType": "address",
          "name": "_owner",
          "type": "address"
        }
      ],
      "name": "build",
      "outputs": [
        {
          "internalType": "contract UserWallet",
          "name": "proxy",
          "type": "address"
        }
      ],
      "payable": false,
      "stateMutability": "nonpayable",
      "type": "function"
    },
    {
      "constant": false,
      "inputs": [
        {
          "internalType": "address",
          "name": "_logicAddress",
          "type": "address"
        }
      ],
      "name": "disableLogic",
      "outputs": [],
      "payable": false,
      "stateMutability": "nonpayable",
      "type": "function"
    },
    {
      "constant": false,
      "inputs": [
        {
          "internalType": "address",
          "name": "_logicAddress",
          "type": "address"
        }
      ],
      "name": "enableLogic",
      "outputs": [],
      "payable": false,
      "stateMutability": "nonpayable",
      "type": "function"
    },
    {
      "constant": false,
      "inputs": [
        {
          "internalType": "address",
          "name": "_logicAddress",
          "type": "address"
        }
      ],
      "name": "enableStaticLogic",
      "outputs": [],
      "payable": false,
      "stateMutability": "nonpayable",
      "type": "function"
    },
    {
      "constant": true,
      "inputs": [
        {
          "internalType": "string",
          "name": "_name",
          "type": "string"
        }
      ],
      "name": "getAddress",
      "outputs": [
        {
          "internalType": "address",
          "name": "",
          "type": "address"
        }
      ],
      "payable": false,
      "stateMutability": "view",
      "type": "function"
    },
    {
      "constant": true,
      "inputs": [
        {
          "internalType": "address",
          "name": "_logicAddress",
          "type": "address"
        }
      ],
      "name": "logic",
      "outputs": [
        {
          "internalType": "bool",
          "name": "",
          "type": "bool"
        }
      ],
      "payable": false,
      "stateMutability": "view",
      "type": "function"
    },
    {
      "constant": true,
      "inputs": [
        {
          "internalType": "address",
          "name": "",
          "type": "address"
        }
      ],
      "name": "logicProxies",
      "outputs": [
        {
          "internalType": "bool",
          "name": "",
          "type": "bool"
        }
      ],
      "payable": false,
      "stateMutability": "view",
      "type": "function"
    },
    {
      "constant": true,
      "inputs": [
        {
          "internalType": "address",
          "name": "",
          "type": "address"
        }
      ],
      "name": "logicProxiesStatic",
      "outputs": [
        {
          "internalType": "bool",
          "name": "",
          "type": "bool"
        }
      ],
      "payable": false,
      "stateMutability": "view",
      "type": "function"
    },
    {
      "constant": true,
      "inputs": [
        {
          "internalType": "address",
          "name": "_logicAddress",
          "type": "address"
        }
      ],
      "name": "logicStatic",
      "outputs": [
        {
          "internalType": "bool",
          "name": "",
          "type": "bool"
        }
      ],
      "payable": false,
      "stateMutability": "view",
      "type": "function"
    },
    {
      "constant": true,
      "inputs": [
        {
          "internalType": "address",
          "name": "",
          "type": "address"
        }
      ],
      "name": "proxies",
      "outputs": [
        {
          "internalType": "contract UserWallet",
          "name": "",
          "type": "address"
        }
      ],
      "payable": false,
      "stateMutability": "view",
      "type": "function"
    },
    {
      "constant": false,
      "inputs": [
        {
          "internalType": "address",
          "name": "_currentOwner",
          "type": "address"
        },
        {
          "internalType": "address",
          "name": "_nextOwner",
          "type": "address"
        }
      ],
      "name": "record",
      "outputs": [],
      "payable": false,
      "stateMutability": "nonpayable",
      "type": "function"
    },
    {
      "constant": false,
      "inputs": [
        {
          "internalType": "string",
          "name": "_name",
          "type": "string"
        },
        {
          "internalType": "address",
          "name": "_userAddress",
          "type": "address"
        }
      ],
      "name": "setAddress",
      "outputs": [],
      "payable": false,
      "stateMutability": "nonpayable",
      "type": "function"
    }
  ],
  "bytecode": "0x608060405234801561001057600080fd5b503360008060405160200180807f61646d696e000000000000000000000000000000000000000000000000000000815250600501905060405160208183030381529060405280519060200120815260200190815260200160002060006101000a81548173ffffffffffffffffffffffffffffffffffffffff021916908373ffffffffffffffffffffffffffffffffffffffff1602179055503360008060405160200180807f6f776e6572000000000000000000000000000000000000000000000000000000815250600501905060405160208183030381529060405280519060200120815260200190815260200160002060006101000a81548173ffffffffffffffffffffffffffffffffffffffff021916908373ffffffffffffffffffffffffffffffffffffffff16021790555061245b8061014e6000396000f3fe608060405234801561001057600080fd5b50600436106100cf5760003560e01c80638e1a55fc1161008c578063bf40fac111610066578063bf40fac114610455578063c455279114610550578063d93b4ee7146105d4578063f3701da214610618576100cf565b80638e1a55fc146102d45780639b2ea4bd1461031e578063bbfdc3c4146103f9576100cf565b806311390441146100d457806313f073171461013057806315413ccf1461017457806328e98537146101d057806339035d561461022c5780635e2bd42114610290575b600080fd5b610116600480360360208110156100ea57600080fd5b81019080803573ffffffffffffffffffffffffffffffffffffffff16906020019092919050505061069c565b604051808215151515815260200191505060405180910390f35b6101726004803603602081101561014657600080fd5b81019080803573ffffffffffffffffffffffffffffffffffffffff169060200190929190505050610757565b005b6101b66004803603602081101561018a57600080fd5b81019080803573ffffffffffffffffffffffffffffffffffffffff169060200190929190505050610965565b604051808215151515815260200191505060405180910390f35b610212600480360360208110156101e657600080fd5b81019080803573ffffffffffffffffffffffffffffffffffffffff169060200190929190505050610985565b604051808215151515815260200191505060405180910390f35b61028e6004803603604081101561024257600080fd5b81019080803573ffffffffffffffffffffffffffffffffffffffff169060200190929190803573ffffffffffffffffffffffffffffffffffffffff1690602001909291905050506109a5565b005b6102d2600480360360208110156102a657600080fd5b81019080803573ffffffffffffffffffffffffffffffffffffffff169060200190929190505050610dd9565b005b6102dc610fe8565b604051808273ffffffffffffffffffffffffffffffffffffffff1673ffffffffffffffffffffffffffffffffffffffff16815260200191505060405180910390f35b6103f76004803603604081101561033457600080fd5b810190808035906020019064010000000081111561035157600080fd5b82018360208201111561036357600080fd5b8035906020019184600183028401116401000000008311171561038557600080fd5b91908080601f016020809104026020016040519081016040528093929190818152602001838380828437600081840152601f19601f820116905080830192505050505050509192919290803573ffffffffffffffffffffffffffffffffffffffff169060200190929190505050610ff8565b005b61043b6004803603602081101561040f57600080fd5b81019080803573ffffffffffffffffffffffffffffffffffffffff1690602001909291905050506112df565b604051808215151515815260200191505060405180910390f35b61050e6004803603602081101561046b57600080fd5b810190808035906020019064010000000081111561048857600080fd5b82018360208201111561049a57600080fd5b803590602001918460018302840111640100000000831117156104bc57600080fd5b91908080601f016020809104026020016040519081016040528093929190818152602001838380828437600081840152601f19601f820116905080830192505050505050509192919290505050611346565b604051808273ffffffffffffffffffffffffffffffffffffffff1673ffffffffffffffffffffffffffffffffffffffff16815260200191505060405180910390f35b6105926004803603602081101561056657600080fd5b81019080803573ffffffffffffffffffffffffffffffffffffffff1690602001909291905050506113f3565b604051808273ffffffffffffffffffffffffffffffffffffffff1673ffffffffffffffffffffffffffffffffffffffff16815260200191505060405180910390f35b610616600480360360208110156105ea57600080fd5b81019080803573ffffffffffffffffffffffffffffffffffffffff169060200190929190505050611426565b005b61065a6004803603602081101561062e57600080fd5b81019080803573ffffffffffffffffffffffffffffffffffffffff169060200190929190505050611635565b604051808273ffffffffffffffffffffffffffffffffffffffff1673ffffffffffffffffffffffffffffffffffffffff16815260200191505060405180910390f35b6000600160008373ffffffffffffffffffffffffffffffffffffffff1673ffffffffffffffffffffffffffffffffffffffff16815260200190815260200160002060009054906101000a900460ff168061073f5750600260008373ffffffffffffffffffffffffffffffffffffffff1673ffffffffffffffffffffffffffffffffffffffff16815260200190815260200160002060009054906101000a900460ff165b1561074d5760019050610752565b600090505b919050565b6107956040518060400160405280600581526020017f61646d696e000000000000000000000000000000000000000000000000000000815250611346565b73ffffffffffffffffffffffffffffffffffffffff163373ffffffffffffffffffffffffffffffffffffffff16148061083657506108076040518060400160405280600581526020017f6f776e6572000000000000000000000000000000000000000000000000000000815250611346565b73ffffffffffffffffffffffffffffffffffffffff163373ffffffffffffffffffffffffffffffffffffffff16145b6108a8576040517f08c379a00000000000000000000000000000000000000000000000000000000081526004018080602001828103825260118152602001807f7065726d697373696f6e2d64656e69656400000000000000000000000000000081525060200191505060405180910390fd5b60018060008373ffffffffffffffffffffffffffffffffffffffff1673ffffffffffffffffffffffffffffffffffffffff16815260200190815260200160002060006101000a81548160ff0219169083151502179055507f3f04a50450bef2cbd6fa284fd81947443e43bdbf0db0b834741b228b996ae35c81604051808273ffffffffffffffffffffffffffffffffffffffff1673ffffffffffffffffffffffffffffffffffffffff16815260200191505060405180910390a150565b60026020528060005260406000206000915054906101000a900460ff1681565b60016020528060005260406000206000915054906101000a900460ff1681565b600360008373ffffffffffffffffffffffffffffffffffffffff1673ffffffffffffffffffffffffffffffffffffffff16815260200190815260200160002060009054906101000a900473ffffffffffffffffffffffffffffffffffffffff1673ffffffffffffffffffffffffffffffffffffffff163373ffffffffffffffffffffffffffffffffffffffff1614610aa5576040517f08c379a00000000000000000000000000000000000000000000000000000000081526004018080602001828103825260168152602001807f696e76616c69642d70726f78792d6f722d6f776e65720000000000000000000081525060200191505060405180910390fd5b600073ffffffffffffffffffffffffffffffffffffffff16600360008373ffffffffffffffffffffffffffffffffffffffff1673ffffffffffffffffffffffffffffffffffffffff16815260200190815260200160002060009054906101000a900473ffffffffffffffffffffffffffffffffffffffff1673ffffffffffffffffffffffffffffffffffffffff1614610b89576040517f08c379a00000000000000000000000000000000000000000000000000000000081526004018080602001828103825260238152602001806124046023913960400191505060405180910390fd5b600360008373ffffffffffffffffffffffffffffffffffffffff1673ffffffffffffffffffffffffffffffffffffffff16815260200190815260200160002060009054906101000a900473ffffffffffffffffffffffffffffffffffffffff16600360008373ffffffffffffffffffffffffffffffffffffffff1673ffffffffffffffffffffffffffffffffffffffff16815260200190815260200160002060006101000a81548173ffffffffffffffffffffffffffffffffffffffff021916908373ffffffffffffffffffffffffffffffffffffffff1602179055506000600360008473ffffffffffffffffffffffffffffffffffffffff1673ffffffffffffffffffffffffffffffffffffffff16815260200190815260200160002060006101000a81548173ffffffffffffffffffffffffffffffffffffffff021916908373ffffffffffffffffffffffffffffffffffffffff1602179055508073ffffffffffffffffffffffffffffffffffffffff168273ffffffffffffffffffffffffffffffffffffffff167fcef7897a03e601f3ff31e759532eac1da82eebd7e6f0f8fde0787e934e53cbd1600360008573ffffffffffffffffffffffffffffffffffffffff1673ffffffffffffffffffffffffffffffffffffffff16815260200190815260200160002060009054906101000a900473ffffffffffffffffffffffffffffffffffffffff16604051808273ffffffffffffffffffffffffffffffffffffffff1673ffffffffffffffffffffffffffffffffffffffff16815260200191505060405180910390a35050565b610e176040518060400160405280600581526020017f61646d696e000000000000000000000000000000000000000000000000000000815250611346565b73ffffffffffffffffffffffffffffffffffffffff163373ffffffffffffffffffffffffffffffffffffffff161480610eb85750610e896040518060400160405280600581526020017f6f776e6572000000000000000000000000000000000000000000000000000000815250611346565b73ffffffffffffffffffffffffffffffffffffffff163373ffffffffffffffffffffffffffffffffffffffff16145b610f2a576040517f08c379a00000000000000000000000000000000000000000000000000000000081526004018080602001828103825260118152602001807f7065726d697373696f6e2d64656e69656400000000000000000000000000000081525060200191505060405180910390fd5b6001600260008373ffffffffffffffffffffffffffffffffffffffff1673ffffffffffffffffffffffffffffffffffffffff16815260200190815260200160002060006101000a81548160ff0219169083151502179055507f68f5cdfc79250ac339a21f2dd385aac4592b8f39c5a873771b402366e81140db81604051808273ffffffffffffffffffffffffffffffffffffffff1673ffffffffffffffffffffffffffffffffffffffff16815260200191505060405180910390a150565b6000610ff333611635565b905090565b6110366040518060400160405280600581526020017f61646d696e000000000000000000000000000000000000000000000000000000815250611346565b73ffffffffffffffffffffffffffffffffffffffff163373ffffffffffffffffffffffffffffffffffffffff1614806110d757506110a86040518060400160405280600581526020017f6f776e6572000000000000000000000000000000000000000000000000000000815250611346565b73ffffffffffffffffffffffffffffffffffffffff163373ffffffffffffffffffffffffffffffffffffffff16145b611149576040517f08c379a00000000000000000000000000000000000000000000000000000000081526004018080602001828103825260118152602001807f7065726d697373696f6e2d64656e69656400000000000000000000000000000081525060200191505060405180910390fd5b80600080846040516020018082805190602001908083835b602083106111845780518252602082019150602081019050602083039250611161565b6001836020036101000a03801982511681845116808217855250505050505090500191505060405160208183030381529060405280519060200120815260200190815260200160002060006101000a81548173ffffffffffffffffffffffffffffffffffffffff021916908373ffffffffffffffffffffffffffffffffffffffff1602179055507ffc0a6a253a16cecf0b9dae14da9b82f5b9b4fcbd38bcac78349d9fded55d383d828260405180806020018373ffffffffffffffffffffffffffffffffffffffff1673ffffffffffffffffffffffffffffffffffffffff168152602001828103825284818151815260200191508051906020019080838360005b838110156112a0578082015181840152602081019050611285565b50505050905090810190601f1680156112cd5780820380516001836020036101000a031916815260200191505b50935050505060405180910390a15050565b6000600160008373ffffffffffffffffffffffffffffffffffffffff1673ffffffffffffffffffffffffffffffffffffffff16815260200190815260200160002060009054906101000a900460ff161561133c5760019050611341565b600090505b919050565b6000806000836040516020018082805190602001908083835b60208310611382578051825260208201915060208101905060208303925061135f565b6001836020036101000a03801982511681845116808217855250505050505090500191505060405160208183030381529060405280519060200120815260200190815260200160002060009054906101000a900473ffffffffffffffffffffffffffffffffffffffff169050919050565b60036020528060005260406000206000915054906101000a900473ffffffffffffffffffffffffffffffffffffffff1681565b6114646040518060400160405280600581526020017f61646d696e000000000000000000000000000000000000000000000000000000815250611346565b73ffffffffffffffffffffffffffffffffffffffff163373ffffffffffffffffffffffffffffffffffffffff16148061150557506114d66040518060400160405280600581526020017f6f776e6572000000000000000000000000000000000000000000000000000000815250611346565b73ffffffffffffffffffffffffffffffffffffffff163373ffffffffffffffffffffffffffffffffffffffff16145b611577576040517f08c379a00000000000000000000000000000000000000000000000000000000081526004018080602001828103825260118152602001807f7065726d697373696f6e2d64656e69656400000000000000000000000000000081525060200191505060405180910390fd5b6000600260008373ffffffffffffffffffffffffffffffffffffffff1673ffffffffffffffffffffffffffffffffffffffff16815260200190815260200160002060006101000a81548160ff0219169083151502179055507f51e737aad5b0a2ee32c37ae8c06b9f89e99d26cc52ba5bdcb0e006983f1a560781604051808273ffffffffffffffffffffffffffffffffffffffff1673ffffffffffffffffffffffffffffffffffffffff16815260200191505060405180910390a150565b60008073ffffffffffffffffffffffffffffffffffffffff16600360008473ffffffffffffffffffffffffffffffffffffffff1673ffffffffffffffffffffffffffffffffffffffff16815260200190815260200160002060009054906101000a900473ffffffffffffffffffffffffffffffffffffffff1673ffffffffffffffffffffffffffffffffffffffff161461171a576040517f08c379a00000000000000000000000000000000000000000000000000000000081526004018080602001828103825260238152602001806124046023913960400191505060405180910390fd5b604051611726906118f0565b604051809103906000f080158015611742573d6000803e3d6000fd5b50905080600360003073ffffffffffffffffffffffffffffffffffffffff1673ffffffffffffffffffffffffffffffffffffffff16815260200190815260200160002060006101000a81548173ffffffffffffffffffffffffffffffffffffffff021916908373ffffffffffffffffffffffffffffffffffffffff1602179055508073ffffffffffffffffffffffffffffffffffffffff166313af4035836040518263ffffffff1660e01b8152600401808273ffffffffffffffffffffffffffffffffffffffff1673ffffffffffffffffffffffffffffffffffffffff168152602001915050600060405180830381600087803b15801561184257600080fd5b505af1158015611856573d6000803e3d6000fd5b505050508173ffffffffffffffffffffffffffffffffffffffff163373ffffffffffffffffffffffffffffffffffffffff167f454b0172f64812df0cd504c2bd7df7aab8ff328a54d946b4bd0fa7c527adf9cc83604051808273ffffffffffffffffffffffffffffffffffffffff1673ffffffffffffffffffffffffffffffffffffffff16815260200191505060405180910390a3919050565b610b06806118fe8339019056fe608060405234801561001057600080fd5b50336000806101000a81548173ffffffffffffffffffffffffffffffffffffffff021916908373ffffffffffffffffffffffffffffffffffffffff16021790555033600160006101000a81548173ffffffffffffffffffffffffffffffffffffffff021916908373ffffffffffffffffffffffffffffffffffffffff160217905550610a65806100a16000396000f3fe60806040526004361061004a5760003560e01c806313af40351461004c5780632520e7ff1461009d5780637b103999146101065780638da5cb5b1461015d578063f3541901146101b4575b005b34801561005857600080fd5b5061009b6004803603602081101561006f57600080fd5b81019080803573ffffffffffffffffffffffffffffffffffffffff16906020019092919050505061031c565b005b3480156100a957600080fd5b506100ec600480360360208110156100c057600080fd5b81019080803573ffffffffffffffffffffffffffffffffffffffff16906020019092919050505061052c565b604051808215151515815260200191505060405180910390f35b34801561011257600080fd5b5061011b6105d4565b604051808273ffffffffffffffffffffffffffffffffffffffff1673ffffffffffffffffffffffffffffffffffffffff16815260200191505060405180910390f35b34801561016957600080fd5b506101726105f9565b604051808273ffffffffffffffffffffffffffffffffffffffff1673ffffffffffffffffffffffffffffffffffffffff16815260200191505060405180910390f35b6102a1600480360360808110156101ca57600080fd5b81019080803573ffffffffffffffffffffffffffffffffffffffff1690602001909291908035906020019064010000000081111561020757600080fd5b82018360208201111561021957600080fd5b8035906020019184600183028401116401000000008311171561023b57600080fd5b91908080601f016020809104026020016040519081016040528093929190818152602001838380828437600081840152601f19601f820116905080830192505050505050509192919290803590602001909291908035906020019092919050505061061f565b6040518080602001828103825283818151815260200191508051906020019080838360005b838110156102e15780820151818401526020810190506102c6565b50505050905090810190601f16801561030e5780820380516001836020036101000a031916815260200191505b509250505060405180910390f35b6103253361052c565b610397576040517f08c379a00000000000000000000000000000000000000000000000000000000081526004018080602001828103825260118152602001807f7065726d697373696f6e2d64656e69656400000000000000000000000000000081525060200191505060405180910390fd5b6000809054906101000a900473ffffffffffffffffffffffffffffffffffffffff1673ffffffffffffffffffffffffffffffffffffffff166339035d56600160009054906101000a900473ffffffffffffffffffffffffffffffffffffffff16836040518363ffffffff1660e01b8152600401808373ffffffffffffffffffffffffffffffffffffffff1673ffffffffffffffffffffffffffffffffffffffff1681526020018273ffffffffffffffffffffffffffffffffffffffff1673ffffffffffffffffffffffffffffffffffffffff16815260200192505050600060405180830381600087803b15801561048d57600080fd5b505af11580156104a1573d6000803e3d6000fd5b5050505080600160006101000a81548173ffffffffffffffffffffffffffffffffffffffff021916908373ffffffffffffffffffffffffffffffffffffffff1602179055508073ffffffffffffffffffffffffffffffffffffffff167fce241d7ca1f669fee44b6fc00b8eba2df3bb514eed0f6f668f8f89096e81ed9460405160405180910390a250565b6000600160009054906101000a900473ffffffffffffffffffffffffffffffffffffffff1673ffffffffffffffffffffffffffffffffffffffff168273ffffffffffffffffffffffffffffffffffffffff16141561058d57600190506105cf565b3073ffffffffffffffffffffffffffffffffffffffff168273ffffffffffffffffffffffffffffffffffffffff1614156105ca57600190506105cf565b600090505b919050565b6000809054906101000a900473ffffffffffffffffffffffffffffffffffffffff1681565b600160009054906101000a900473ffffffffffffffffffffffffffffffffffffffff1681565b606060008060043591506024359050813373ffffffffffffffffffffffffffffffffffffffff166000357fffffffff00000000000000000000000000000000000000000000000000000000167bffffffffffffffffffffffffffffffffffffffffffffffffffffffff19167f644843f351d3fba4abcd60109eaff9f54bac8fb8ccf0bab941009c21df21cf31843460003660405180858152602001848152602001806020018281038252848482818152602001925080828437600081840152601f19601f8201169050808301925050509550505050505060405180910390a46107073361052c565b610779576040517f08c379a00000000000000000000000000000000000000000000000000000000081526004018080602001828103825260118152602001807f7065726d697373696f6e2d64656e69656400000000000000000000000000000081525060200191505060405180910390fd5b86600073ffffffffffffffffffffffffffffffffffffffff168173ffffffffffffffffffffffffffffffffffffffff16141561081d576040517f08c379a000000000000000000000000000000000000000000000000000000000815260040180806020018281038252601c8152602001807f6c6f6769632d70726f78792d616464726573732d72657175697265640000000081525060200191505060405180910390fd5b6000809054906101000a900473ffffffffffffffffffffffffffffffffffffffff1673ffffffffffffffffffffffffffffffffffffffff166311390441826040518263ffffffff1660e01b8152600401808273ffffffffffffffffffffffffffffffffffffffff1673ffffffffffffffffffffffffffffffffffffffff16815260200191505060206040518083038186803b1580156108bb57600080fd5b505afa1580156108cf573d6000803e3d6000fd5b505050506040513d60208110156108e557600080fd5b8101908080519060200190929190505050610968576040517f08c379a00000000000000000000000000000000000000000000000000000000081526004018080602001828103825260148152602001807f6c6f6769632d6e6f742d617574686f726973656400000000000000000000000081525060200191505060405180910390fd5b7fbd37415aaf130f9a169d66bc22d669b6a5aa55f384e7b41d105714eb8277b341888787604051808473ffffffffffffffffffffffffffffffffffffffff1673ffffffffffffffffffffffffffffffffffffffff168152602001838152602001828152602001935050505060405180910390a1600080885160208a018b6113885a03f43d6040519550601f19601f6020830101168601604052808652806000602088013e811560018114610a1b57610a22565b8160208801fd5b50505050505094935050505056fea265627a7a72315820c949b09ce7c9278984967a0ce6159d6883544640f80465d08ab8927028cc7b8964736f6c634300051000326d756c7469706c652d70726f78792d7065722d757365722d6e6f742d616c6c6f776564a265627a7a7231582042bea3f1996c4632bd242d07b677794339c92621662d5d3e531365ff030eedec64736f6c63430005100032",
  "source": "/**\n *Submitted for verification at Etherscan.io on 2019-04-07\n*/\n\npragma solidity ^0.5.2;\n\n/**\n * @title RegistryInterface Interface \n */\ninterface RegistryInterface {\n    function logic(address logicAddr) external view returns (bool);\n    function record(address currentOwner, address nextOwner) external;\n}\n\n\n/**\n * @title Address Registry Record\n */\ncontract AddressRecord {\n\n    /**\n     * @dev address registry of system, logic and wallet addresses\n     */\n    address public registry;\n\n    /**\n     * @dev Throws if the logic is not authorised\n     */\n    modifier logicAuth(address logicAddr) {\n        require(logicAddr != address(0), \"logic-proxy-address-required\");\n        require(RegistryInterface(registry).logic(logicAddr), \"logic-not-authorised\");\n        _;\n    }\n\n}\n\n\n/**\n * @title User Auth\n */\ncontract UserAuth is AddressRecord {\n\n    event LogSetOwner(address indexed owner);\n    address public owner;\n\n    /**\n     * @dev Throws if not called by owner or contract itself\n     */\n    modifier auth {\n        require(isAuth(msg.sender), \"permission-denied\");\n        _;\n    }\n\n    /**\n     * @dev sets new owner\n     */\n    function setOwner(address nextOwner) public auth {\n        RegistryInterface(registry).record(owner, nextOwner);\n        owner = nextOwner;\n        emit LogSetOwner(nextOwner);\n    }\n\n    /**\n     * @dev checks if called by owner or contract itself\n     * @param src is the address initiating the call\n     */\n    function isAuth(address src) public view returns (bool) {\n        if (src == owner) {\n            return true;\n        } else if (src == address(this)) {\n            return true;\n        }\n        return false;\n    }\n}\n\n\n/**\n * @dev logging the execute events\n */\ncontract UserNote {\n    event LogNote(\n        bytes4 indexed sig,\n        address indexed guy,\n        bytes32 indexed foo,\n        bytes32 bar,\n        uint wad,\n        bytes fax\n    );\n\n    modifier note {\n        bytes32 foo;\n        bytes32 bar;\n        assembly {\n            foo := calldataload(4)\n            bar := calldataload(36)\n        }\n        emit LogNote(\n            msg.sig, \n            msg.sender, \n            foo, \n            bar, \n            msg.value,\n            msg.data\n        );\n        _;\n    }\n}\n\n\n/**\n * @title User Owned Contract Wallet\n */\ncontract UserWallet is UserAuth, UserNote {\n\n    event LogExecute(address target, uint srcNum, uint sessionNum);\n\n    /**\n     * @dev sets the \"address registry\", owner's last activity, owner's active period and initial owner\n     */\n    constructor() public {\n        registry = msg.sender;\n        owner = msg.sender;\n    }\n\n    function() external payable {}\n\n    /**\n     * @dev Execute authorised calls via delegate call\n     * @param _target logic proxy address\n     * @param _data delegate call data\n     * @param _src to find the source\n     * @param _session to find the session\n     */\n    function execute(\n        address _target,\n        bytes memory _data,\n        uint _src,\n        uint _session\n    ) \n        public\n        payable\n        note\n        auth\n        logicAuth(_target)\n        returns (bytes memory response)\n    {\n        emit LogExecute(\n            _target,\n            _src,\n            _session\n        );\n        \n        // call contract in current context\n        assembly {\n            let succeeded := delegatecall(sub(gas, 5000), _target, add(_data, 0x20), mload(_data), 0, 0)\n            let size := returndatasize\n\n            response := mload(0x40)\n            mstore(0x40, add(response, and(add(add(size, 0x20), 0x1f), not(0x1f))))\n            mstore(response, size)\n            returndatacopy(add(response, 0x20), 0, size)\n\n            switch iszero(succeeded)\n                case 1 {\n                    // throw if delegatecall failed\n                    revert(add(response, 0x20), size)\n                }\n        }\n    }\n\n}\n\n\n/// @title AddressRegistry\n/// @notice \n/// @dev \ncontract AddressRegistry {\n    event LogSetAddress(string name, address addr);\n\n    /// @notice Registry of role and address\n    mapping(bytes32 => address) registry;\n\n    /**\n     * @dev Check if msg.sender is admin or owner.\n     */\n    modifier isAdmin() {\n        require(\n            msg.sender == getAddress(\"admin\") || \n            msg.sender == getAddress(\"owner\"),\n            \"permission-denied\"\n        );\n        _;\n    }\n\n    /// @dev Get the address from system registry \n    /// @param _name (string)\n    /// @return  (address) Returns address based on role\n    function getAddress(string memory _name) public view returns(address) {\n        return registry[keccak256(abi.encodePacked(_name))];\n    }\n\n    /// @dev Set new address in system registry \n    /// @param _name (string) Role name\n    /// @param _userAddress (string) User Address\n    function setAddress(string memory _name, address _userAddress) public isAdmin {\n        registry[keccak256(abi.encodePacked(_name))] = _userAddress;\n        emit LogSetAddress(_name, _userAddress);\n    }\n}\n\n\n/// @title LogicRegistry\n/// @notice\n/// @dev LogicRegistry \ncontract LogicRegistry is AddressRegistry {\n\n    event LogEnableStaticLogic(address logicAddress);\n    event LogEnableLogic(address logicAddress);\n    event LogDisableLogic(address logicAddress);\n\n    /// @notice Map of static proxy state\n    mapping(address => bool) public logicProxiesStatic;\n    \n    /// @notice Map of logic proxy state\n    mapping(address => bool) public logicProxies;\n\n    /// @dev \n    /// @param _logicAddress (address)\n    /// @return  (bool)\n    function logic(address _logicAddress) public view returns (bool) {\n        if (logicProxiesStatic[_logicAddress] || logicProxies[_logicAddress]) {\n            return true;\n        }\n        return false;\n    }\n\n    /// @dev \n    /// @param _logicAddress (address)\n    /// @return  (bool)\n    function logicStatic(address _logicAddress) public view returns (bool) {\n        if (logicProxiesStatic[_logicAddress]) {\n            return true;\n        }\n        return false;\n    }\n\n    /// @dev Sets the static logic proxy to true\n    /// static proxies mostly contains the logic for withdrawal of assets\n    /// and can never be false to freely let user withdraw their assets\n    /// @param _logicAddress (address)\n    function enableStaticLogic(address _logicAddress) public isAdmin {\n        logicProxiesStatic[_logicAddress] = true;\n        emit LogEnableStaticLogic(_logicAddress);\n    }\n\n    /// @dev Enable logic proxy address\n    /// @param _logicAddress (address)\n    function enableLogic(address _logicAddress) public isAdmin {\n        logicProxies[_logicAddress] = true;\n        emit LogEnableLogic(_logicAddress);\n    }\n\n    /// @dev Disable logic proxy address\n    /// @param _logicAddress (address)\n    function disableLogic(address _logicAddress) public isAdmin {\n        logicProxies[_logicAddress] = false;\n        emit LogDisableLogic(_logicAddress);\n    }\n\n}\n\n\n/**\n * @dev Deploys a new proxy instance and sets msg.sender as owner of proxy\n */\ncontract WalletRegistry is LogicRegistry {\n    \n    event Created(address indexed sender, address indexed owner, address proxy);\n    event LogRecord(address indexed currentOwner, address indexed nextOwner, address proxy);\n    \n    /// @notice Address to UserWallet proxy map\n    mapping(address => UserWallet) public proxies;\n    \n    /// @dev Deploys a new proxy instance and sets custom owner of proxy\n    /// Throws if the owner already have a UserWallet\n    /// @return proxy ()\n    function build() public returns (UserWallet proxy) {\n        proxy = build(msg.sender);\n    }\n\n    /// @dev update the proxy record whenever owner changed on any proxy\n    /// Throws if msg.sender is not a proxy contract created via this contract\n    /// @return proxy () UserWallet\n    function build(address _owner) public returns (UserWallet proxy) {\n        require(proxies[_owner] == UserWallet(0), \"multiple-proxy-per-user-not-allowed\");\n        proxy = new UserWallet();\n        proxies[address(this)] = proxy; // will be changed via record() in next line execution\n        proxy.setOwner(_owner);\n        emit Created(msg.sender, _owner, address(proxy));\n    }\n\n    /// @dev Transafers ownership\n    /// @param _currentOwner (address) Current Owner\n    /// @param _nextOwner (address) Next Owner\n    function record(address _currentOwner, address _nextOwner) public {\n        require(msg.sender == address(proxies[_currentOwner]), \"invalid-proxy-or-owner\");\n        require(proxies[_nextOwner] == UserWallet(0), \"multiple-proxy-per-user-not-allowed\");\n        proxies[_nextOwner] = proxies[_currentOwner];\n        proxies[_currentOwner] = UserWallet(0);\n        emit LogRecord(_currentOwner, _nextOwner, address(proxies[_nextOwner]));\n    }\n\n}\n\n\n/// @title InstaRegistry\n/// @dev Initializing Registry\ncontract InstaRegistry is WalletRegistry {\n\n    constructor() public {\n        registry[keccak256(abi.encodePacked(\"admin\"))] = msg.sender;\n        registry[keccak256(abi.encodePacked(\"owner\"))] = msg.sender;\n    }\n}",
  "sourcePath": "/Users/sarveshjain/personal/staking/onchain-staking/contracts/BitStakerRegistry.sol",
  "compiler": {
    "name": "solc",
    "version": "0.5.16+commit.9c3226ce.Emscripten.clang"
  },
  "schemaVersion": "3.4.1",
  "updatedAt": "2021-06-09T16:02:52.762Z",
  "devdoc": {
    "details": "Initializing Registry",
    "methods": {
      "build()": {
        "details": "Deploys a new proxy instance and sets custom owner of proxy Throws if the owner already have a UserWallet",
        "return": "proxy ()"
      },
      "build(address)": {
        "details": "update the proxy record whenever owner changed on any proxy Throws if msg.sender is not a proxy contract created via this contract",
        "return": "proxy () UserWallet"
      },
      "disableLogic(address)": {
        "details": "Disable logic proxy address",
        "params": {
          "_logicAddress": "(address)"
        }
      },
      "enableLogic(address)": {
        "details": "Enable logic proxy address",
        "params": {
          "_logicAddress": "(address)"
        }
      },
      "enableStaticLogic(address)": {
        "details": "Sets the static logic proxy to true static proxies mostly contains the logic for withdrawal of assets and can never be false to freely let user withdraw their assets",
        "params": {
          "_logicAddress": "(address)"
        }
      },
      "getAddress(string)": {
        "details": "Get the address from system registry ",
        "params": {
          "_name": "(string)"
        },
        "return": "(address) Returns address based on role"
      },
      "logic(address)": {
        "params": {
          "_logicAddress": "(address)"
        },
        "return": "(bool)"
      },
      "logicStatic(address)": {
        "params": {
          "_logicAddress": "(address)"
        },
        "return": "(bool)"
      },
      "record(address,address)": {
        "details": "Transafers ownership",
        "params": {
          "_currentOwner": "(address) Current Owner",
          "_nextOwner": "(address) Next Owner"
        }
      },
      "setAddress(string,address)": {
        "details": "Set new address in system registry ",
        "params": {
          "_name": "(string) Role name",
          "_userAddress": "(string) User Address"
        }
      }
    },
    "title": "InstaRegistry"
  },
  "userdoc": {
    "methods": {}
  }
}