{
  "contractName": "LogicRegistry",
  "abi": [
    {
      "anonymous": false,
      "inputs": [
        {
          "indexed": false,
          "internalType": "address",
          "name": "logicAddress",
          "type": "address"
        }
      ],
      "name": "LogDisableLogic",
      "type": "event"
    },
    {
      "anonymous": false,
      "inputs": [
        {
          "indexed": false,
          "internalType": "address",
          "name": "logicAddress",
          "type": "address"
        }
      ],
      "name": "LogEnableLogic",
      "type": "event"
    },
    {
      "anonymous": false,
      "inputs": [
        {
          "indexed": false,
          "internalType": "address",
          "name": "logicAddress",
          "type": "address"
        }
      ],
      "name": "LogEnableStaticLogic",
      "type": "event"
    },
    {
      "anonymous": false,
      "inputs": [
        {
          "indexed": false,
          "internalType": "string",
          "name": "name",
          "type": "string"
        },
        {
          "indexed": false,
          "internalType": "address",
          "name": "addr",
          "type": "address"
        }
      ],
      "name": "LogSetAddress",
      "type": "event"
    },
    {
      "constant": true,
      "inputs": [
        {
          "internalType": "string",
          "name": "_name",
          "type": "string"
        }
      ],
      "name": "getAddress",
      "outputs": [
        {
          "internalType": "address",
          "name": "",
          "type": "address"
        }
      ],
      "payable": false,
      "stateMutability": "view",
      "type": "function"
    },
    {
      "constant": true,
      "inputs": [
        {
          "internalType": "address",
          "name": "",
          "type": "address"
        }
      ],
      "name": "logicProxies",
      "outputs": [
        {
          "internalType": "bool",
          "name": "",
          "type": "bool"
        }
      ],
      "payable": false,
      "stateMutability": "view",
      "type": "function"
    },
    {
      "constant": true,
      "inputs": [
        {
          "internalType": "address",
          "name": "",
          "type": "address"
        }
      ],
      "name": "logicProxiesStatic",
      "outputs": [
        {
          "internalType": "bool",
          "name": "",
          "type": "bool"
        }
      ],
      "payable": false,
      "stateMutability": "view",
      "type": "function"
    },
    {
      "constant": false,
      "inputs": [
        {
          "internalType": "string",
          "name": "_name",
          "type": "string"
        },
        {
          "internalType": "address",
          "name": "_userAddress",
          "type": "address"
        }
      ],
      "name": "setAddress",
      "outputs": [],
      "payable": false,
      "stateMutability": "nonpayable",
      "type": "function"
    },
    {
      "constant": true,
      "inputs": [
        {
          "internalType": "address",
          "name": "_logicAddress",
          "type": "address"
        }
      ],
      "name": "logic",
      "outputs": [
        {
          "internalType": "bool",
          "name": "",
          "type": "bool"
        }
      ],
      "payable": false,
      "stateMutability": "view",
      "type": "function"
    },
    {
      "constant": true,
      "inputs": [
        {
          "internalType": "address",
          "name": "_logicAddress",
          "type": "address"
        }
      ],
      "name": "logicStatic",
      "outputs": [
        {
          "internalType": "bool",
          "name": "",
          "type": "bool"
        }
      ],
      "payable": false,
      "stateMutability": "view",
      "type": "function"
    },
    {
      "constant": false,
      "inputs": [
        {
          "internalType": "address",
          "name": "_logicAddress",
          "type": "address"
        }
      ],
      "name": "enableStaticLogic",
      "outputs": [],
      "payable": false,
      "stateMutability": "nonpayable",
      "type": "function"
    },
    {
      "constant": false,
      "inputs": [
        {
          "internalType": "address",
          "name": "_logicAddress",
          "type": "address"
        }
      ],
      "name": "enableLogic",
      "outputs": [],
      "payable": false,
      "stateMutability": "nonpayable",
      "type": "function"
    },
    {
      "constant": false,
      "inputs": [
        {
          "internalType": "address",
          "name": "_logicAddress",
          "type": "address"
        }
      ],
      "name": "disableLogic",
      "outputs": [],
      "payable": false,
      "stateMutability": "nonpayable",
      "type": "function"
    }
  ],
  "bytecode": "0x608060405234801561001057600080fd5b50610e94806100206000396000f3fe608060405234801561001057600080fd5b50600436106100935760003560e01c80635e2bd421116100665780635e2bd421146101445780639b2ea4bd14610160578063bbfdc3c41461017c578063bf40fac1146101ac578063d93b4ee7146101dc57610093565b8063113904411461009857806313f07317146100c857806315413ccf146100e457806328e9853714610114575b600080fd5b6100b260048036036100ad9190810190610b06565b6101f8565b6040516100bf9190610cbe565b60405180910390f35b6100e260048036036100dd9190810190610b06565b6102b3565b005b6100fe60048036036100f99190810190610b06565b610462565b60405161010b9190610cbe565b60405180910390f35b61012e60048036036101299190810190610b06565b610482565b60405161013b9190610cbe565b60405180910390f35b61015e60048036036101599190810190610b06565b6104a2565b005b61017a60048036036101759190810190610b70565b610652565b005b61019660048036036101919190810190610b06565b610824565b6040516101a39190610cbe565b60405180910390f35b6101c660048036036101c19190810190610b2f565b61088b565b6040516101d39190610ca3565b60405180910390f35b6101f660048036036101f19190810190610b06565b6108ed565b005b6000600160008373ffffffffffffffffffffffffffffffffffffffff1673ffffffffffffffffffffffffffffffffffffffff16815260200190815260200160002060009054906101000a900460ff168061029b5750600260008373ffffffffffffffffffffffffffffffffffffffff1673ffffffffffffffffffffffffffffffffffffffff16815260200190815260200160002060009054906101000a900460ff165b156102a957600190506102ae565b600090505b919050565b6102f16040518060400160405280600581526020017f61646d696e00000000000000000000000000000000000000000000000000000081525061088b565b73ffffffffffffffffffffffffffffffffffffffff163373ffffffffffffffffffffffffffffffffffffffff16148061039257506103636040518060400160405280600581526020017f6f776e657200000000000000000000000000000000000000000000000000000081525061088b565b73ffffffffffffffffffffffffffffffffffffffff163373ffffffffffffffffffffffffffffffffffffffff16145b6103d1576040517f08c379a00000000000000000000000000000000000000000000000000000000081526004016103c890610d09565b60405180910390fd5b60018060008373ffffffffffffffffffffffffffffffffffffffff1673ffffffffffffffffffffffffffffffffffffffff16815260200190815260200160002060006101000a81548160ff0219169083151502179055507f3f04a50450bef2cbd6fa284fd81947443e43bdbf0db0b834741b228b996ae35c816040516104579190610ca3565b60405180910390a150565b60026020528060005260406000206000915054906101000a900460ff1681565b60016020528060005260406000206000915054906101000a900460ff1681565b6104e06040518060400160405280600581526020017f61646d696e00000000000000000000000000000000000000000000000000000081525061088b565b73ffffffffffffffffffffffffffffffffffffffff163373ffffffffffffffffffffffffffffffffffffffff16148061058157506105526040518060400160405280600581526020017f6f776e657200000000000000000000000000000000000000000000000000000081525061088b565b73ffffffffffffffffffffffffffffffffffffffff163373ffffffffffffffffffffffffffffffffffffffff16145b6105c0576040517f08c379a00000000000000000000000000000000000000000000000000000000081526004016105b790610d09565b60405180910390fd5b6001600260008373ffffffffffffffffffffffffffffffffffffffff1673ffffffffffffffffffffffffffffffffffffffff16815260200190815260200160002060006101000a81548160ff0219169083151502179055507f68f5cdfc79250ac339a21f2dd385aac4592b8f39c5a873771b402366e81140db816040516106479190610ca3565b60405180910390a150565b6106906040518060400160405280600581526020017f61646d696e00000000000000000000000000000000000000000000000000000081525061088b565b73ffffffffffffffffffffffffffffffffffffffff163373ffffffffffffffffffffffffffffffffffffffff16148061073157506107026040518060400160405280600581526020017f6f776e657200000000000000000000000000000000000000000000000000000081525061088b565b73ffffffffffffffffffffffffffffffffffffffff163373ffffffffffffffffffffffffffffffffffffffff16145b610770576040517f08c379a000000000000000000000000000000000000000000000000000000000815260040161076790610d09565b60405180910390fd5b80600080846040516020016107859190610c8c565b60405160208183030381529060405280519060200120815260200190815260200160002060006101000a81548173ffffffffffffffffffffffffffffffffffffffff021916908373ffffffffffffffffffffffffffffffffffffffff1602179055507ffc0a6a253a16cecf0b9dae14da9b82f5b9b4fcbd38bcac78349d9fded55d383d8282604051610818929190610cd9565b60405180910390a15050565b6000600160008373ffffffffffffffffffffffffffffffffffffffff1673ffffffffffffffffffffffffffffffffffffffff16815260200190815260200160002060009054906101000a900460ff16156108815760019050610886565b600090505b919050565b6000806000836040516020016108a19190610c8c565b60405160208183030381529060405280519060200120815260200190815260200160002060009054906101000a900473ffffffffffffffffffffffffffffffffffffffff169050919050565b61092b6040518060400160405280600581526020017f61646d696e00000000000000000000000000000000000000000000000000000081525061088b565b73ffffffffffffffffffffffffffffffffffffffff163373ffffffffffffffffffffffffffffffffffffffff1614806109cc575061099d6040518060400160405280600581526020017f6f776e657200000000000000000000000000000000000000000000000000000081525061088b565b73ffffffffffffffffffffffffffffffffffffffff163373ffffffffffffffffffffffffffffffffffffffff16145b610a0b576040517f08c379a0000000000000000000000000000000000000000000000000000000008152600401610a0290610d09565b60405180910390fd5b6000600260008373ffffffffffffffffffffffffffffffffffffffff1673ffffffffffffffffffffffffffffffffffffffff16815260200190815260200160002060006101000a81548160ff0219169083151502179055507f51e737aad5b0a2ee32c37ae8c06b9f89e99d26cc52ba5bdcb0e006983f1a560781604051610a929190610ca3565b60405180910390a150565b600081359050610aac81610e3a565b92915050565b600082601f830112610ac357600080fd5b8135610ad6610ad182610d56565b610d29565b91508082526020830160208301858383011115610af257600080fd5b610afd838284610de7565b50505092915050565b600060208284031215610b1857600080fd5b6000610b2684828501610a9d565b91505092915050565b600060208284031215610b4157600080fd5b600082013567ffffffffffffffff811115610b5b57600080fd5b610b6784828501610ab2565b91505092915050565b60008060408385031215610b8357600080fd5b600083013567ffffffffffffffff811115610b9d57600080fd5b610ba985828601610ab2565b9250506020610bba85828601610a9d565b9150509250929050565b610bcd81610da9565b82525050565b610bdc81610dbb565b82525050565b6000610bed82610d82565b610bf78185610d8d565b9350610c07818560208601610df6565b610c1081610e29565b840191505092915050565b6000610c2682610d82565b610c308185610d9e565b9350610c40818560208601610df6565b80840191505092915050565b6000610c59601183610d8d565b91507f7065726d697373696f6e2d64656e6965640000000000000000000000000000006000830152602082019050919050565b6000610c988284610c1b565b915081905092915050565b6000602082019050610cb86000830184610bc4565b92915050565b6000602082019050610cd36000830184610bd3565b92915050565b60006040820190508181036000830152610cf38185610be2565b9050610d026020830184610bc4565b9392505050565b60006020820190508181036000830152610d2281610c4c565b9050919050565b6000604051905081810181811067ffffffffffffffff82111715610d4c57600080fd5b8060405250919050565b600067ffffffffffffffff821115610d6d57600080fd5b601f19601f8301169050602081019050919050565b600081519050919050565b600082825260208201905092915050565b600081905092915050565b6000610db482610dc7565b9050919050565b60008115159050919050565b600073ffffffffffffffffffffffffffffffffffffffff82169050919050565b82818337600083830152505050565b60005b83811015610e14578082015181840152602081019050610df9565b83811115610e23576000848401525b50505050565b6000601f19601f8301169050919050565b610e4381610da9565b8114610e4e57600080fd5b5056fea365627a7a72315820657c291d1df58c5b38ec2ba477812cdea75c7f8fa3d8289b5ea7de50206074af6c6578706572696d656e74616cf564736f6c63430005100040",
  "source": "/**\n *Submitted for verification at Etherscan.io on 2019-04-07\n*/\n\npragma experimental ABIEncoderV2;\n\n/**\n * @title RegistryInterface Interface \n */\ninterface RegistryInterface {\n    function logic(address logicAddr) external view returns (bool);\n    function record(address currentOwner, address nextOwner) external;\n}\n\n\n/**\n * @title Address Registry Record\n */\ncontract AddressRecord {\n\n    /**\n     * @dev address registry of system, logic and wallet addresses\n     */\n    address public registry;\n\n    /**\n     * @dev Throws if the logic is not authorised\n     */\n    modifier logicAuth(address logicAddr) {\n        require(logicAddr != address(0), \"logic-proxy-address-required\");\n        require(RegistryInterface(registry).logic(logicAddr), \"logic-not-authorised\");\n        _;\n    }\n\n    modifier logicAuths(address[] memory logicAddrs) {\n        for(uint256 i = 0; i < logicAddrs.length; i++) {\n            require(logicAddrs[i] != address(0), \"logic-proxy-address-required\");\n            require(RegistryInterface(registry).logic(logicAddrs[i]), \"logic-not-authorised\"); \n        }\n        _;\n    }\n\n}\n\n\n/**\n * @title User Auth\n */\ncontract UserAuth is AddressRecord {\n\n    event LogSetOwner(address indexed owner);\n    address public owner;\n\n    /**\n     * @dev Throws if not called by owner or contract itself\n     */\n    modifier auth {\n        require(isAuth(msg.sender), \"permission-denied\");\n        _;\n    }\n\n    /**\n     * @dev sets new owner\n     */\n    function setOwner(address nextOwner) public auth {\n        RegistryInterface(registry).record(owner, nextOwner);\n        owner = nextOwner;\n        emit LogSetOwner(nextOwner);\n    }\n\n    /**\n     * @dev checks if called by owner or contract itself\n     * @param src is the address initiating the call\n     */\n    function isAuth(address src) public view returns (bool) {\n        if (src == owner) {\n            return true;\n        } else if (src == address(this)) {\n            return true;\n        }\n        return false;\n    }\n}\n\n\n/**\n * @dev logging the execute events\n */\ncontract UserNote {\n    event LogNote(\n        bytes4 indexed sig,\n        address indexed guy,\n        bytes32 indexed foo,\n        bytes32 bar,\n        uint wad,\n        bytes fax\n    );\n\n    modifier note {\n        bytes32 foo;\n        bytes32 bar;\n        assembly {\n            foo := calldataload(4)\n            bar := calldataload(36)\n        }\n        emit LogNote(\n            msg.sig, \n            msg.sender, \n            foo, \n            bar, \n            msg.value,\n            msg.data\n        );\n        _;\n    }\n}\n\n\n/**\n * @title User Owned Contract Wallet\n */\ncontract UserWallet is UserAuth, UserNote {\n\n    event LogExecute(address target, uint srcNum, uint sessionNum);\n\n    /**\n     * @dev sets the \"address registry\", owner's last activity, owner's active period and initial owner\n     */\n    constructor() public {\n        registry = msg.sender;\n        owner = msg.sender;\n    }\n\n    function() external payable {}\n\n\n\n    function _execute(\n        address _target, // modules addresses\n        bytes memory _data,\n        uint _src,\n        uint _session\n    )\n        private\n        returns (bytes memory response)\n    {\n        emit LogExecute(\n            _target,\n            _src,\n            _session\n        );\n        \n        // call contract in current context\n        assembly {\n            let succeeded := delegatecall(sub(gas, 5000), _target, add(_data, 0x20), mload(_data), 0, 0)\n            let size := returndatasize\n\n            response := mload(0x40)\n            mstore(0x40, add(response, and(add(add(size, 0x20), 0x1f), not(0x1f))))\n            mstore(response, size)\n            returndatacopy(add(response, 0x20), 0, size)\n\n            switch iszero(succeeded)\n                case 1 {\n                    // throw if delegatecall failed\n                    revert(add(response, 0x20), size)\n                }\n        }\n\n    }\n\n\n    /**\n     * @dev Execute authorised calls via delegate call\n     * @param _target logic proxy address\n     * @param _data delegate call data\n     * @param _src to find the source\n     * @param _session to find the session\n     */\n    function execute(\n        address _target, // modules addresses\n        bytes memory _data,\n        uint _src,\n        uint _session\n    ) \n        public\n        payable\n        note\n        auth\n        logicAuth(_target)\n        returns (bytes memory response)\n    {\n      response = _execute(_target, _data, _src, _session);   \n    }\n\n    function executeMulti(\n        address[] memory _targets, // modules addresses\n        bytes[] memory _data,\n        uint _src,\n        uint _session\n    )\n        public\n        payable\n        note\n        auth\n        logicAuths(_targets)\n        returns (bytes[] memory returnData)\n    {\n\n        returnData = new bytes[](_targets.length);\n        for(uint256 i = 0; i < _targets.length; i++) {\n            returnData[i] = _execute(_targets[i], _data[i], _src, _session); \n        }\n    }\n\n}\n\n\n/// @title AddressRegistry\n/// @notice \n/// @dev \ncontract AddressRegistry {\n    event LogSetAddress(string name, address addr);\n\n    /// @notice Registry of role and address\n    mapping(bytes32 => address) registry;\n\n    /**\n     * @dev Check if msg.sender is admin or owner.\n     */\n    modifier isAdmin() {\n        require(\n            msg.sender == getAddress(\"admin\") || \n            msg.sender == getAddress(\"owner\"),\n            \"permission-denied\"\n        );\n        _;\n    }\n\n    /// @dev Get the address from system registry \n    /// @param _name (string)\n    /// @return  (address) Returns address based on role\n    function getAddress(string memory _name) public view returns(address) {\n        return registry[keccak256(abi.encodePacked(_name))];\n    }\n\n    /// @dev Set new address in system registry \n    /// @param _name (string) Role name\n    /// @param _userAddress (string) User Address\n    function setAddress(string memory _name, address _userAddress) public isAdmin {\n        registry[keccak256(abi.encodePacked(_name))] = _userAddress;\n        emit LogSetAddress(_name, _userAddress);\n    }\n}\n\n\n/// @title LogicRegistry\n/// @notice\n/// @dev LogicRegistry \ncontract LogicRegistry is AddressRegistry {\n\n    event LogEnableStaticLogic(address logicAddress);\n    event LogEnableLogic(address logicAddress);\n    event LogDisableLogic(address logicAddress);\n\n    /// @notice Map of static proxy state\n    mapping(address => bool) public logicProxiesStatic;\n    \n    /// @notice Map of logic proxy state\n    mapping(address => bool) public logicProxies;\n\n    /// @dev \n    /// @param _logicAddress (address)\n    /// @return  (bool)\n    function logic(address _logicAddress) public view returns (bool) {\n        if (logicProxiesStatic[_logicAddress] || logicProxies[_logicAddress]) {\n            return true;\n        }\n        return false;\n    }\n\n    /// @dev \n    /// @param _logicAddress (address)\n    /// @return  (bool)\n    function logicStatic(address _logicAddress) public view returns (bool) {\n        if (logicProxiesStatic[_logicAddress]) {\n            return true;\n        }\n        return false;\n    }\n\n    /// @dev Sets the static logic proxy to true\n    /// static proxies mostly contains the logic for withdrawal of assets\n    /// and can never be false to freely let user withdraw their assets\n    /// @param _logicAddress (address)\n    function enableStaticLogic(address _logicAddress) public isAdmin {\n        logicProxiesStatic[_logicAddress] = true;\n        emit LogEnableStaticLogic(_logicAddress);\n    }\n\n    /// @dev Enable logic proxy address\n    /// @param _logicAddress (address)\n    function enableLogic(address _logicAddress) public isAdmin {\n        logicProxies[_logicAddress] = true;\n        emit LogEnableLogic(_logicAddress);\n    }\n\n    /// @dev Disable logic proxy address\n    /// @param _logicAddress (address)\n    function disableLogic(address _logicAddress) public isAdmin {\n        logicProxies[_logicAddress] = false;\n        emit LogDisableLogic(_logicAddress);\n    }\n\n}\n\n\n/**\n * @dev Deploys a new proxy instance and sets msg.sender as owner of proxy\n */\ncontract WalletRegistry is LogicRegistry {\n    \n    event Created(address indexed sender, address indexed owner, address proxy);\n    event LogRecord(address indexed currentOwner, address indexed nextOwner, address proxy);\n    \n    /// @notice Address to UserWallet proxy map\n    mapping(address => UserWallet) public proxies;\n    \n    /// @dev Deploys a new proxy instance and sets custom owner of proxy\n    /// Throws if the owner already have a UserWallet\n    /// @return proxy ()\n    function build() public returns (UserWallet proxy) {\n        proxy = build(msg.sender);\n    }\n\n    /// @dev update the proxy record whenever owner changed on any proxy\n    /// Throws if msg.sender is not a proxy contract created via this contract\n    /// @return proxy () UserWallet\n    function build(address _owner) public returns (UserWallet proxy) {\n        require(proxies[_owner] == UserWallet(0), \"multiple-proxy-per-user-not-allowed\");\n        proxy = new UserWallet();\n        proxies[address(this)] = proxy; // will be changed via record() in next line execution\n        proxy.setOwner(_owner);\n        emit Created(msg.sender, _owner, address(proxy));\n    }\n\n    /// @dev Transafers ownership\n    /// @param _currentOwner (address) Current Owner\n    /// @param _nextOwner (address) Next Owner\n    function record(address _currentOwner, address _nextOwner) public {\n        require(msg.sender == address(proxies[_currentOwner]), \"invalid-proxy-or-owner\");\n        require(proxies[_nextOwner] == UserWallet(0), \"multiple-proxy-per-user-not-allowed\");\n        proxies[_nextOwner] = proxies[_currentOwner];\n        proxies[_currentOwner] = UserWallet(0);\n        emit LogRecord(_currentOwner, _nextOwner, address(proxies[_nextOwner]));\n    }\n\n}\n\n\n/// @title BitStakerRegistery\n/// @dev Initializing Registry\ncontract BitStakerRegistery is WalletRegistry {\n\n    constructor() public {\n        registry[keccak256(abi.encodePacked(\"admin\"))] = msg.sender;\n        registry[keccak256(abi.encodePacked(\"owner\"))] = msg.sender;\n    }\n}",
  "sourcePath": "/Users/sarveshjain/personal/staking/onchain-staking/contracts/BitStakerRegistry.sol",
  "compiler": {
    "name": "solc",
    "version": "0.5.16+commit.9c3226ce.Emscripten.clang"
  },
  "schemaVersion": "3.4.1",
  "updatedAt": "2021-06-13T17:53:11.241Z",
  "devdoc": {
    "methods": {
      "disableLogic(address)": {
        "details": "Disable logic proxy address",
        "params": {
          "_logicAddress": "(address)"
        }
      },
      "enableLogic(address)": {
        "details": "Enable logic proxy address",
        "params": {
          "_logicAddress": "(address)"
        }
      },
      "enableStaticLogic(address)": {
        "details": "Sets the static logic proxy to true static proxies mostly contains the logic for withdrawal of assets and can never be false to freely let user withdraw their assets",
        "params": {
          "_logicAddress": "(address)"
        }
      },
      "getAddress(string)": {
        "details": "Get the address from system registry ",
        "params": {
          "_name": "(string)"
        },
        "return": "(address) Returns address based on role"
      },
      "logic(address)": {
        "params": {
          "_logicAddress": "(address)"
        },
        "return": "(bool)"
      },
      "logicStatic(address)": {
        "params": {
          "_logicAddress": "(address)"
        },
        "return": "(bool)"
      },
      "setAddress(string,address)": {
        "details": "Set new address in system registry ",
        "params": {
          "_name": "(string) Role name",
          "_userAddress": "(string) User Address"
        }
      }
    },
    "title": "LogicRegistry"
  },
  "userdoc": {
    "methods": {},
    "notice": "@dev LogicRegistry "
  }
}