{
  "contractName": "UserWallet",
  "abi": [
    {
      "inputs": [],
      "payable": false,
      "stateMutability": "nonpayable",
      "type": "constructor"
    },
    {
      "anonymous": false,
      "inputs": [
        {
          "indexed": false,
          "internalType": "address",
          "name": "target",
          "type": "address"
        },
        {
          "indexed": false,
          "internalType": "uint256",
          "name": "srcNum",
          "type": "uint256"
        },
        {
          "indexed": false,
          "internalType": "uint256",
          "name": "sessionNum",
          "type": "uint256"
        }
      ],
      "name": "LogExecute",
      "type": "event"
    },
    {
      "anonymous": false,
      "inputs": [
        {
          "indexed": true,
          "internalType": "bytes4",
          "name": "sig",
          "type": "bytes4"
        },
        {
          "indexed": true,
          "internalType": "address",
          "name": "guy",
          "type": "address"
        },
        {
          "indexed": true,
          "internalType": "bytes32",
          "name": "foo",
          "type": "bytes32"
        },
        {
          "indexed": false,
          "internalType": "bytes32",
          "name": "bar",
          "type": "bytes32"
        },
        {
          "indexed": false,
          "internalType": "uint256",
          "name": "wad",
          "type": "uint256"
        },
        {
          "indexed": false,
          "internalType": "bytes",
          "name": "fax",
          "type": "bytes"
        }
      ],
      "name": "LogNote",
      "type": "event"
    },
    {
      "anonymous": false,
      "inputs": [
        {
          "indexed": true,
          "internalType": "address",
          "name": "owner",
          "type": "address"
        }
      ],
      "name": "LogSetOwner",
      "type": "event"
    },
    {
      "payable": true,
      "stateMutability": "payable",
      "type": "fallback"
    },
    {
      "constant": true,
      "inputs": [
        {
          "internalType": "address",
          "name": "src",
          "type": "address"
        }
      ],
      "name": "isAuth",
      "outputs": [
        {
          "internalType": "bool",
          "name": "",
          "type": "bool"
        }
      ],
      "payable": false,
      "stateMutability": "view",
      "type": "function"
    },
    {
      "constant": true,
      "inputs": [],
      "name": "owner",
      "outputs": [
        {
          "internalType": "address",
          "name": "",
          "type": "address"
        }
      ],
      "payable": false,
      "stateMutability": "view",
      "type": "function"
    },
    {
      "constant": true,
      "inputs": [],
      "name": "registry",
      "outputs": [
        {
          "internalType": "address",
          "name": "",
          "type": "address"
        }
      ],
      "payable": false,
      "stateMutability": "view",
      "type": "function"
    },
    {
      "constant": false,
      "inputs": [
        {
          "internalType": "address",
          "name": "nextOwner",
          "type": "address"
        }
      ],
      "name": "setOwner",
      "outputs": [],
      "payable": false,
      "stateMutability": "nonpayable",
      "type": "function"
    },
    {
      "constant": false,
      "inputs": [
        {
          "internalType": "address",
          "name": "_target",
          "type": "address"
        },
        {
          "internalType": "bytes",
          "name": "_data",
          "type": "bytes"
        },
        {
          "internalType": "uint256",
          "name": "_src",
          "type": "uint256"
        },
        {
          "internalType": "uint256",
          "name": "_session",
          "type": "uint256"
        }
      ],
      "name": "execute",
      "outputs": [
        {
          "internalType": "bytes",
          "name": "response",
          "type": "bytes"
        }
      ],
      "payable": true,
      "stateMutability": "payable",
      "type": "function"
    },
    {
      "constant": false,
      "inputs": [
        {
          "internalType": "address[]",
          "name": "_targets",
          "type": "address[]"
        },
        {
          "internalType": "bytes[]",
          "name": "_data",
          "type": "bytes[]"
        },
        {
          "internalType": "uint256",
          "name": "_src",
          "type": "uint256"
        },
        {
          "internalType": "uint256",
          "name": "_session",
          "type": "uint256"
        }
      ],
      "name": "executeMulti",
      "outputs": [
        {
          "internalType": "bytes[]",
          "name": "returnData",
          "type": "bytes[]"
        }
      ],
      "payable": true,
      "stateMutability": "payable",
      "type": "function"
    }
  ],
  "bytecode": "0x608060405234801561001057600080fd5b50336000806101000a81548173ffffffffffffffffffffffffffffffffffffffff021916908373ffffffffffffffffffffffffffffffffffffffff16021790555033600160006101000a81548173ffffffffffffffffffffffffffffffffffffffff021916908373ffffffffffffffffffffffffffffffffffffffff16021790555061136f806100a16000396000f3fe6080604052600436106100555760003560e01c806313af4035146100575780632520e7ff146100805780637b103999146100bd5780638da5cb5b146100e8578063a731e2c214610113578063f354190114610143575b005b34801561006357600080fd5b5061007e60048036036100799190810190610bed565b610173565b005b34801561008c57600080fd5b506100a760048036036100a29190810190610bed565b6102f2565b6040516100b4919061100e565b60405180910390f35b3480156100c957600080fd5b506100d261039a565b6040516100df9190610f71565b60405180910390f35b3480156100f457600080fd5b506100fd6103bf565b60405161010a9190610f71565b60405180910390f35b61012d60048036036101289190810190610c91565b6103e5565b60405161013a9190610fec565b60405180910390f35b61015d60048036036101589190810190610c16565b61071c565b60405161016a9190611069565b60405180910390f35b61017c336102f2565b6101bb576040517f08c379a00000000000000000000000000000000000000000000000000000000081526004016101b2906110ab565b60405180910390fd5b6000809054906101000a900473ffffffffffffffffffffffffffffffffffffffff1673ffffffffffffffffffffffffffffffffffffffff166339035d56600160009054906101000a900473ffffffffffffffffffffffffffffffffffffffff16836040518363ffffffff1660e01b8152600401610239929190610f8c565b600060405180830381600087803b15801561025357600080fd5b505af1158015610267573d6000803e3d6000fd5b5050505080600160006101000a81548173ffffffffffffffffffffffffffffffffffffffff021916908373ffffffffffffffffffffffffffffffffffffffff1602179055508073ffffffffffffffffffffffffffffffffffffffff167fce241d7ca1f669fee44b6fc00b8eba2df3bb514eed0f6f668f8f89096e81ed9460405160405180910390a250565b6000600160009054906101000a900473ffffffffffffffffffffffffffffffffffffffff1673ffffffffffffffffffffffffffffffffffffffff168273ffffffffffffffffffffffffffffffffffffffff1614156103535760019050610395565b3073ffffffffffffffffffffffffffffffffffffffff168273ffffffffffffffffffffffffffffffffffffffff1614156103905760019050610395565b600090505b919050565b6000809054906101000a900473ffffffffffffffffffffffffffffffffffffffff1681565b600160009054906101000a900473ffffffffffffffffffffffffffffffffffffffff1681565b606060008060043591506024359050813373ffffffffffffffffffffffffffffffffffffffff166000357fffffffff00000000000000000000000000000000000000000000000000000000167bffffffffffffffffffffffffffffffffffffffffffffffffffffffff19167f644843f351d3fba4abcd60109eaff9f54bac8fb8ccf0bab941009c21df21cf3184346000366040516104869493929190611029565b60405180910390a4610497336102f2565b6104d6576040517f08c379a00000000000000000000000000000000000000000000000000000000081526004016104cd906110ab565b60405180910390fd5b8660008090505b815181101561067257600073ffffffffffffffffffffffffffffffffffffffff1682828151811061050a57fe5b602002602001015173ffffffffffffffffffffffffffffffffffffffff161415610569576040517f08c379a0000000000000000000000000000000000000000000000000000000008152600401610560906110cb565b60405180910390fd5b6000809054906101000a900473ffffffffffffffffffffffffffffffffffffffff1673ffffffffffffffffffffffffffffffffffffffff1663113904418383815181106105b257fe5b60200260200101516040518263ffffffff1660e01b81526004016105d69190610f71565b60206040518083038186803b1580156105ee57600080fd5b505afa158015610602573d6000803e3d6000fd5b505050506040513d601f19601f820116820180604052506106269190810190610d24565b610665576040517f08c379a000000000000000000000000000000000000000000000000000000000815260040161065c9061108b565b60405180910390fd5b80806001019150506104dd565b5087516040519080825280602002602001820160405280156106a857816020015b60608152602001906001900390816106935790505b50935060008090505b8851811015610710576106ec8982815181106106c957fe5b60200260200101518983815181106106dd57fe5b60200260200101518989610980565b8582815181106106f857fe5b602002602001018190525080806001019150506106b1565b50505050949350505050565b606060008060043591506024359050813373ffffffffffffffffffffffffffffffffffffffff166000357fffffffff00000000000000000000000000000000000000000000000000000000167bffffffffffffffffffffffffffffffffffffffffffffffffffffffff19167f644843f351d3fba4abcd60109eaff9f54bac8fb8ccf0bab941009c21df21cf3184346000366040516107bd9493929190611029565b60405180910390a46107ce336102f2565b61080d576040517f08c379a0000000000000000000000000000000000000000000000000000000008152600401610804906110ab565b60405180910390fd5b86600073ffffffffffffffffffffffffffffffffffffffff168173ffffffffffffffffffffffffffffffffffffffff16141561087e576040517f08c379a0000000000000000000000000000000000000000000000000000000008152600401610875906110cb565b60405180910390fd5b6000809054906101000a900473ffffffffffffffffffffffffffffffffffffffff1673ffffffffffffffffffffffffffffffffffffffff166311390441826040518263ffffffff1660e01b81526004016108d89190610f71565b60206040518083038186803b1580156108f057600080fd5b505afa158015610904573d6000803e3d6000fd5b505050506040513d601f19601f820116820180604052506109289190810190610d24565b610967576040517f08c379a000000000000000000000000000000000000000000000000000000000815260040161095e9061108b565b60405180910390fd5b61097388888888610980565b9350505050949350505050565b60607fbd37415aaf130f9a169d66bc22d669b6a5aa55f384e7b41d105714eb8277b3418584846040516109b593929190610fb5565b60405180910390a1600080855160208701886113885a03f43d6040519250601f19601f6020830101168301604052808352806000602085013e8115600181146109fd57610a04565b8160208501fd5b505050949350505050565b600081359050610a1e816112e7565b92915050565b600082601f830112610a3557600080fd5b8135610a48610a4382611118565b6110eb565b91508181835260208401935060208101905083856020840282011115610a6d57600080fd5b60005b83811015610a9d5781610a838882610a0f565b845260208401935060208301925050600181019050610a70565b5050505092915050565b600082601f830112610ab857600080fd5b8135610acb610ac682611140565b6110eb565b9150818183526020840193506020810190508360005b83811015610b115781358601610af78882610b30565b845260208401935060208301925050600181019050610ae1565b5050505092915050565b600081519050610b2a816112fe565b92915050565b600082601f830112610b4157600080fd5b8135610b54610b4f82611168565b6110eb565b91508082526020830160208301858383011115610b7057600080fd5b610b7b838284611294565b50505092915050565b600082601f830112610b9557600080fd5b8135610ba8610ba382611194565b6110eb565b91508082526020830160208301858383011115610bc457600080fd5b610bcf838284611294565b50505092915050565b600081359050610be781611315565b92915050565b600060208284031215610bff57600080fd5b6000610c0d84828501610a0f565b91505092915050565b60008060008060808587031215610c2c57600080fd5b6000610c3a87828801610a0f565b945050602085013567ffffffffffffffff811115610c5757600080fd5b610c6387828801610b84565b9350506040610c7487828801610bd8565b9250506060610c8587828801610bd8565b91505092959194509250565b60008060008060808587031215610ca757600080fd5b600085013567ffffffffffffffff811115610cc157600080fd5b610ccd87828801610a24565b945050602085013567ffffffffffffffff811115610cea57600080fd5b610cf687828801610aa7565b9350506040610d0787828801610bd8565b9250506060610d1887828801610bd8565b91505092959194509250565b600060208284031215610d3657600080fd5b6000610d4484828501610b1b565b91505092915050565b6000610d598383610e69565b905092915050565b610d6a81611242565b82525050565b6000610d7b826111d0565b610d8581856111fe565b935083602082028501610d97856111c0565b8060005b85811015610dd35784840389528151610db48582610d4d565b9450610dbf836111f1565b925060208a01995050600181019050610d9b565b50829750879550505050505092915050565b610dee81611254565b82525050565b610dfd81611260565b82525050565b6000610e0f8385611220565b9350610e1c838584611294565b610e25836112d6565b840190509392505050565b6000610e3b826111e6565b610e458185611220565b9350610e558185602086016112a3565b610e5e816112d6565b840191505092915050565b6000610e74826111db565b610e7e818561120f565b9350610e8e8185602086016112a3565b610e97816112d6565b840191505092915050565b6000610eaf601483611231565b91507f6c6f6769632d6e6f742d617574686f72697365640000000000000000000000006000830152602082019050919050565b6000610eef601183611231565b91507f7065726d697373696f6e2d64656e6965640000000000000000000000000000006000830152602082019050919050565b6000610f2f601c83611231565b91507f6c6f6769632d70726f78792d616464726573732d7265717569726564000000006000830152602082019050919050565b610f6b8161128a565b82525050565b6000602082019050610f866000830184610d61565b92915050565b6000604082019050610fa16000830185610d61565b610fae6020830184610d61565b9392505050565b6000606082019050610fca6000830186610d61565b610fd76020830185610f62565b610fe46040830184610f62565b949350505050565b600060208201905081810360008301526110068184610d70565b905092915050565b60006020820190506110236000830184610de5565b92915050565b600060608201905061103e6000830187610df4565b61104b6020830186610f62565b818103604083015261105e818486610e03565b905095945050505050565b600060208201905081810360008301526110838184610e30565b905092915050565b600060208201905081810360008301526110a481610ea2565b9050919050565b600060208201905081810360008301526110c481610ee2565b9050919050565b600060208201905081810360008301526110e481610f22565b9050919050565b6000604051905081810181811067ffffffffffffffff8211171561110e57600080fd5b8060405250919050565b600067ffffffffffffffff82111561112f57600080fd5b602082029050602081019050919050565b600067ffffffffffffffff82111561115757600080fd5b602082029050602081019050919050565b600067ffffffffffffffff82111561117f57600080fd5b601f19601f8301169050602081019050919050565b600067ffffffffffffffff8211156111ab57600080fd5b601f19601f8301169050602081019050919050565b6000819050602082019050919050565b600081519050919050565b600081519050919050565b600081519050919050565b6000602082019050919050565b600082825260208201905092915050565b600082825260208201905092915050565b600082825260208201905092915050565b600082825260208201905092915050565b600061124d8261126a565b9050919050565b60008115159050919050565b6000819050919050565b600073ffffffffffffffffffffffffffffffffffffffff82169050919050565b6000819050919050565b82818337600083830152505050565b60005b838110156112c15780820151818401526020810190506112a6565b838111156112d0576000848401525b50505050565b6000601f19601f8301169050919050565b6112f081611242565b81146112fb57600080fd5b50565b61130781611254565b811461131257600080fd5b50565b61131e8161128a565b811461132957600080fd5b5056fea365627a7a7231582097e30b599641f4e06353b8dbc6a16e2c9c6dc54657e0ed9ea753dd51b72f449a6c6578706572696d656e74616cf564736f6c63430005100040",
  "source": "/**\n *Submitted for verification at Etherscan.io on 2019-04-07\n*/\n\npragma experimental ABIEncoderV2;\n\n/**\n * @title RegistryInterface Interface \n */\ninterface RegistryInterface {\n    function logic(address logicAddr) external view returns (bool);\n    function record(address currentOwner, address nextOwner) external;\n}\n\n\n/**\n * @title Address Registry Record\n */\ncontract AddressRecord {\n\n    /**\n     * @dev address registry of system, logic and wallet addresses\n     */\n    address public registry;\n\n    /**\n     * @dev Throws if the logic is not authorised\n     */\n    modifier logicAuth(address logicAddr) {\n        require(logicAddr != address(0), \"logic-proxy-address-required\");\n        require(RegistryInterface(registry).logic(logicAddr), \"logic-not-authorised\");\n        _;\n    }\n\n    modifier logicAuths(address[] memory logicAddrs) {\n        for(uint256 i = 0; i < logicAddrs.length; i++) {\n            require(logicAddrs[i] != address(0), \"logic-proxy-address-required\");\n            require(RegistryInterface(registry).logic(logicAddrs[i]), \"logic-not-authorised\"); \n        }\n        _;\n    }\n\n}\n\n\n/**\n * @title User Auth\n */\ncontract UserAuth is AddressRecord {\n\n    event LogSetOwner(address indexed owner);\n    address public owner;\n\n    /**\n     * @dev Throws if not called by owner or contract itself\n     */\n    modifier auth {\n        require(isAuth(msg.sender), \"permission-denied\");\n        _;\n    }\n\n    /**\n     * @dev sets new owner\n     */\n    function setOwner(address nextOwner) public auth {\n        RegistryInterface(registry).record(owner, nextOwner);\n        owner = nextOwner;\n        emit LogSetOwner(nextOwner);\n    }\n\n    /**\n     * @dev checks if called by owner or contract itself\n     * @param src is the address initiating the call\n     */\n    function isAuth(address src) public view returns (bool) {\n        if (src == owner) {\n            return true;\n        } else if (src == address(this)) {\n            return true;\n        }\n        return false;\n    }\n}\n\n\n/**\n * @dev logging the execute events\n */\ncontract UserNote {\n    event LogNote(\n        bytes4 indexed sig,\n        address indexed guy,\n        bytes32 indexed foo,\n        bytes32 bar,\n        uint wad,\n        bytes fax\n    );\n\n    modifier note {\n        bytes32 foo;\n        bytes32 bar;\n        assembly {\n            foo := calldataload(4)\n            bar := calldataload(36)\n        }\n        emit LogNote(\n            msg.sig, \n            msg.sender, \n            foo, \n            bar, \n            msg.value,\n            msg.data\n        );\n        _;\n    }\n}\n\n\n/**\n * @title User Owned Contract Wallet\n */\ncontract UserWallet is UserAuth, UserNote {\n\n    event LogExecute(address target, uint srcNum, uint sessionNum);\n\n    /**\n     * @dev sets the \"address registry\", owner's last activity, owner's active period and initial owner\n     */\n    constructor() public {\n        registry = msg.sender;\n        owner = msg.sender;\n    }\n\n    function() external payable {}\n\n\n\n    function _execute(\n        address _target, // modules addresses\n        bytes memory _data,\n        uint _src,\n        uint _session\n    )\n        private\n        returns (bytes memory response)\n    {\n        emit LogExecute(\n            _target,\n            _src,\n            _session\n        );\n        \n        // call contract in current context\n        assembly {\n            let succeeded := delegatecall(sub(gas, 5000), _target, add(_data, 0x20), mload(_data), 0, 0)\n            let size := returndatasize\n\n            response := mload(0x40)\n            mstore(0x40, add(response, and(add(add(size, 0x20), 0x1f), not(0x1f))))\n            mstore(response, size)\n            returndatacopy(add(response, 0x20), 0, size)\n\n            switch iszero(succeeded)\n                case 1 {\n                    // throw if delegatecall failed\n                    revert(add(response, 0x20), size)\n                }\n        }\n\n    }\n\n\n    /**\n     * @dev Execute authorised calls via delegate call\n     * @param _target logic proxy address\n     * @param _data delegate call data\n     * @param _src to find the source\n     * @param _session to find the session\n     */\n    function execute(\n        address _target, // modules addresses\n        bytes memory _data,\n        uint _src,\n        uint _session\n    ) \n        public\n        payable\n        note\n        auth\n        logicAuth(_target)\n        returns (bytes memory response)\n    {\n      response = _execute(_target, _data, _src, _session);   \n    }\n\n    function executeMulti(\n        address[] memory _targets, // modules addresses\n        bytes[] memory _data,\n        uint _src,\n        uint _session\n    )\n        public\n        payable\n        note\n        auth\n        logicAuths(_targets)\n        returns (bytes[] memory returnData)\n    {\n\n        returnData = new bytes[](_targets.length);\n        for(uint256 i = 0; i < _targets.length; i++) {\n            returnData[i] = _execute(_targets[i], _data[i], _src, _session); \n        }\n    }\n\n}\n\n\n/// @title AddressRegistry\n/// @notice \n/// @dev \ncontract AddressRegistry {\n    event LogSetAddress(string name, address addr);\n\n    /// @notice Registry of role and address\n    mapping(bytes32 => address) registry;\n\n    /**\n     * @dev Check if msg.sender is admin or owner.\n     */\n    modifier isAdmin() {\n        require(\n            msg.sender == getAddress(\"admin\") || \n            msg.sender == getAddress(\"owner\"),\n            \"permission-denied\"\n        );\n        _;\n    }\n\n    /// @dev Get the address from system registry \n    /// @param _name (string)\n    /// @return  (address) Returns address based on role\n    function getAddress(string memory _name) public view returns(address) {\n        return registry[keccak256(abi.encodePacked(_name))];\n    }\n\n    /// @dev Set new address in system registry \n    /// @param _name (string) Role name\n    /// @param _userAddress (string) User Address\n    function setAddress(string memory _name, address _userAddress) public isAdmin {\n        registry[keccak256(abi.encodePacked(_name))] = _userAddress;\n        emit LogSetAddress(_name, _userAddress);\n    }\n}\n\n\n/// @title LogicRegistry\n/// @notice\n/// @dev LogicRegistry \ncontract LogicRegistry is AddressRegistry {\n\n    event LogEnableStaticLogic(address logicAddress);\n    event LogEnableLogic(address logicAddress);\n    event LogDisableLogic(address logicAddress);\n\n    /// @notice Map of static proxy state\n    mapping(address => bool) public logicProxiesStatic;\n    \n    /// @notice Map of logic proxy state\n    mapping(address => bool) public logicProxies;\n\n    /// @dev \n    /// @param _logicAddress (address)\n    /// @return  (bool)\n    function logic(address _logicAddress) public view returns (bool) {\n        if (logicProxiesStatic[_logicAddress] || logicProxies[_logicAddress]) {\n            return true;\n        }\n        return false;\n    }\n\n    /// @dev \n    /// @param _logicAddress (address)\n    /// @return  (bool)\n    function logicStatic(address _logicAddress) public view returns (bool) {\n        if (logicProxiesStatic[_logicAddress]) {\n            return true;\n        }\n        return false;\n    }\n\n    /// @dev Sets the static logic proxy to true\n    /// static proxies mostly contains the logic for withdrawal of assets\n    /// and can never be false to freely let user withdraw their assets\n    /// @param _logicAddress (address)\n    function enableStaticLogic(address _logicAddress) public isAdmin {\n        logicProxiesStatic[_logicAddress] = true;\n        emit LogEnableStaticLogic(_logicAddress);\n    }\n\n    /// @dev Enable logic proxy address\n    /// @param _logicAddress (address)\n    function enableLogic(address _logicAddress) public isAdmin {\n        logicProxies[_logicAddress] = true;\n        emit LogEnableLogic(_logicAddress);\n    }\n\n    /// @dev Disable logic proxy address\n    /// @param _logicAddress (address)\n    function disableLogic(address _logicAddress) public isAdmin {\n        logicProxies[_logicAddress] = false;\n        emit LogDisableLogic(_logicAddress);\n    }\n\n}\n\n\n/**\n * @dev Deploys a new proxy instance and sets msg.sender as owner of proxy\n */\ncontract WalletRegistry is LogicRegistry {\n    \n    event Created(address indexed sender, address indexed owner, address proxy);\n    event LogRecord(address indexed currentOwner, address indexed nextOwner, address proxy);\n    \n    /// @notice Address to UserWallet proxy map\n    mapping(address => UserWallet) public proxies;\n    \n    /// @dev Deploys a new proxy instance and sets custom owner of proxy\n    /// Throws if the owner already have a UserWallet\n    /// @return proxy ()\n    function build() public returns (UserWallet proxy) {\n        proxy = build(msg.sender);\n    }\n\n    /// @dev update the proxy record whenever owner changed on any proxy\n    /// Throws if msg.sender is not a proxy contract created via this contract\n    /// @return proxy () UserWallet\n    function build(address _owner) public returns (UserWallet proxy) {\n        require(proxies[_owner] == UserWallet(0), \"multiple-proxy-per-user-not-allowed\");\n        proxy = new UserWallet();\n        proxies[address(this)] = proxy; // will be changed via record() in next line execution\n        proxy.setOwner(_owner);\n        emit Created(msg.sender, _owner, address(proxy));\n    }\n\n    /// @dev Transafers ownership\n    /// @param _currentOwner (address) Current Owner\n    /// @param _nextOwner (address) Next Owner\n    function record(address _currentOwner, address _nextOwner) public {\n        require(msg.sender == address(proxies[_currentOwner]), \"invalid-proxy-or-owner\");\n        require(proxies[_nextOwner] == UserWallet(0), \"multiple-proxy-per-user-not-allowed\");\n        proxies[_nextOwner] = proxies[_currentOwner];\n        proxies[_currentOwner] = UserWallet(0);\n        emit LogRecord(_currentOwner, _nextOwner, address(proxies[_nextOwner]));\n    }\n\n}\n\n\n/// @title BitStakerRegistery\n/// @dev Initializing Registry\ncontract BitStakerRegistery is WalletRegistry {\n\n    constructor() public {\n        registry[keccak256(abi.encodePacked(\"admin\"))] = msg.sender;\n        registry[keccak256(abi.encodePacked(\"owner\"))] = msg.sender;\n    }\n}",
  "sourcePath": "/Users/sarveshjain/personal/staking/onchain-staking/contracts/BitStakerRegistry.sol",
  "compiler": {
    "name": "solc",
    "version": "0.5.16+commit.9c3226ce.Emscripten.clang"
  },
  "schemaVersion": "3.4.1",
  "updatedAt": "2021-06-13T17:53:11.272Z",
  "devdoc": {
    "methods": {
      "constructor": {
        "details": "sets the \"address registry\", owner's last activity, owner's active period and initial owner"
      },
      "execute(address,bytes,uint256,uint256)": {
        "details": "Execute authorised calls via delegate call",
        "params": {
          "_data": "delegate call data",
          "_session": "to find the session",
          "_src": "to find the source",
          "_target": "logic proxy address"
        }
      },
      "isAuth(address)": {
        "details": "checks if called by owner or contract itself",
        "params": {
          "src": "is the address initiating the call"
        }
      },
      "setOwner(address)": {
        "details": "sets new owner"
      }
    },
    "title": "User Owned Contract Wallet"
  },
  "userdoc": {
    "methods": {}
  }
}